:100000000C9461000C947E000C947E000C947E0095
:100010000C947E000C947E000C947E000C947E0068
:100020000C947E000C947E000C947E000C947E0058
:100030000C947E000C947E000C947E000C947E0048
:100040000C9481070C947E000C947E000C947E002E
:100050000C947E000C947E000C947E000C947E0028
:100060000C94C9040C947E000000000024002700BA
:100070002A0000000000250028002B0000000000DE
:1000800023002600290004040404040404040202DA
:100090000202020203030303030301020408102007
:1000A0004080010204081020010204081020000012
:1000B0000007000201000003040600000000000029
:1000C000000011241FBECFEFD8E0DEBFCDBF11E08E
:1000D000A0E0B1E0E2EFF1E102C005900D92A8319D
:1000E000B107D9F711E0A8E1B1E001C01D92AC3928
:1000F000B107E1F70E9426070C94F7080C94000062
:10010000CF93DF93BC018230910510F462E070E080
:10011000A0919A01B0919B01ED01E0E0F0E040E098
:1001200050E021C0888199818617970769F48A81F8
:100130009B81309719F09383828304C090939B0135
:1001400080939A01FE0134C06817790738F441158D
:10015000510519F08417950708F4AC01FE018A8156
:100160009B819C01E9012097E9F641155105A9F110
:10017000CA01861B970B049708F4BA01E0E0F0E08F
:100180002AC08D919C91119784179507F9F46417F3
:10019000750781F412968D919C911397309719F001
:1001A0009383828304C090939B0180939A01FD0105
:1001B00032964CC0CA01861B970BFD01E80FF91F50
:1001C0006193719302978D939C9340C0FD0182814E
:1001D00093819C01D9011097A1F68091980190918B
:1001E0009901892B41F48091020190910301909330
:1001F00099018093980140910401509105014115A6
:10020000510541F44DB75EB7809100019091010115
:10021000481B590B2091980130919901CA01821B0A
:10022000930B8617970780F0AB014E5F5F4F8417E3
:10023000950750F0420F531F509399014093980136
:10024000F9016193719302C0E0E0F0E0CF01DF912A
:10025000CF910895CF93DF93009709F450C0EC013C
:1002600022971B821A82A0919A01B0919B0110974C
:1002700009F140E050E0AC17BD0708F1BB83AA8349
:10028000FE0121913191E20FF31FAE17BF0779F400
:100290008D919C911197280F391F2E5F3F4F398305
:1002A000288312968D919C9113979B838A83411585
:1002B000510571F4D0939B01C0939A0120C012960E
:1002C0008D919C911397AD01009711F0DC01D3CF74
:1002D000FA01D383C28321913191E20FF31FCE172C
:1002E000DF0769F488819981280F391F2E5F3F4FFE
:1002F000FA01318320838A819B8193838283DF91FA
:10030000CF9108950F931F93CF93DF93EC01062FA6
:10031000142F8C819D816F810E94040421E030E0C4
:10032000002E02C0220F331F0A94E2F7422F40959D
:10033000482380E090E0112311F481E090E002C0B6
:10034000880F991F0A95E2F7482B8C819D816F8158
:100350000E94EB03DF91CF911F910F910895DF92DF
:10036000EF92FF920F931F937C01D62E042FFC0176
:100370008481958166810E94040441E050E00D2C47
:1003800002C0440F551F0A94E2F74095482310E03D
:1003900002C0000F111FDA94E2F7402BF7018481AD
:1003A000958166810E94EB031F910F91FF90EF9062
:1003B000DF9008950F931F938C01F801628540E050
:1003C0000E94AF0181E090E00E941508C801F80189
:1003D000628541E00E94AF0181E090E00E94150833
:1003E000C801F801628540E00E94AF0184E690E018
:1003F0000E9415081F910F910895CF92DF92EF92FE
:10040000FF920F931F93CF93DF93F82EE92E282F9F
:10041000392FC9018C01C0E0D0E0C62EDD248F2D1C
:100420009E2DF801638541E00E948201A6010C2EF9
:1004300002C0559547950A94E2F741708F2D9E2D85
:10044000F80163850E94AF0121960F5F1F4FC830EE
:10045000D10529F78F2D9E2D0E94DA01DF91CF91D2
:100460001F910F91FF90EF90DF90CF900895CF9262
:10047000DF92EF92FF920F931F93CF93DF93F82EAB
:10048000E92E282F392FC9018C01C0E0D0E0C62EFB
:10049000DD248F2D9E2DF801638541E00E948201AD
:1004A000A6010C2E02C0559547950A94E2F74170BB
:1004B0008F2D9E2DF80163850E94AF0121960F5F5D
:1004C0001F4FC430D10529F78F2D9E2D0E94DA01D0
:1004D000DF91CF911F910F91FF90EF90DF90CF9020
:1004E00008951F93CF93DF93EC01162F68850E9428
:1004F000AF0169856F3F21F0CE0140E00E94AF015E
:100500008B8984FF05C0CE01612F0E94FD010EC0C2
:10051000612F70E084E0759567958A95E1F7CE01CB
:100520000E943702CE01612F0E943702DF91CF91E6
:100530001F91089541E00E94710281E090E00895CA
:1005400040E00E9471020895FC016489862F846056
:10055000848B6C60CF010E94A0020895DF93CF933B
:10056000CDB7DEB728970FB6F894DEBF0FBECDBF6C
:100570009C01FE013196A0E1B1E088E00D9001926E
:100580008150E1F7F9018789481710F0482F415051
:10059000E42FF0E0EE0FFF1FEC0FFD1F8181680FCD
:1005A0006068C9010E94A00228960FB6F894DEBFC9
:1005B0000FBECDBFCF91DF91089561E00E94A002F0
:1005C00080ED97E00E9415080895CF93DF93EC012A
:1005D000423018F08B8988608B8B4F8B188E2223CA
:1005E00029F0413019F48B8984608B8B80E593EC82
:1005F0000E941508CE01688540E00E94AF01CE013F
:100600006A8540E00E94AF0169856F3F21F0CE010D
:1006100040E00E94AF016B8964FD1DC0CE0163E024
:100620000E94370284E991E10E941508CE0163E03F
:100630000E94370284E991E10E941508CE0163E02F
:100640000E94370286E990E00E941508CE0162E020
:100650000E94370216C06062CE010E94A00284E9A7
:1006600091E10E9415086B896062CE010E94A00290
:1006700086E990E00E9415086B896062CE010E94B5
:10068000A0026B896062CE010E94A00284E08C8B84
:10069000CE010E94A402CE010E94DD0282E08D8B79
:1006A000CE0166E00E94A002DF91CF9108956F9283
:1006B0007F928F92AF92CF92EF920F931F93DF931F
:1006C000CF93CDB7DEB73C01162FFC0140872187C1
:1006D000028790E08681823109F091E0F3019783EF
:1006E000E386C486A58686868D8587878E85808BE2
:1006F0008F85818B8889828BC301608541E00E9450
:100700008201F30161856F3F21F0C30141E00E9446
:100710008201C301F301628541E00E94820111233D
:1007200019F0F301138A03C080E1F301838BC30145
:1007300060E141E020E00E94E502CF91DF911F914E
:100740000F91EF90CF90AF908F907F906F90089522
:100750008F92AF92CF92EF920F93DF93CF93CDB75B
:10076000DEB7DC0113961C921E9212978CE091E08A
:1007700011969C938E9315967C936E931497169670
:100780004C93169700D000D08DB79EB70196EDB769
:10079000FEB71182FC01118212821382CD0161E049
:1007A000422F202F0E2DEC2CCA2CA82C8A840E94BC
:1007B00057030F900F900F900F90CF91DF910F91F3
:1007C000EF90CF90AF908F900895FC0160836062AE
:1007D000618380E008950F93DF93CF9300D0CDB76E
:1007E000DEB769834A83FC018181BE016F5F7F4F61
:1007F00042E020E001E00E94730480E00F900F903F
:10080000CF91DF910F910895EF92FF920F93DF93B5
:10081000CF9300D0CDB7DEB77C016983FC01818125
:10082000BE016F5F7F4F41E020E001E00E94730452
:10083000F7018181BE016E5F7F4F41E021E00E94A0
:100840002A048A810F900F90CF91DF910F91FF9032
:10085000EF900895382F413210F040E042C080916F
:100860003D018823E1F791E090933D0120933B0106
:100870008FEF80933E0110921901415040931A016D
:100880004F5F9093180180911801330F832B809351
:10089000180180913C01813041F410923C0180911B
:1008A00018018093BB0085EC01C085EE8093BC00ED
:1008B00080913D018130E1F380911901841710F49A
:1008C0004091190120E030E00AC0FB01E20FF31F64
:1008D000D901A55EBE4F8C9180832F5F3F4F2417B7
:1008E000A0F3842F08950F931F93582F122F413296
:1008F00010F081E045C080913D018823E1F782E05E
:1009000080933D0100933B018FEF80933E01109255
:10091000190140931A01ABE1B1E0FB0102C08191E2
:100920008D938E2F861B8417D0F31092180180911F
:100930001801550F852B8093180180913C0181305F
:1009400041F410923C01809118018093BB0085EC2A
:1009500001C085EE8093BC001123A9F080913D0178
:10096000823089F4FBCF80913E01803211F482E025
:1009700007C080913E01803311F084E001C083E024
:100980001F910F91089580913E018F3F61F780E0A4
:10099000F7CF1F920F920FB60F9211242F933F9310
:1009A0004F935F936F937F938F939F93AF93BF9377
:1009B000EF93FF938091B90090E0887F907080362C
:1009C000910509F4F2C081369105CCF58832910584
:1009D00009F47BC089329105B4F48031910509F4A2
:1009E0006FC0813191053CF4009709F447C1089725
:1009F00009F04FC165C08831910509F466C0809740
:100A000009F047C182C08034910509F4A4C0813443
:100A1000910544F48033910509F482C0C89709F028
:100A200038C189C08035910509F489C088359105A0
:100A300009F496C08834910509F02BC1AEC08839FD
:100A4000910509F413C189399105ECF488379105B2
:100A500009F4ABC0893791054CF48836910509F447
:100A6000A4C08037910509F014C19FC08838910552
:100A700009F4FCC08039910509F49DC080389105C6
:100A800009F007C198C0803B910509F4C6C0813BBD
:100A900091054CF4803A910509F49FC0883A91057C
:100AA00009F0F7C0BAC0803C910509F4E3C0883C66
:100AB000910509F4DFC0883B910509F0EAC0C2C086
:100AC000809118018093BB00CFC090911901809153
:100AD0001A01981768F490911901E92FF0E0E55E8A
:100AE000FE4F80818093BB009F5F90931901BCC033
:100AF00080913B01882309F44BC085ED8093BC00B5
:100B00008091BC0084FDFCCFC2C080E280933E0196
:100B100085ED8093BC008091BC0084FDFCCFB7C004
:100B200080E380933E0185ED8093BC008091BC0002
:100B300084FDFCCFACC088E380933E019BC08091D4
:100B400019019091BB00E82FF0E0E55EFE4F908325
:100B50008F5F809319019091190180911A0182C0D1
:100B6000809119019091BB00E82FF0E0E55EFE4F07
:100B700090838F5F8093190180913B01882341F01E
:100B800085ED8093BC008091BC0084FDFCCF7FC0CC
:100B900081E080933C0184EA6EC085ED8093BC00C7
:100BA0008091BC0084FDFCCF72C083E080933D0146
:100BB00010923F0159C080913F01803208F056C029
:100BC00080913F019091BB00E82FF0E0E05CFE4F88
:100BD00090838F5F80933F0147C080913F018032B7
:100BE00030F4E0913F01F0E0E05CFE4F108285EDD3
:100BF0008093BC008091BC0084FDFCCF10923D012D
:100C000060913F01E0916001F091610180E491E029
:100C100070E0099510923F012DC084E080933D0162
:100C20001092620110926301E0916401F0916501FC
:100C3000099580916301882329F481E08093630101
:100C40001092660190916201E92FF0E0EA59FE4F9F
:100C500080818093BB009F5F9093620190916201BD
:100C600080916301981710F485EC01C085E88093AA
:100C7000BC000FC085EC8093BC0009C010923E01FF
:100C800085ED8093BC008091BC0084FDFCCF109268
:100C90003D01FF91EF91BF91AF919F918F917F9116
:100CA0006F915F914F913F912F910F900FBE0F90D9
:100CB0001F901895EF92FF920F931F937B018C0169
:100CC00010923D0181E080933B0110923C0182E152
:100CD00061E00E94870883E161E00E948708E9EBF8
:100CE000F0E080818E7F808380818D7F808360E0D3
:100CF00074E284EF90E0A80197010E94DC08205183
:100D0000304040405040CA01B90122E030E040E0AC
:100D100050E00E94DC082093B80085E48093BC007A
:100D20001F910F91FF90EF90089510928E011092F5
:100D30008D01809188019091890160918A0140E044
:100D40000E94AE0220918A0130918B012F30310533
:100D500018F08FEF9FEF05C02115310531F481E0C8
:100D600090E0909307018093060180910601909195
:100D70000701820F931F90938B0180938A018091CA
:100D80008C0180938D0180918801909189016DE89B
:100D900071E00E947E0780918C018F5F80938C01AF
:100DA00062E370E080E090E00E94EF0708958F9288
:100DB000AF92CF92DF92EF92FF920F931F93209A00
:100DC000289A60E87AE186E090E00E945A0606E8F8
:100DD00011E0C80160E00E94E503C80160E040E066
:100DE0000E94EB03C80162E140E80E94EB0389E145
:100DF00090E00E943507F82ED92E0F9286E0EDB7CD
:100E0000FEB781838F2DB80142E120E001E0F2E0DE
:100E1000EF2EE3E0CE2E54E0A52E35E0832E0E9487
:100E2000A803F0928801D09289010F908F2D9D2DFB
:100E300060E142E020E00E94E5021F910F91FF90E7
:100E4000EF90DF90CF90AF908F900895CF93DF9386
:100E50000E941F080E94D706C0E0D0E00E949506BD
:100E60002097E1F30E940000F9CF0E9480000895CE
:100E7000CF92DF92EF92FF920F931F93CF93DF9366
:100E80007C016B018A01C0E0D0E00FC0D6016D91FA
:100E90006D01D701ED91FC910190F081E02DC7012A
:100EA0000995C80FD91F015010400115110571F7A0
:100EB000CE01DF91CF911F910F91FF90EF90DF90C6
:100EC000CF900895CF93DF93EC016115710519F46C
:100ED00020E030E00FC0DB010D900020E9F7119712
:100EE000A61BB70BE881F9810280F381E02DAD01EB
:100EF00009959C01C901DF91CF9108950E94620775
:100F000008951F920F920FB60F9211242F933F93C3
:100F10008F939F93AF93BF9380919301909194018E
:100F2000A0919501B0919601309197010196A11D74
:100F3000B11D232F2D5F2D3720F02D570196A11DB8
:100F4000B11D209397018093930190939401A093F6
:100F50009501B093960180918F0190919001A0919D
:100F60009101B09192010196A11DB11D80938F0155
:100F700090939001A0939101B0939201BF91AF9192
:100F80009F918F913F912F910F900FBE0F901F90C7
:100F900018959FB7F89420918F013091900140915E
:100FA00091015091920186B5A89B06C08F3F21F018
:100FB0002F5F3F4F4F4F5F4F9FBF542F432F322F15
:100FC0002227280F311D411D511D82E0220F331FA2
:100FD000441F551F8A95D1F7B901CA010895EF92B0
:100FE000FF920F931F93CF93DF937B018C010E949D
:100FF000C907EB010EC00E94C9076C1B7D0B685E20
:101000007340C8F30894E108F10801091109C851B7
:10101000DC4FE114F1040105110569F7DF91CF916F
:101020001F910F91FF90EF900895019739F0880F6D
:10103000991F880F991F02970197F1F708957894E7
:1010400084B5826084BD84B5816084BD85B58260CD
:1010500085BD85B5816085BDEEE6F0E0808181606B
:101060008083E1E8F0E0108280818260808380816B
:1010700081608083E0E8F0E0808181608083E1EB43
:10108000F0E0808184608083E0EBF0E0808181602B
:101090008083EAE7F0E080818460808380818260E1
:1010A00080838081816080838081806880831092CA
:1010B000C1000895833071F0843028F48130A1F0AC
:1010C000823021F514C08630B1F08730D1F0843001
:1010D000E9F404C0809180008F7703C08091800084
:1010E0008F7D80938000089584B58F7702C084B58A
:1010F0008F7D84BD08958091B0008F778093B0007C
:1011000008958091B0008F7D8093B0000895FF9284
:101110000F931F93F62E482F50E0CA0182559F4F20
:10112000FC012491CA0186569F4FFC0114914A5735
:101130005F4FFA0104910023C9F0222319F0822F96
:101140000E945A08E02FF0E0EE0FFF1FEE58FF4F0D
:10115000A591B4919FB7F894FF2021F48C9110953C
:10116000812302C08C91812B8C939FBF1F910F9183
:10117000FF900895A1E21A2EAA1BBB1BFD010DC012
:10118000AA1FBB1FEE1FFF1FA217B307E407F50737
:1011900020F0A21BB30BE40BF50B661F771F881F13
:1011A000991F1A9469F760957095809590959B01A9
:1011B000AC01BD01CF01089597FB092E05260ED085
:1011C00057FD04D0D7DF0AD0001C38F45095409565
:1011D000309521953F4F4F4F5F4F0895F6F790950B
:1011E0008095709561957F4F8F4F9F4F0895F8942C
:0211F000FFCF2F
:1011F20020009C0100000100000000009A02380754
:0812020000004000140054003C
:00000001FF
