:100000000C9464000C94231B0C94561B0C948C00D1
:100010000C948C000C948C000C948C000C94F717AE
:100020000C948C000C948C000C948C000C948C0020
:100030000C948C000C948C000C948C000C948C0010
:100040000C94891B0C948C000C9413010C945E018D
:100050000C948C000C948C000C948C000C948C00F0
:100060000C948C000C948C000200000000240027EB
:10007000002A0000000000250028002B00000000DE
:1000800000230026002900040404040404040402DC
:100090000202020202030303030303010204081025
:1000A00020408001020408102001020408102000F2
:1000B0000000070002010000030406000000000029
:1000C000000000005807010811241FBECFEFD8E040
:1000D000DEBFCDBF12E0A0E0B1E0EAE9F1E802C086
:1000E00005900D92A43CB107D9F713E0A4ECB2E05F
:1000F00001C01D92AB39B107E1F710E0C8ECD0E0C8
:1001000004C02297FE010E949840C43CD107C9F761
:100110000E94AD090C94CB400C940000DF93CF9368
:1001200000D0CDB7DEB79A838983E981FA818EE367
:1001300091E091838083E981FA81138212820F908A
:100140000F90CF91DF910895DF93CF9300D0CDB77B
:10015000DEB79A83898389819A810E948E00E98122
:10016000FA8184E191E091838083E981FA8188EECC
:1001700093E0A0E0B0E084839583A683B7830F90DB
:100180000F90CF91DF910895DF93CF9300D000D0EF
:1001900000D0CDB7DEB78B837D836C838C819D814E
:1001A000FC01E05CFF4F8081918101968F7390701C
:1001B0009A8389838C819D81FC01EE5BFF4F2081B6
:1001C00031811E8289819A812817390711F081E0D7
:1001D0008E838E818823B9F08C819D81FC01E05C47
:1001E000FF4F208131818C819D81FC01E20FF31F43
:1001F0008B8180838C819D81FC01E05CFF4F898134
:100200009A819183808326960FB6F894DEBF0FBE45
:10021000CDBFCF91DF910895DF93CF93CDB7DEB7F8
:10022000CF91DF9108951F920F920FB60F92112474
:100230002F933F934F935F936F937F938F939F93EE
:10024000AF93BF93EF93FF93DF93CF9300D00F92C1
:10025000CDB7DEB7E0ECF0E08081882F90E08470CD
:1002600090701B82009711F481E08B838B8188232F
:1002700059F0E6ECF0E080818A8324EC32E08A8158
:10028000B9010E94C40004C0E6ECF0E080818983DB
:100290000F900F900F90CF91DF91FF91EF91BF9151
:1002A000AF919F918F917F916F915F914F913F910E
:1002B0002F910F900FBE0F901F9018951F920F92C5
:1002C0000FB60F9211242F933F938F939F93AF9369
:1002D000BF93EF93FF93DF93CF9300D0CDB7DEB7FB
:1002E000209148033091490380914A0390914B0338
:1002F0001A822817390711F481E08A838A818823BA
:1003000041F0A1ECB0E0E1ECF0E080818F7D8C93D6
:1003100018C080914A0390914B03FC01E85FFC4FA9
:100320008081898380914A0390914B0301968F735A
:10033000907090934B0380934A03E6ECF0E0898140
:1003400080830F900F90CF91DF91FF91EF91BF913C
:10035000AF919F918F913F912F910F900FBE0F9072
:100360001F9018958F929F92AF92BF92CF92DF927B
:10037000EF92FF920F931F93DF93CF93CDB7DEB72A
:1003800062970FB6F894DEBF0FBECDBF9A83898304
:100390007C836B835E834D8338872F831A8709871D
:1003A000FC86EB86DE86CD86B88AAF869A8A898AF5
:1003B00089819A810E94A400E981FA8184E091E018
:1003C00091838083E981FA818B819C8195878487E1
:1003D000E981FA818D819E8197878687E981FA81FB
:1003E0008F819885918B808BE981FA8189859A85A7
:1003F000938B828BE981FA818B859C85958B848B8D
:10040000E981FA818D859E85978B868BE981FA81BA
:100410008F859889918F808FE981FA8189899A895E
:10042000938F828FE981FA8189A1848FE981FA8192
:100430008AA1858FE981FA818BA1868FE981FA8172
:100440008CA1878FE981FA818DA180A362960FB676
:10045000F894DEBF0FBECDBFCF91DF911F910F91FA
:10046000FF90EF90DF90CF90BF90AF909F908F90D4
:1004700008958F929F92AF92BF92CF92DF92EF92A8
:10048000FF920F931F93DF93CF93CDB7DEB76297A1
:100490000FB6F894DEBF0FBECDBF9A8389837C83ED
:1004A0006B835E834D8338872F831A870987FC8689
:1004B000EB86DE86CD86B88AAF869A8A898A89815C
:1004C0009A810E94A400E981FA8184E091E09183FD
:1004D0008083E981FA818B819C8195878487E9817A
:1004E000FA818D819E8197878687E981FA818F8144
:1004F0009885918B808BE981FA8189859A85938B88
:10050000828BE981FA818B859C85958B848BE9812F
:10051000FA818D859E85978B868BE981FA818F85FF
:100520009889918F808FE981FA8189899A89938F3F
:10053000828FE981FA8189A1848FE981FA818AA178
:10054000858FE981FA818BA1868FE981FA818CA15F
:10055000878FE981FA818DA180A362960FB6F89406
:10056000DEBF0FBECDBFCF91DF911F910F91FF90E6
:10057000EF90DF90CF90BF90AF909F908F900895B5
:10058000DF93CF93CDB7DEB729970FB6F894DEBFD0
:100590000FBECDBF9D838C834E835F836887798731
:1005A00081E089838E819F81A885B985803021EE85
:1005B000920720E0A20720E0B20709F4198289819E
:1005C000882349F1EC81FD81A489B589EC81FD8105
:1005D00080A1282F30E081E090E002C0880F991FB1
:1005E0002A95E2F78C9380E099E0ADE3B0E02E81AC
:1005F0003F8148855985BC01CD010E942240DA0126
:10060000C9010197A109B109B695A7959795879555
:100610009B838A831DC0EC81FD810488F589E02DD0
:10062000108280E894E8AEE1B0E02E813F814885F9
:100630005985BC01CD010E942240DA01C901019710
:10064000A109B109B695A795979587959B838A834C
:100650008A819B8120E18030920728F0898188235C
:1006600011F01982ACCFEC81FD810088F189E02D79
:100670008A819B81892F99278083EC81FD81028863
:10068000F389E02D8A818083EC81FD8111A2EC81C8
:10069000FD81A689B789EC81FD810688F789E02D67
:1006A0008081482FEC81FD81848D282F30E081E00E
:1006B00090E002C0880F991F2A95E2F7842B8C9353
:1006C000EC81FD81A689B789EC81FD810688F789D7
:1006D000E02D8081482FEC81FD81858D282F30E031
:1006E00081E090E002C0880F991F2A95E2F7842BE1
:1006F0008C93EC81FD81A689B789EC81FD81068808
:10070000F789E02D8081482FEC81FD81868D282F8F
:1007100030E081E090E002C0880F991F2A95E2F74F
:10072000842B8C93EC81FD81A689B789EC81FD81B6
:100730000688F789E02D8081482FEC81FD81878D27
:10074000282F30E081E090E0022E02C0880F991F30
:100750000A94E2F7809584238C9329960FB6F89437
:10076000DEBF0FBECDBFCF91DF910895DF93CF9352
:10077000CDB7DEB72B970FB6F894DEBF0FBECDBF57
:100780009E838D834F83588769877A872B8781E083
:1007900089838F819885A985BA85803021EE92075B
:1007A00020E0A20720E0B20709F41982898188239A
:1007B00049F1ED81FE81A489B589ED81FE8180A199
:1007C000282F30E081E090E002C0880F991F2A9521
:1007D000E2F78C9380E099E0ADE3B0E02F813885BB
:1007E00049855A85BC01CD010E942240DA01C90128
:1007F0000197A109B109B695A795979587959C830F
:100800008B831DC0ED81FE810488F589E02D108267
:1008100080E894E8AEE1B0E02F81388549855A85BB
:10082000BC01CD010E942240DA01C9010197A10952
:10083000B109B695A795979587959C838B838B81F6
:100840009C8120E18030920728F08981882311F073
:100850001982ACCFED81FE810088F189E02D8B817A
:100860009C81892F99278083ED81FE810288F389FD
:10087000E02D8B818083ED81FE81008CF18DE02D58
:100880008B858083ED81FE81A689B789ED81FE810C
:100890000688F789E02D8081482FED81FE81848DC7
:1008A000282F30E081E090E002C0880F991F2A9540
:1008B000E2F7842B8C93ED81FE81A689B789ED81C7
:1008C000FE810688F789E02D8081482FED81FE8129
:1008D000858D282F30E081E090E002C0880F991FBD
:1008E0002A95E2F7842B8C93ED81FE81A689B78946
:1008F000ED81FE810688F789E02D8081482FED810A
:10090000FE81868D282F30E081E090E002C0880FC4
:10091000991F2A95E2F7842B8C93ED81FE81A6899D
:10092000B789ED81FE810688F789E02D8081482F07
:10093000ED81FE81878D282F30E081E090E0022E4E
:1009400002C0880F991F0A94E2F7809584238C9344
:100950002B960FB6F894DEBF0FBECDBFCF91DF91BF
:100960000895DF93CF9300D00F92CDB7DEB79A836F
:100970008983E981FA8186859785FC01E05CFF4FD8
:1009800020813181E981FA8186859785FC01EE5BC2
:10099000FF4F808191811B822817390711F081E078
:1009A0008B838B81882329F7E981FA81A689B7890E
:1009B000E981FA810688F789E02D8081482FE98155
:1009C000FA81848D282F30E081E090E002C0880F0A
:1009D000991F2A95E2F7809584238C93E981FA8107
:1009E000A689B789E981FA810688F789E02D808197
:1009F000482FE981FA81858D282F30E081E090E051
:100A000002C0880F991F2A95E2F7809584238C9362
:100A1000E981FA81A689B789E981FA810688F7898F
:100A2000E02D8081482FE981FA81868D282F30E0E2
:100A300081E090E002C0880F991F2A95E2F7809527
:100A400084238C93E981FA81A689B789E981FA81A7
:100A50000688F789E02D8081482FE981FA81878D0A
:100A6000282F30E081E090E002C0880F991F2A957E
:100A7000E2F7809584238C93E981FA81248535857A
:100A8000E981FA8184859585FC01EE5BFF4F8081C9
:100A90009181F901E05CFF4F918380830F900F906B
:100AA0000F90CF91DF910895DF93CF9300D0CDB712
:100AB000DEB79A838983E981FA8184859585FC0173
:100AC000E05CFF4F20813181E981FA818485958541
:100AD000FC01EE5BFF4F80819181A901481B590BFE
:100AE000CA01805C9F4F8F7390700F900F90CF91D1
:100AF000DF910895DF93CF930F92CDB7DEB78CE4EB
:100B000093E00E9454051982009711F081E08983D7
:100B10008981882311F00E940C010F90CF91DF9101
:100B20000895DF93CF9300D000D00F92CDB7DEB7FA
:100B30009A838983E981FA8184859585FC01E05C4B
:100B4000FF4F20813181E981FA8184859585FC01FF
:100B5000EE5BFF4F808191811D822817390711F4C8
:100B600021E02D833D81332329F08FEF9FEF9C837C
:100B70008B8315C0E981FA8124853585E981FA8165
:100B800084859585FC01EE5BFF4F80819181F901A1
:100B9000E80FF91F8081282F30E03C832B838B8165
:100BA0009C810F900F900F900F900F90CF91DF913D
:100BB0000895DF93CF9300D000D000D0CDB7DEB73B
:100BC0009B838A83EA81FB8184859585FC01E05CB7
:100BD000FF4F20813181EA81FB8184859585FC016D
:100BE000EE5BFF4F808191811E822817390711F437
:100BF00021E02E833E81332329F08FEF9FEF9D83E9
:100C00008C832CC0EA81FB8124853585EA81FB81B8
:100C100084859585FC01EE5BFF4F80819181F90110
:100C2000E80FF91F80818983EA81FB81248535855E
:100C3000EA81FB8184859585FC01EE5BFF4F808115
:100C4000918101968F739070F901EE5BFF4F918354
:100C500080838981282F30E03D832C838C819D8186
:100C600026960FB6F894DEBF0FBECDBFCF91DF91B1
:100C70000895DF93CF9300D00F92CDB7DEB79A835C
:100C80008983E981FA8191A181E08927882379F418
:100C9000E981FA810488F589E02D8081882F90E030
:100CA00080749070009719F481E08B8301C01B82DF
:100CB0008B81882331F7E981FA8111A20F900F907F
:100CC0000F90CF91DF910895DF93CF9300D000D0A4
:100CD00000D0CDB7DEB79C838B836D83EB81FC8125
:100CE00086859785FC01E05CFF4F808191810196AC
:100CF0008F7390709A83898329813A81EB81FC817B
:100D000086859785FC01EE5BFF4F808191811E8275
:100D10002817390711F481E08E838E81882361F7CB
:100D2000EB81FC8126853785EB81FC818685978563
:100D3000FC01E05CFF4F80819181F901E80FF91F10
:100D40008D818083EB81FC818685978529813A811D
:100D5000FC01E05CFF4F31832083EB81FC81A6899D
:100D6000B789EB81FC810688F789E02D8081482FC7
:100D7000EB81FC81878D282F30E081E090E0022E0E
:100D800002C0880F991F0A94E2F7842B8C93EB81A1
:100D9000FC8181E081A3EB81FC81A489B589EB8191
:100DA000FC810488F589E02D808180648C9381E04A
:100DB00090E026960FB6F894DEBF0FBECDBFCF9160
:100DC000DF910895DF93CF9300D0CDB7DEB79A833C
:100DD000898381E00F900F90CF91DF9108958F92DA
:100DE0009F92AF92BF92CF92DF92EF92FF920F93BA
:100DF0001F93DF93CF9300D000D0CDB7DEB79A8397
:100E000089837C836B8389819A818130910509F084
:100E10003EC08B819C812FEF8F3F9207C1F500D0A0
:100E200000D00F92EDB7FEB731962CE433E044ECDE
:100E300052E0A8E0B3E084E0808383E0818387E030
:100E4000828385E0838381E08483C901BA01AD0197
:100E500025EC30E004EC10E00F2EF0ECEF2EFF2438
:100E6000F02D0F2EF1ECCF2EDD24F02D0F2EF2EC15
:100E7000AF2EBB24F02D0F2EF6EC8F2E9924F02DE3
:100E80000E9439020F900F900F900F900F900F90CB
:100E90000F900F900F90CF91DF911F910F91FF90C6
:100EA000EF90DF90CF90BF90AF909F908F9008957C
:100EB000DF93CF93CDB7DEB781E090E06FEF7FEFA8
:100EC0000E94EF06CF91DF910895DF93CF9300D07A
:100ED000CDB7DEB79A838983E981FA818AE291E00E
:100EE000918380830F900F90CF91DF9108950F939E
:100EF000DF93CF9300D000D000D0CDB7DEB79A8378
:100F000089836B834C832D830E8389819A810E9410
:100F10006507E981FA8184E291E091838083E98128
:100F2000FA818B818283E981FA818C818383E981D3
:100F3000FA818D818483E981FA818E818583269669
:100F40000FB6F894DEBF0FBECDBFCF91DF910F91EA
:100F500008950F93DF93CF9300D000D000D0CDB78A
:100F6000DEB79A8389836B834C832D830E838981BB
:100F70009A810E946507E981FA8184E291E0918378
:100F80008083E981FA818B818283E981FA818C8176
:100F90008383E981FA818D818483E981FA818E815D
:100FA000858326960FB6F894DEBF0FBECDBFCF91D6
:100FB000DF910F9108950F93DF93CF9300D000D06E
:100FC000CDB7DEB79A8389837C836B8389819A81CD
:100FD0008130910571F48B819C812FEF8F3F9207B7
:100FE00041F48EE693E060E040E020E000E00E9403
:100FF000A9070F900F900F900F90CF91DF910F9155
:101000000895DF93CF93CDB7DEB781E090E06FEF27
:101010007FEF0E94DB07CF91DF910895DF93CF939D
:10102000CDB7DEB728970FB6F894DEBF0FBECDBFA1
:101030009E838D8378876F831C821B821A8219821C
:1010400028C029813A818D819E81820F931FFC01E6
:10105000329620818F819885622F4AE050E00E946D
:10106000150D9C018B819C81820F931F9C838B8328
:101070008F8198856EE20E94BA0A9C018B819C81C7
:10108000820F931F9C838B8389819A8101969A8317
:10109000898389819A81833091059CF2ED81FE815B
:1010A00025818F819885622F4AE050E00E94150DBE
:1010B0009C018B819C81820F931F9C838B838B81EE
:1010C0009C8128960FB6F894DEBF0FBECDBFCF919E
:1010D000DF910895DF93CF9300D000D00F92CDB76A
:1010E000DEB79A8389837C836B8389819A819C0193
:1010F0002E5F3F4F8B819C81B90144E050E00E94FC
:10110000B93E1D82009711F481E08D838D810F908F
:101110000F900F900F900F90CF91DF910895DF9374
:10112000CF9300D000D000D0CDB7DEB79A838983AB
:101130004B835C836D837E8389819A8102969E01B5
:101140002D5F3F4FB90144E050E00E94C63E8981C7
:101150009A8126960FB6F894DEBF0FBECDBFCF9111
:10116000DF910895DF93CF9300D000D0CDB7DEB7E5
:101170009A8389837C836B8389819A8102962B81F0
:101180003C81B90144E050E00E94C63E89819A81C9
:101190000F900F900F900F90CF91DF910895DF93F4
:1011A000CF9300D000D0CDB7DEB79A8389837C83FC
:1011B0006B8389819A810E946507E981FA8184E2C3
:1011C00091E09183808389819A8102962B813C8171
:1011D000B90144E050E00E94C63E0F900F900F907E
:1011E0000F90CF91DF910895DF93CF9300D000D07F
:1011F000CDB7DEB79A8389837C836B8389819A819B
:101200000E946507E981FA8184E291E091838083FD
:1012100089819A8102962B813C81B90144E050E09A
:101220000E94C63E0F900F900F900F90CF91DF91CC
:101230000895DF93CF9300D000D000D0CDB7DEB7B4
:101240009A8389834B835C836D837E8389819A81B2
:101250000E946507E981FA8184E291E091838083AD
:1012600089819A8102969E012D5F3F4FB90144E02A
:1012700050E00E94C63E26960FB6F894DEBF0FBE21
:10128000CDBFCF91DF910895DF93CF9300D000D0F1
:1012900000D0CDB7DEB79A8389834B835C836D839F
:1012A0007E8389819A810E946507E981FA8184E2BF
:1012B00091E09183808389819A8102969E012D5FBE
:1012C0003F4FB90144E050E00E94C63E26960FB65B
:1012D000F894DEBF0FBECDBFCF91DF910895DF93AD
:1012E000CF9300D0CDB7DEB79A83898389819A8165
:1012F0000E946507E981FA8184E291E0918380830D
:1013000089819A81029660E070E044E050E00E949A
:10131000E13E0F900F90CF91DF910895DF93CF932F
:1013200000D0CDB7DEB79A83898389819A810E94E4
:101330006507E981FA8184E291E091838083898164
:101340009A81029660E070E044E050E00E94E13E45
:101350000F900F90CF91DF910895DF93CF93CDB78A
:10136000DEB70E94E91C0E94A4340E94B2348AE7CE
:1013700095E00097D1F30E947A05F7CFDF93CF93E2
:1013800000D000D0CDB7DEB79A838983E981FA8196
:1013900080811C821B82882321F481E090E09C8361
:1013A0008B838B819C810F900F900F900F90CF912A
:1013B000DF910895DF93CF9300D0CDB7DEB79A8346
:1013C0008983E981FA8181E080830F900F90CF912A
:1013D000DF910895DF93CF9300D0CDB7DEB79A8326
:1013E00089830F900F90CF91DF910895DF93CF9372
:1013F000CDB7DEB7CF91DF910895DF93CF9300D0C3
:10140000CDB7DEB79A83898389819A810E94043D92
:101410000F900F90CF91DF910895DF93CF9300D07D
:10142000CDB7DEB79A83898389819A810E945A3C1D
:101430000F900F90CF91DF910895DF93CF9300D05D
:10144000CDB7DEB79A838983E981FA81848195815A
:101450000F900F90CF91DF910895DF93CF93CDB789
:10146000DEB729970FB6F894DEBF0FBECDBF9C83C1
:101470008B837E836D8358874F831A8219821BC0AA
:10148000EB81FC810190F081E02D20813181ED81A3
:10149000FE8140818D819E8101969E838D838B810B
:1014A0009C81642FF90109959C0189819A81820FA1
:1014B000931F9A83898319868F819885009711F0ED
:1014C00081E089878F819885019798878F838985A7
:1014D0008823B1F689819A8129960FB6F894DEBFE8
:1014E0000FBECDBFCF91DF910895DF93CF93CDB7DE
:1014F000DEB72C970FB6F894DEBF0FBECDBF9A872C
:1015000089877C876B878B859C8598878F831E82D4
:101510001D828F8198859B838A838F819885019610
:1015200098878F83EA81FB818491898389818C8369
:101530008C818823A1F0E985FA850190F081E02D66
:101540000190F081E02D89859A856C8109959C0137
:101550008D819E81820F931F9E838D83DACF8D8133
:101560009E812C960FB6F894DEBF0FBECDBFCF91F3
:10157000DF910895DF93CF9300D00F92CDB7DEB700
:101580009A8389836B83E981FA810190F081E02D50
:101590000190F081E02D2B8189819A81622F09953C
:1015A0000F900F900F90CF91DF910895DF93CF931D
:1015B00000D000D0CDB7DEB79A8389837C836B835C
:1015C000EB81FC810190F081E02D0190F081E02D14
:1015D0008B819C8129813A81B90109950F900F90E7
:1015E0000F900F90CF91DF910895DF93CF9300D0AC
:1015F00000D0CDB7DEB79C838B838B819C816DE05F
:101600000E94BA0A9A8389838B819C816AE00E9436
:10161000BA0A9C0189819A81820F931F9A838983D8
:1016200089819A810F900F900F900F90CF91DF9149
:101630000895DF93CF9300D000D000D0CDB7DEB7B0
:101640009C838B837E836D838B819C812D813E81E6
:10165000B9010E94750A9A8389838B819C810E94BB
:10166000F50A9C0189819A81820F931F9A8389834D
:1016700089819A8126960FB6F894DEBF0FBECDBF42
:10168000CF91DF910895DF93CF9300D000D00F92D8
:10169000CDB7DEB79C838B836D838B819C816D81FD
:1016A0000E94BA0A9A8389838B819C810E94F50AE1
:1016B0009C0189819A81820F931F9A8389838981F2
:1016C0009A810F900F900F900F900F90CF91DF9114
:1016D0000895DF93CF9300D000D000D0CDB7DEB710
:1016E0009C838B837E836D838B819C812D813E8146
:1016F000B9010E94D60A9A8389838B819C810E94BA
:10170000F50A9C0189819A81820F931F9A838983AC
:1017100089819A8126960FB6F894DEBF0FBECDBFA1
:10172000CF91DF910895EF92FF920F931F93DF9374
:10173000CF9300D000D000D0CDB7DEB79A83898395
:101740007C836B838B819C81009719F41E821D82A0
:1017500017C0E981FA8180819181FC013296E08095
:10176000F1800B811C818B819C810E94033F9C0135
:1017700089819A81B801A901F70109959E838D831A
:101780008D819E8126960FB6F894DEBF0FBECDBF29
:10179000CF91DF911F910F91FF90EF9008951F93CC
:1017A000DF93CF93CDB7DEB7E0970FB6F894DEBFE7
:1017B0000FBECDBF9AA789A74BA75CA76DA77EA731
:1017C0002FA7CE01089680969F838E83EE81FF819E
:1017D00010828FA5823010F48AE08FA78BA59CA57C
:1017E000ADA5BEA58A839B83AC83BD838FA5282F1F
:1017F00030E040E050E08BA59CA5ADA5BEA5BC01A6
:10180000CD010E942240DA01C9018BA79CA7ADA798
:10181000BEA71A818FA5882F90E0A0E0B0E02BA58D
:101820003CA54DA55EA5BC01CD010E940340DC0195
:10183000CB01912F981B892F89838E819F810197DE
:101840009F838E8389818A3024F48981805D88AB6F
:1018500003C08981895C88ABEE81FF8188A9808380
:101860008BA59CA5ADA5BEA50097A105B10509F066
:10187000B5CF89A59AA52E813F81B9010E94930B0E
:10188000E0960FB6F894DEBF0FBECDBFCF91DF91CB
:101890001F910895DF93CF93CDB7DEB72A970FB688
:1018A000F894DEBF0FBECDBF9A8389834B835C83E0
:1018B0006D837E8338872F838F819885009781F48D
:1018C000E981FA810190F081E02D0190F081E02D15
:1018D0002B8189819A81622F09959A8789870EC009
:1018E000EF8189819A812B813C814D815E81BA0192
:1018F000A9012E2F0E94CF0B9A87898789859A8507
:101900002A960FB6F894DEBF0FBECDBFCF91DF9100
:101910000895DF93CF93CDB7DEB72A970FB6F8942B
:10192000DEBF0FBECDBF9C838B834D835E836F83F1
:1019300078873A8729878B819C812D813E814F81D1
:101940005885E985FA85BA01A9019F010E944A0CD0
:101950009A8389838B819C810E94F50A9C018981ED
:101960009A81820F931F9A83898389819A812A960B
:101970000FB6F894DEBF0FBECDBFCF91DF910895B3
:10198000DF93CF9300D000D000D0CDB7DEB79A83DD
:1019900089837C836B835E834D838B819C819C01D7
:1019A00040E050E089819A81ED81FE81BA01A90170
:1019B0009F010E944A0C26960FB6F894DEBF0FBE18
:1019C000CDBFCF91DF910895DF93CF93CDB7DEB731
:1019D00028970FB6F894DEBF0FBECDBF9C838B83D4
:1019E0007E836D8358874F838B819C812D813E81BF
:1019F0004F815885B9010E94C00C9A8389838B81DD
:101A00009C810E94F50A9C0189819A81820F931F13
:101A10009A83898389819A8128960FB6F894DEBFCC
:101A20000FBECDBFCF91DF910895DF93CF9300D04C
:101A300000D00F92CDB7DEB79A8389836B835D8325
:101A40004C838B81282F30E040E050E089819A81DF
:101A5000EC81FD81BA01A9019F010E944A0C0F90FF
:101A60000F900F900F900F90CF91DF910895DF931B
:101A7000CF93CDB7DEB727970FB6F894DEBF0FBE72
:101A8000CDBF9C838B836D835F834E838B819C81D1
:101A90002E813F816D81A9010E94150D9A83898352
:101AA0008B819C810E94F50A9C0189819A81820F19
:101AB000931F9A83898389819A8127960FB6F89418
:101AC000DEBF0FBECDBFCF91DF910895DF93CF93DF
:101AD000CDB7DEB72C970FB6F894DEBF0FBECDBFE3
:101AE0009C838B834D835E836F8378873A872987B6
:101AF00089859A85009781F4EB81FC810190F081C2
:101B0000E02D0190F081E02D2D818B819C81622F51
:101B100009959C878B8752C089859A858A30910563
:101B200009F03EC08D819E81AF81B885BB2354F5FD
:101B30008B819C816DE20E94BA0A9A8389838D8190
:101B40009E81AF81B885B095A095909581959F4F66
:101B5000AF4FBF4F8D839E83AF83B8872D813E816A
:101B60004F8158858B819C81BA01A9012AE00E948E
:101B7000CF0B9C0189819A81A901480F591F5C876D
:101B80004B871CC02D813E814F8158858B819C8164
:101B9000BA01A9012AE00E94CF0B9C878B870EC057
:101BA0002D813E814F815885E9858B819C81BA01C9
:101BB000A9012E2F0E94CF0B9C878B878B859C853C
:101BC0002C960FB6F894DEBF0FBECDBFCF91DF913C
:101BD0000895DF93CF93CDB7DEB72A970FB6F89469
:101BE000DEBF0FBECDBF9C838B834D835E836F832F
:101BF00078873A8729878B819C812D813E814F810F
:101C00005885E985FA85BA01A9019F010E94660DF0
:101C10009A8389838B819C810E94F50A9C0189812A
:101C20009A81820F931F9A83898389819A812A9648
:101C30000FB6F894DEBF0FBECDBFCF91DF910895F0
:101C4000DF93CF9300D000D000D0CDB7DEB79A831A
:101C500089837C836B835E834D838B819C819C0114
:101C6000442737FD4095542F89819A81ED81FE816B
:101C7000BA01A9019F010E94660D26960FB6F8943D
:101C8000DEBF0FBECDBFCF91DF910895DF93CF931D
:101C9000CDB7DEB728970FB6F894DEBF0FBECDBF25
:101CA0009C838B837E836D8358874F838B819C813C
:101CB0002D813E814F815885B9010E94200E9A8363
:101CC00089838B819C810E94F50A9C0189819A817C
:101CD000820F931F9A83898389819A8128960FB6F0
:101CE000F894DEBF0FBECDBFCF91DF910895DF9393
:101CF000CF9300D000D0CDB7DEB79A8389837C83A1
:101D00006B8389819A812B813C81B9010E94930B5D
:101D10000F900F900F900F90CF91DF910895DF9368
:101D2000CF93CDB7DEB7A1970FB6F894DEBF0FBE45
:101D3000CDBF9B8B8A8B4C8B5D8B6E8B7F8B288F63
:101D4000198A188A6C897D898E899F892C893D8999
:101D50004E895F890E940F39882351F08A899B89B7
:101D60002CE231E0B9010E94770E9C8F8B8F55C118
:101D70001A8E198E8C899D89AE89BF89BF778D8F08
:101D80009E8FAF8FB8A36D8D7E8D8F8D98A12FEF15
:101D90003FEF4FE75FE70E940F39882361F46D8DB5
:101DA0007E8D8F8D98A12FEF3FEF4FE75FE70E9469
:101DB000DF38181624F021E030E03A8F298F81E0D7
:101DC00090E0298D3A8D282739273A8F298F898DE0
:101DD0009A8D009751F08A899B8920E331E0B901FF
:101DE0000E94770E9C8F8B8F18C16C897D898E899C
:101DF0009F892FEF3FEF4FE75FE40E944F3818169F
:101E000054F48A899B8924E331E0B9010E94770E5A
:101E10009C8F8B8F02C16C897D898E899F892FEF62
:101E20003FEF4FE75FEC0E94AF38882354F48A8974
:101E30009B8924E331E0B9010E94770E9C8F8B8F40
:101E4000ECC06C897D898E899F8920E030E040E07C
:101E500050E00E94AF388823ACF48A899B896DE2F8
:101E60000E94BA0A9C0188899989820F931F998BD5
:101E7000888B8C899D89AE89BF89B0588C8B9D8B4E
:101E8000AE8BBF8B80E090E0A0E0BFE38C879D87A6
:101E9000AE87BF871B8213C06C857D858E859F852D
:101EA00020E030E040E251E40E94A337DC01CB01A6
:101EB0008C879D87AE87BF878B818F5F8B839B814C
:101EC000888D981748F36C897D898E899F892C8528
:101ED0003D854E855F850E947C36DC01CB018C8B75
:101EE0009D8BAE8BBF8B6C897D898E899F890E946B
:101EF000D334DC01CB0188879987AA87BB876885A3
:101F000079858A859B850E94EC399B01AC016C899F
:101F10007D898E899F890E944B36DC01CB018C83A1
:101F20009D83AE83BF838A899B89288539854A85AD
:101F30005B85BA01A9012AE030E00E944A0C9C01AD
:101F400088899989820F931F998B888B888D882324
:101F500009F451C08A899B8928E331E0B9010E94C4
:101F6000770E9C0188899989820F931F998B888BA2
:101F700042C06C817D818E819F8120E030E040E213
:101F800051E40E94A936DC01CB018C839D83AE8392
:101F9000BF836C817D818E819F810E949839DC0195
:101FA000CB019A8389838A899B8929813A81B901E6
:101FB0004AE050E00E94200E9C0188899989820F96
:101FC000931F998B888B89819A81AA2797FDA09569
:101FD000BA2FBC01CD010E943A399B01AC016C8142
:101FE0007D818E819F810E944B36DC01CB018C83E9
:101FF0009D83AE83BF83988D99A329A1222311F0DD
:1020000031E039A389A1988D9150988F882309F0E8
:10201000B0CF888999899C8F8B8F8B8D9C8DA19651
:102020000FB6F894DEBF0FBECDBFCF91DF910895FC
:10203000DF93CF93CDB7DEB728970FB6F894DEBF06
:102040000FBECDBF9A8389834B835C836D837E8370
:1020500038872F83EF8189819A812B813C814D8143
:102060005E81BA01A9012E2F0E948F0E28960FB60D
:10207000F894DEBF0FBECDBFCF91DF910895DF93FF
:10208000CF93CDB7DEB72A970FB6F894DEBF0FBE59
:10209000CDBF9C838B834D835E836F8378873A8724
:1020A00029878B819C812D813E814F815885E985CF
:1020B000FA85BA01A9019F010E9418109A838983A9
:1020C0008B819C810E94F50A9C0189819A81820FF3
:1020D000931F9A83898389819A812A960FB6F894EF
:1020E000DEBF0FBECDBFCF91DF910895DF93CF93B9
:1020F00000D000D000D0CDB7DEB79C838B837E8329
:102100006D838B819C812D813E81B9010E94770E68
:102110009A8389838B819C810E94F50A9C01898125
:102120009A81820F931F9A83898389819A81269647
:102130000FB6F894DEBF0FBECDBFCF91DF910895EB
:102140000F931F93DF93CF93CDB7DEB729970FB6C9
:10215000F894DEBF0FBECDBF9E838D8378876F83DB
:102160001C821B821A82198220C0ED81FE8101909F
:10217000F081E02D008111818F81988529813A813C
:10218000B9010E942C24282F8D819E81622FF80195
:1021900009959C018B819C81820F931F9C838B836B
:1021A00089819A8101969A8389838F8198850E947B
:1021B0001D0A9C01198689819A818217930710F460
:1021C00081E089878985882381F68B819C81299686
:1021D0000FB6F894DEBF0FBECDBFCF91DF911F9138
:1021E0000F910895DF93CF9300D000D000D0CDB7EA
:1021F000DEB79C838B837E836D838B819C812D8155
:102200003E81B9010E94A0109A8389838B819C81B1
:102210000E94F50A9C0189819A81820F931F9A83FB
:10222000898389819A8126960FB6F894DEBF0FBE06
:10223000CDBFCF91DF910895DF93CF9300D000D031
:1022400000D0CDB7DEB79A8389834B835C836D83DF
:102250007E83E981FA818B819C81AD81BE818483FB
:102260009583A683B78326960FB6F894DEBF0FBE7C
:10227000CDBFCF91DF910895DF93CF9300D00F9220
:10228000CDB7DEB79A8389836B8389819A816B810D
:102290000E94552E89819A810F900F900F90CF91B7
:1022A000DF910895DF93CF93CDB7DEB727970FB6B1
:1022B000F894DEBF0FBECDBF9C838B830E94F91BB9
:1022C000DC01CB01EB81FC8180879187A287B387FA
:1022D000EB81FC8180819181FC0138960190F08135
:1022E000E02D8B819C8109959A83898389819A81CC
:1022F00099232CF089819A819E838D8323C00E942B
:10230000F91B9B01AC01EB81FC8180859185A28545
:10231000B385281B390B4A0B5B0BEB81FC81848155
:102320009581A681B7811F82281739074A075B0765
:1023300010F491E09F838F81882351F68FEF9FEFF8
:102340009E838D838D819E8127960FB6F894DEBF84
:102350000FBECDBFCF91DF910895DF93CF9300D013
:1023600000D000D0CDB7DEB79C838B838B819C815E
:102370000E9452119A83898389819A8199232CF42E
:1023800089819A819E838D8326C089819A818D322D
:10239000910529F489819A819E838D831CC089814E
:1023A0009A818033910554F089819A818A3391050D
:1023B0002CF489819A819E838D830DC0EB81FC81F1
:1023C00080819181FC0136960190F081E02D8B8116
:1023D0009C810995CBCF8D819E8126960FB6F8946E
:1023E000DEBF0FBECDBFCF91DF910895DF93CF93B6
:1023F000CDB7DEB762970FB6F894DEBF0FBECDBF84
:102400009D878C876E871B861A861E821F82188680
:10241000198680E090E0A0E8BFE389839A83AB83CC
:10242000BC838C859D850E94AD118D838D81882311
:102430004CF480E090E0A0E0B0E08F87988BA98B0F
:10244000BA8BA0C09D818E85981709F444C08D81F8
:102450008D3219F481E08B873EC08D818E3219F464
:1024600081E08A8738C08D818033ACF18D818A33D9
:1024700094F58E819F81A885B9852AE030E040E0FF
:1024800050E0BC01CD010E9403409B01AC018D8155
:10249000992787FD9095A92FB92F820F931FA41F0D
:1024A000B51FC097A109B1098E839F83A887B987FB
:1024B0008A85882381F069817A818B819C812DECCA
:1024C0003CEC4CEC5DE30E94A936DC01CB01898336
:1024D0009A83AB83BC83EC85FD8580819181FC016F
:1024E00036960190F081E02D8C859D8509958C852F
:1024F0009D850E9452118D838D81803324F08D81C2
:102500008A330CF49FCF8D818E3209F49BCF9D814D
:102510008E85981709F496CF8B85882379F08E8164
:102520009F81A885B985B095A095909581959F4F7D
:10253000AF4FBF4F8E839F83A887B9878A85882333
:10254000B9F06E817F81888599850E943A39DC01D6
:10255000CB01BC01CD0129813A814B815C810E9474
:10256000A936DC01CB018F87988BA98BBA8B0AC067
:102570006E817F81888599850E943A396F87788B33
:10258000898B9A8B8F859889A989BA89BC01CD01DD
:1025900062960FB6F894DEBF0FBECDBFCF91DF912C
:1025A0000895DF93CF9300D0CDB7DEB79A838983A8
:1025B00089819A8161E00E94F611DC01CB01BC01A6
:1025C000CD010F900F90CF91DF910895DF93CF93BE
:1025D000CDB7DEB72E970FB6F894DEBF0FBECDBFD6
:1025E000998788876A871F821B821C821D821E82B0
:1025F000888599850E94AD119A83898389819A8102
:1026000099232CF41B861C861D861E867DC08A8518
:10261000282F332727FD309589819A81281739077C
:1026200089F189819A818D32910519F481E08F8336
:1026300029C089819A818033910524F189819A8109
:102640008A339105FCF48B819C81AD81BE812AE0A7
:1026500030E040E050E0BC01CD010E9403409B010E
:10266000AC0189819A81AA2797FDA095BA2F820F84
:10267000931FA41FB51FC097A109B1098B839C8329
:10268000AD83BE83E885F98580819181FC01369612
:102690000190F081E02D8885998509958885998537
:1026A0000E9452119A83898389819A81803391058E
:1026B00034F089819A818A3391050CF4A8CF8A85F8
:1026C000282F332727FD309589819A8128173907CC
:1026D00009F49DCF8F81882379F08B819C81AD8116
:1026E000BE81B095A095909581959F4FAF4FBF4FFC
:1026F0008B839C83AD83BE838B819C81AD81BE81A6
:102700008B879C87AD87BE878B859C85AD85BE8575
:10271000BC01CD012E960FB6F894DEBF0FBECDBF23
:10272000CF91DF910895DF93CF9300D0CDB7DEB77F
:102730009A83898389819A8161E00E94E612DC0193
:10274000CB01BC01CD010F900F90CF91DF91089587
:10275000DF93CF93CDB7DEB727970FB6F894DEBFE0
:102760000FBECDBF9C838B830E94F91BDC01CB0184
:10277000EB81FC8180879187A287B387EB81FC8105
:1027800080819181FC0136960190F081E02D8B8152
:102790009C8109959A83898389819A8199232CF058
:1027A00089819A819E838D8323C00E94F91B9B019E
:1027B000AC01EB81FC8180859185A285B385281BC6
:1027C000390B4A0B5B0BEB81FC8184819581A681DF
:1027D000B7811F82281739074A075B0710F491E079
:1027E0009F838F81882351F68FEF9FEF9E838D8388
:1027F0008D819E8127960FB6F894DEBF0FBECDBFA8
:10280000CF91DF910895DF93CF93CDB7DEB72E97A9
:102810000FB6F894DEBF0FBECDBF9E878D877B8736
:102820006A874C878D859E8522E431E0B9010E943C
:10283000BC308A859B850E94A8139A8389830CC02B
:102840008D859E852981622F0E943C118A859B85FA
:102850000E94A8139A83898389819A81992354F0CD
:102860008C85282F332727FD309589819A81281759
:10287000390731F78D859E858D859E852E960FB6FD
:10288000F894DEBF0FBECDBFCF91DF910895DF93E7
:10289000CF93CDB7DEB72D970FB6F894DEBF0FBE3E
:1028A000CDBF9D878C877B876A878C859D8522E439
:1028B00031E0B9010E94BC308A859B850E94A81333
:1028C0009A8389830CC08C859D852981622F0E9403
:1028D0003C118A859B850E94A8139A8389838981EC
:1028E0009A81992384F78C859D858C859D852D966D
:1028F0000FB6F894DEBF0FBECDBFCF91DF91089524
:10290000DF93CF93CDB7DEB72D970FB6F894DEBF28
:102910000FBECDBF9E838D836F83598748873B87CA
:102920002A878A859B85009719F41D861C8630C0EE
:102930001C821B8222C08D819E810E94A8139A83D3
:10294000898389819A819923FCF08F81282F3327ED
:1029500027FD309589819A8128173907A9F0898147
:10296000E885F98580838885998501969987888788
:102970008B819C8101969C838B832B813C818A85F2
:102980009B8528173907B8F28B819C819D878C879E
:102990008C859D852D960FB6F894DEBF0FBECDBFFA
:1029A000CF91DF910895DF93CF93CDB7DEB72A970C
:1029B0000FB6F894DEBF0FBECDBF9E838D837887A0
:1029C0006F835A8749871C821B8218C08D819E8124
:1029D0000E94A8139A83898389819A819923ACF0F4
:1029E0008981EF81F88580838F819885019698870A
:1029F0008F838B819C8101969C838B832B813C816F
:102A000089859A852817390708F38B819C812A9636
:102A10000FB6F894DEBF0FBECDBFCF91DF91089502
:102A20000F931F93DF93CF93CDB7DEB764970FB6A5
:102A3000F894DEBF0FBECDBF98878F837A876987F2
:102A40005C874B873E872D87188B0F871E821D82E0
:102A50001C821B82E985FA858081882309F067C082
:102A600081E08C8B77C029853A858D819E81F90123
:102A7000E80FF91F8081282F332727FD30958981A2
:102A80009A812817390711F01E821D8229853A85FF
:102A90008D819E81F901E80FF91F8081282F33274E
:102AA00027FD309589819A8128173907A9F48D81EE
:102AB0009E8101969E838D831A8A2D813E818B850E
:102AC0009C852817390710F081E08A8B8A89882332
:102AD00019F081E08C8B3EC08F859889009729F191
:102AE0002D853E858B819C81F901E80FF91F80813E
:102AF000282F332727FD309589819A812817390798
:102B0000A1F48B819C8101969C838B83198A2B81F4
:102B10003C818F8598892817390710F081E0898BCF
:102B20008989882321F01C8A15C01C821B828F8111
:102B300098850E94A8139A8389831B8A89819A8128
:102B40001816190614F481E08B8B8B89882309F001
:102B50008ACF1C8A8C8964960FB6F894DEBF0FBEAC
:102B6000CDBFCF91DF911F910F9108950F931F93C8
:102B7000DF93CF9300D000D000D0CDB7DEB79A83DB
:102B800089837C836B835E834D838B819C810E94D0
:102B9000033F8C018D819E810E94033FDC0189816E
:102BA0009A812B813C81ED81FE81B901A8019F01B1
:102BB0008D010E94101526960FB6F894DEBF0FBE49
:102BC000CDBFCF91DF911F910F910895DF93CF93E8
:102BD00000D000D0CDB7DEB79A8389837C836B8326
:102BE00089819A812B813C81B90140E050E00E94AB
:102BF000B6150F900F900F900F90CF91DF91089521
:102C00000F931F93DF93CF9300D000D000D0CDB7A8
:102C1000DEB79A8389837C836B835E834D8389814E
:102C20009A812B813C814D815E81B90120E030E0A9
:102C300000E010E00E94101526960FB6F894DEBF53
:102C40000FBECDBFCF91DF911F910F910895DF93FC
:102C5000CF93CDB7DEB7AC970FB6F894DEBF0FBEFB
:102C6000CDBF8AA78FEF89A718A61FA21BC08FA16F
:102C700098A5FC01ED5BFE4F90818AA5981769F439
:102C80008FA198A588599F4F9EA38DA3EDA1FEA16A
:102C900084918CA38CA18BA718C18FA198A50196B4
:102CA00098A78FA38FA198A51816190604F71BA241
:102CB0001AA221C08AA19BA1FC01ED5BFE4F80817D
:102CC0008F3FA1F48AA19BA1FC01ED5BFE4F8AA579
:102CD00080838AA19BA188599F4F99A388A3E8A1CB
:102CE000F9A184918F8F8F8D89A70AC08AA19BA19A
:102CF00001969BA38AA38AA19BA118161906D4F654
:102D000089A58F3F09F4DFC089A58CA78CA58130E8
:102D100009F44EC08CA5823009F490C08CA588239C
:102D200009F0D1C0E4E4F0E01082E5E4F0E01082C4
:102D3000A4E4B0E0E4E4F0E0808182608C93A5E458
:102D4000B0E0E5E4F0E0808181608C938AA5882F73
:102D500090E089579F4F9A8F898FE98DFA8D8491E2
:102D6000888F888D882F90E0880F991F8D589F4FEE
:102D70009E8F8D8F8D8D9E8DFC01859194919C8F62
:102D80008B8FFE8FED8F8B8D9C8D9093790380932D
:102D900078038AA5882F90E085569F4F9F8B8E8B56
:102DA000EE89FF8984918D8B8D8980937A038BC006
:102DB000E0E8F0E01082E1E8F0E01082A1E8B0E0A5
:102DC000E1E8F0E0808188608C93A1E8B0E0E1E880
:102DD000F0E0808181608C938AA5882F90E08957EC
:102DE0009F4F988B8F87EF85F88984918E878E858A
:102DF000882F90E0880F991F8D589F4F9C8B8B8B4D
:102E00008B899C89FC01859194919A8B898BFC8B91
:102E1000EB8B89899A899093800380937F038AA59D
:102E2000882F90E085569F4F9D878C87EC85FD8588
:102E300084918B878B858093810345C0E0EBF0E024
:102E40001082E1EBF0E01082A0EBB0E0E0EBF0E00C
:102E5000808182608C93A1EBB0E0E1EBF0E08081B7
:102E600081608C938AA5882F90E089579F4F9E831D
:102E70008D83ED81FE8184918C838C81882F90E0FD
:102E8000880F991F8D589F4F9A87898789859A85C2
:102E9000FC018591949198878F83FA87E9878F81C8
:102EA000988590938703809386038AA5882F90E066
:102EB00085569F4F9B838A83EA81FB818491898316
:102EC00089818093880389A58BA78BA5AC960FB6C3
:102ED000F894DEBF0FBECDBFCF91DF910895DF9391
:102EE000CF9300D00F92CDB7DEB789838981282F89
:102EF00030E03B832A838A819B818130910569F090
:102F00002A813B812230310581F08A819B810097A3
:102F100011F5EEE6F0E010821EC0AFE6B0E0EFE69D
:102F2000F0E080818D7F8C9316C0A0E7B0E0E0E7F1
:102F3000F0E080818D7F8C93E0EBF0E081E0808396
:102F4000A1EBB0E0E1EBF0E08081887F84608C93BE
:102F5000E3EBF0E010820F900F900F90CF91DF9194
:102F60000895DF93CF93CDB7DEB727970FB6F894C8
:102F7000DEBF0FBECDBF8F838FEF8E831D821C827D
:102F800021C08C819D81FC01ED5BFE4F90818F8182
:102F9000981799F48C819D8188599F4F9B838A83D0
:102FA000EA81FB818491898389818E838C819D81D3
:102FB000FC01ED5BFE4F8FEF80838C819D8101963C
:102FC0009D838C838C819D8118161906D4F68E8181
:102FD0000E946F178F8160E00E94831F27960FB6B3
:102FE000F894DEBF0FBECDBFCF91DF9108951F9241
:102FF0000F920FB60F9211242F933F934F935F932D
:103000006F937F938F939F93AF93BF93EF93FF93B0
:10301000DF93CF9300D0CDB7DEB78091820390913C
:103020008303A0918403B09185031A820097A105C0
:10303000B10511F081E08A838A818823A1F1A091F2
:103040008603B0918703E0918603F0918703908116
:103050008091880389278C938091820390918303C8
:10306000A0918403B09185031982181619061A06D7
:103070001B0614F481E0898389818823C1F0809143
:10308000820390918303A0918403B09185030197FB
:10309000A109B1098093820390938303A0938403D1
:1030A000B093850304C0809143010E94B1170F9033
:1030B0000F90CF91DF91FF91EF91BF91AF919F91D1
:1030C0008F917F916F915F914F913F912F910F90D1
:1030D0000FBE0F901F901895DF93CF93CDB7DEB73B
:1030E00065970FB6F894DEBF0FBECDBF8B877D8787
:1030F0006C872E873F87488B598B81E08A871E8299
:103100001F82188619861A821B821C821D828B855B
:103110000E9427168983898188230CF4F4C18B854A
:1031200061E00E946D1E8981882321F089818230AF
:1031300009F01BC18C859D859C0140E050E080E03A
:1031400092E1AAE7B0E0BC01CD010E942240DA0181
:10315000C9010197A109B1098A839B83AC83BD830F
:1031600081E08A878A819B81AC81BD818F3F9105F7
:10317000A105B10509F008F4EBC08C859D859C0183
:1031800040E050E080E492E4AFE0B0E0BC01CD016B
:103190000E942240DA01C9010197A109B1098A837D
:1031A0009B83AC83BD8382E08A878981823011F55D
:1031B0008A819B81AC81BD818F3F9105A105B105BD
:1031C000C9F0C0F08C859D859C0140E050E080E90D
:1031D00090EDA3E0B0E0BC01CD010E942240DA01F5
:1031E000C9010197A109B1098A839B83AC83BD837F
:1031F00083E08A878A819B81AC81BD818F3F910565
:10320000A105B10509F008F4A3C08C859D859C013A
:1032100040E050E088E498EEA1E0B0E0BC01CD01D0
:103220000E942240DA01C9010197A109B1098A83EC
:103230009B83AC83BD838981882319F423E02C8B85
:1032400002C084E08C8B2C892A878981823011F519
:103250008A819B81AC81BD818F3F9105A105B1051C
:10326000C9F0C0F08C859D859C0140E050E084E26F
:1032700094EFA0E0B0E0BC01CD010E942240DA0151
:10328000C9010197A109B1098A839B83AC83BD83DE
:1032900085E08A878A819B81AC81BD818F3F9105C2
:1032A000A105B10509F008F453C08C859D859C01EA
:1032B00040E050E082E19AE7A0E0B0E0BC01CD013F
:1032C0000E942240DA01C9010197A109B1098A834C
:1032D0009B83AC83BD838981882319F484E08B8B25
:1032E00002C026E02B8B8B898A878A819B81AC81E7
:1032F000BD818F3F9105A105B10551F148F18C8544
:103300009D859C0140E050E080E092E1AAE7B0E0BA
:10331000BC01CD010E942240DA01C901072E7AE0EA
:10332000B695A795979587957A95D1F7702D0197C2
:10333000A109B1098A839B83AC83BD8389818823DA
:1033400019F425E02A8B02C087E08A8B2A892A8714
:103350008981882329F4E5E4F0E08A8580834EC0E2
:10336000E1EBF0E08A85808349C08C859D859C01D6
:1033700040E050E080E092E1AAE7B0E0BC01CD017E
:103380000E942240DA01C9010197A109B1098A838B
:103390009B83AC83BD8381E08A878A819B81AC81DA
:1033A000BD81803020E0920721E0A20720E0B20733
:1033B000C0F08C859D859C0140E050E088E498EE4B
:1033C000A1E0B0E0BC01CD010E942240DA01C901B8
:1033D0000197A109B1098A839B83AC83BD8383E0F4
:1033E0008A878981813051F4A1E8B0E0E1E8F0E01A
:1033F0008081982F987F8A85892B8C938E859F85D5
:10340000A889B9890097A105B10501F18C859D8531
:10341000880F991FCC01A0E0B0E02E853F85488938
:103420005989BC01CD010E940340DC01CB0128EE8B
:1034300033E040E050E0BC01CD010E942240DA01BF
:10344000C9018E839F83A887B98708C08FEF9FEF3C
:10345000AFEFBFEF8E839F83A887B98789818D8B5C
:103460002D892130F9F08D898230B1F12D89222307
:1034700009F049C0E7E4F0E08A8180838E819F8172
:10348000A885B9858093740390937503A093760300
:10349000B0937703AEE6B0E0EEE6F0E080818260C4
:1034A0008C9331C0E8E8F0E08A819B81918380832E
:1034B0008E819F81A885B98580937B0390937C033F
:1034C000A0937D03B0937E03AFE6B0E0EFE6F0E0BB
:1034D000808182608C9317C0E3EBF0E08A81808367
:1034E0008E819F81A885B985809382039093830301
:1034F000A0938403B0938503A0E7B0E0E0E7F0E099
:10350000808182608C9365960FB6F894DEBF0FBE03
:10351000CDBFCF91DF910895DF93CF93CDB7DEB7C5
:1035200027970FB6F894DEBF0FBECDBF89837B838C
:103530006A835D834C838981823008F043C089812E
:10354000882F90E0880F991FFC01E757FC4F8A8174
:103550009B81918380838981282F30E03F832E8354
:103560008E819F81009731F02E813F81213031057E
:1035700099F028C0A9E6B0E0E9E6F0E08081982F54
:103580009C7F8C81892B8C93ADE3B0E0EDE3F0E080
:10359000808181608C9316C0A9E6B0E0E9E6F0E096
:1035A0008081282F237F8C819D81880F991F880F10
:1035B000991F822B8C93ADE3B0E0EDE3F0E08081C6
:1035C00082608C9327960FB6F894DEBF0FBECDBFF6
:1035D000CF91DF910895DF93CF9300D00F92CDB7B5
:1035E000DEB789838981823040F58981282F30E0D8
:1035F0003B832A838A819B81009731F02A813B811A
:103600002130310549F00FC0ADE3B0E0EDE3F0E06B
:1036100080818E7F8C9307C0ADE3B0E0EDE3F0E0F6
:1036200080818D7F8C938981882F90E0880F991FEE
:10363000FC01E757FC4F118210820F900F900F9002
:10364000CF91DF9108951F920F920FB60F92112420
:103650002F933F934F935F936F937F938F939F939A
:10366000AF93BF93EF93FF93DF93CF93CDB7DEB7C5
:103670008091890390918A03009729F0E091890352
:10368000F0918A030995CF91DF91FF91EF91BF915E
:10369000AF919F918F917F916F915F914F913F91EA
:1036A0002F910F900FBE0F901F9018951F920F92A1
:1036B0000FB60F9211242F933F934F935F936F9305
:1036C0007F938F939F93AF93BF93EF93FF93DF937A
:1036D000CF93CDB7DEB780918B0390918C03009789
:1036E00029F0E0918B03F0918C030995CF91DF9144
:1036F000FF91EF91BF91AF919F918F917F916F91CA
:103700005F914F913F912F910F900FBE0F901F909F
:1037100018951F920F920FB60F9211248F939F93BB
:10372000AF93BF93DF93CF9300D000D00F92CDB76C
:10373000DEB78091910390919203A0919303B09191
:1037400094038A839B83AC83BD8380919503898393
:103750008A819B81AC81BD810196A11DB11D8A83A7
:103760009B83AC83BD8389818D5F898389818D37FC
:1037700070F089818D5789838A819B81AC81BD815D
:103780000196A11DB11D8A839B83AC83BD83898172
:10379000809395038A819B81AC81BD818093910345
:1037A00090939203A0939303B093940380918D031D
:1037B00090918E03A0918F03B09190030196A11D6B
:1037C000B11D80938D0390938E03A0938F03B093CC
:1037D00090030F900F900F900F900F90CF91DF916B
:1037E000BF91AF919F918F910F900FBE0F901F903F
:1037F0001895DF93CF9300D000D00F92CDB7DEB7EE
:10380000EFE5F0E080818983F894809191039091B5
:103810009203A0919303B09194038A839B83AC831A
:10382000BD83EFE5F0E0898180838A819B81AC8153
:10383000BD81BC01CD010F900F900F900F900F90A4
:10384000CF91DF910895DF93CF9300D000D000D0C7
:10385000CDB7DEB7EFE5F0E080818A83F894809100
:103860008D0390918E03A0918F03B09190038B8371
:103870009C83AD83BE83E6E4F0E080818983E5E349
:10388000F0E08081882F90E081709070882371F043
:1038900089818F3F59F08B819C81AD81BE810196DA
:1038A000A11DB11D8B839C83AD83BE83EFE5F0E04A
:1038B0008A8180838B819C81AD81BE812227382FB4
:1038C000492F5A2F8981882F90E0A0E0B0E0820F25
:1038D000931FA41FB51F880F991FAA1FBB1F880F16
:1038E000991FAA1FBB1FBC01CD0126960FB6F894E5
:1038F000DEBF0FBECDBFCF91DF910895DF93CF9391
:1039000000D000D000D0CDB7DEB76B837C838D8331
:103910009E830E94231CDC01CB019A83898320C0F3
:103920000E94231CDC01CB019C0189819A81A901A1
:10393000481B590BCA0153E0883E950788F08B81DC
:103940009C81AD81BE810197A109B1098B839C83C4
:10395000AD83BE8389819A8188519C4F9A838983E4
:103960008B819C81AD81BE810097A105B105C1F617
:1039700026960FB6F894DEBF0FBECDBFCF91DF9174
:103980000895DF93CF9300D0CDB7DEB79A838983B4
:1039900089819A8101979A83898389819A81009785
:1039A00099F089819A81880F991F880F991F9A83AE
:1039B000898389819A8102979A83898389819A81EF
:1039C0000197F1F79A8389830F900F90CF91DF9140
:1039D0000895DF93CF93CDB7DEB77894A4E4B0E039
:1039E000E4E4F0E0808182608C93A4E4B0E0E4E45D
:1039F000F0E0808181608C93A5E4B0E0E5E4F0E044
:103A0000808182608C93A5E4B0E0E5E4F0E0808101
:103A100081608C93AEE6B0E0EEE6F0E080818160FC
:103A20008C93E1E8F0E01082A1E8B0E0E1E8F0E09A
:103A3000808182608C93A1E8B0E0E1E8F0E08081D1
:103A400081608C93A0E8B0E0E0E8F0E080818160E4
:103A50008C93A1EBB0E0E1EBF0E0808184608C938B
:103A6000A0EBB0E0E0EBF0E0808181608C93AAE70E
:103A7000B0E0EAE7F0E0808184608C93AAE7B0E0F0
:103A8000EAE7F0E0808182608C93AAE7B0E0EAE7A1
:103A9000F0E0808181608C93AAE7B0E0EAE7F0E093
:103AA000808180688C93E1ECF0E01082CF91DF910F
:103AB0000895DF93CF930F92CDB7DEB789838981C5
:103AC000809371010F90CF91DF910895DF93CF9391
:103AD00000D00F92CDB7DEB78B838B818E3018F07C
:103AE0008B818E508B83ECE7F0E080917101882F01
:103AF00090E000249695879507949695879507946E
:103B0000982F802D982F8B818770892B8083AAE72F
:103B1000B0E0EAE7F0E0808180648C93EAE7F0E0CF
:103B20008081882F90E0807490700097B9F7E8E763
:103B3000F0E080818A83E9E7F0E0808189838981F0
:103B4000882F90E0382F22278A81882F90E0822BBF
:103B5000932B0F900F900F90CF91DF910895DF93EB
:103B6000CF93CDB7DEB728970FB6F894DEBF0FBE60
:103B7000CDBF8C837E836D838C8161E00E946D1E3E
:103B80008D819E81009729F48C8160E00E94831FC3
:103B90009BC08D819E818F3F910529F48C8161E0CE
:103BA0000E94831F91C08C81882F90E081559F4F88
:103BB0009B838A83EA81FB81849189838981282F71
:103BC00030E038872F838F81988583309105D1F13C
:103BD0002F813885243031055CF48F8198858130C0
:103BE0009105C1F02F81388522303105F9F05EC092
:103BF0008F8198858630910509F440C02F813885E2
:103C00002730310509F446C08F81988584309105AD
:103C100039F14CC0A4E4B0E0E4E4F0E080818068D5
:103C20008C93E7E4F0E08D8180834EC0A4E4B0E0A3
:103C3000E4E4F0E0808180628C93E8E4F0E08D8140
:103C4000808342C0A0E8B0E0E0E8F0E080818068D6
:103C50008C93E8E8F0E08D819E819183808334C06D
:103C6000A0E8B0E0E0E8F0E0808180628C93EAE8D0
:103C7000F0E08D819E819183808326C0A0EBB0E02F
:103C8000E0EBF0E0808180688C93E3EBF0E08D81E5
:103C900080831AC0A0EBB0E0E0EBF0E080818062AE
:103CA0008C93E4EBF0E08D8180830EC08D819E814A
:103CB000803891052CF48C8160E00E94831F04C041
:103CC0008C8161E00E94831F28960FB6F894DEBFB6
:103CD0000FBECDBFCF91DF910895DF93CF93CDB7C6
:103CE000DEB769970FB6F894DEBF0FBECDBF888FE1
:103CF000698F888D882F90E085569F4F998B888B90
:103D0000E889F98984918F878F858F8B888D882F9B
:103D100090E089579F4F9E878D87ED85FE85849122
:103D20008C878C858E8B8E89882309F47DC08E8943
:103D3000882F90E0880F991F87599F4F9B878A870C
:103D40008A859B85FC018591949199878887FB875B
:103D5000EA87888599859D8B8C8B8E89882F90E04A
:103D6000880F991F8D589F4F9F838E838E819F81CF
:103D7000FC01859194919D838C83FF83EE838C81DC
:103D80009D819B8B8A8B898D8823F1F4EFE5F0E090
:103D900080818B83F894EC89FD898081982F8F89AD
:103DA00080958923EC89FD898083EA89FB8980815C
:103DB000982F8F8980958923EA89FB898083EFE595
:103DC000F0E08B81808330C0898D8230E1F4EFE5B3
:103DD000F0E080818A83F894EC89FD898081982FB6
:103DE0008F8980958923EC89FD898083EA89FB8905
:103DF00090818F89892BEA89FB898083EFE5F0E048
:103E00008A81808311C0EFE5F0E080818983F89496
:103E1000EC89FD8990818F89892BEC89FD898083CC
:103E2000EFE5F0E08981808369960FB6F894DEBFF4
:103E30000FBECDBFCF91DF910895DF93CF9300D018
:103E40000F92CDB7DEB789838981282F30E03B837D
:103E50002A838A819B818330910501F12A813B81EC
:103E6000243031055CF48A819B818130910531F1E8
:103E70002A813B812230310549F13FC08A819B81F3
:103E80008630910559F12A813B812730310571F146
:103E90008A819B818430910549F02FC0A0E8B0E071
:103EA000E0E8F0E080818F778C9327C0A0E8B0E055
:103EB000E0E8F0E080818F7D8C931FC0A4E4B0E047
:103EC000E4E4F0E080818F778C9317C0A4E4B0E045
:103ED000E4E4F0E080818F7D8C930FC0A0EBB0E034
:103EE000E0EBF0E080818F778C9307C0A0EBB0E02F
:103EF000E0EBF0E080818F7D8C930F900F900F901E
:103F0000CF91DF910895DF93CF93CDB7DEB765975B
:103F10000FB6F894DEBF0FBECDBF8C8B6D8B8C8936
:103F2000882F90E081559F4F9D878C87EC85FD857C
:103F300084918B878B858B8B8C89882F90E085561D
:103F40009F4F9A878987E985FA8584918887888534
:103F50008A8B8C89882F90E089579F4F9F838E830F
:103F6000EE81FF8184918D838D81898B898988235E
:103F700009F43BC08B89882319F08B890E941D1F8F
:103F80008989882F90E0880F991F8D589F4F9C83B7
:103F90008B838B819C81FC01859194919A83898389
:103FA000FC83EB8389819A81988B8F87EFE5F0E022
:103FB00080818E87F8948D89882359F4EF85F8895C
:103FC0008081982F8A8980958923EF85F88980835D
:103FD00008C0EF85F88990818A89892BEF85F88957
:103FE0008083EFE5F0E08E85808365960FB6F894C8
:103FF000DEBF0FBECDBFCF91DF910895DF93CF938A
:10400000CDB7DEB763970FB6F894DEBF0FBECDBF56
:10401000898B8989882F90E081559F4F9D878C8758
:10402000EC85FD8584918B878B85888B8989882F8A
:1040300090E085569F4F9A878987E985FA85849114
:10404000888788858F878989882F90E089579F4F37
:104050009F838E83EE81FF8184918D838D818E87F6
:104060008E85882319F41B8A1A8A27C08889882399
:1040700019F088890E941D1F8E85882F90E0880F77
:10408000991F83589F4F9C838B838B819C81FC015C
:10409000859194919A838983FC83EB8389819A81AA
:1040A000FC0190818F858923882329F081E090E0AD
:1040B0009B8B8A8B02C01B8A1A8A8A899B8963968A
:1040C0000FB6F894DEBF0FBECDBFCF91DF9108953C
:1040D000DF93CF93CDB7DEB7AF970FB6F894DEBFBF
:1040E0000FBECDBF8AA36BA32CA33DA34EA35FA39A
:1040F0008AA1882F90E085569F4F9A8B898BE989FA
:10410000FA898491888B888989A38AA1882F90E075
:1041100089579F4F9F878E87EE85FF8584918D8776
:104120008D8588A38BA1882319F029A12FA701C011
:104130001FA63FA53F8F1B8E1C8E1D8E1E8E1F8AB5
:10414000188E198E1A8E8CA19DA1AEA1BFA1880FC9
:10415000991FAA1FBB1F880F991FAA1FBB1F880F7B
:10416000991FAA1FBB1F880F991FAA1FBB1F689406
:1041700013F8B695A795979587951694D1F78B8BDD
:104180009C8BAD8BBE8B23C01EA62F89388D498D8D
:104190005A8D8B899C89AD89BE89281739074A07B2
:1041A0005B0711F441E04EA78F89988DA98DBA8DD8
:1041B0000196A11DB11D8F8B988FA98FBA8F5EA517
:1041C000552329F01AA61BA61CA61DA6C6C088A1A9
:1041D000882F90E0880F991F83589F4F9C878B876B
:1041E0008B859C85FC01859194919A878987FC87B2
:1041F000EB8789859A85FC01908189A198238F8D11
:10420000981709F4C1CF23C019A62F89388D498D7D
:104210005A8D8B899C89AD89BE89281739074A0731
:104220005B0711F481E089A78F89988DA98DBA8DDC
:104230000196A11DB11D8F8B988FA98FBA8F29A5CB
:10424000222329F01AA61BA61CA61DA686C088A19B
:10425000882F90E0880F991F83589F4F98878F83EE
:104260008F819885FC01859194919E838D83F88739
:10427000EF838D819E81FC01908189A198238F8D90
:10428000981709F0C1CF2EC018A62F89388D498DF7
:104290005A8D8B899C89AD89BE89281739074A07B1
:1042A0005B0711F431E038A78F89988DA98DBA8DFD
:1042B0000196A11DB11D8F8B988FA98FBA8F48A52C
:1042C000442329F01AA61BA61CA61DA646C08B8D4A
:1042D0009C8DAD8DBE8D0196A11DB11D8B8F9C8FC8
:1042E000AD8FBE8F88A1882F90E0880F991F8358CB
:1042F0009F4F9C838B838B819C81FC018591949142
:104300009A838983FC83EB8389819A81FC01908164
:1043100089A198238F8D981709F4B6CF8B8D9C8D2A
:10432000AD8DBE8D25E130E040E050E0BC01CD0117
:104330000E940340DC01CB014096A11DB11D9C01F0
:10434000AD01689413F856954795379527951694BF
:10435000D1F72AA73BA74CA75DA78AA59BA5ACA52B
:10436000BDA5BC01CD01AF960FB6F894DEBF0FBE60
:10437000CDBFCF91DF910895DF93CF9300D000D0D0
:104380000F92CDB7DEB78B836C834D831A8219826F
:1043900037C08C8161E00E94831F8D81882399F44E
:1043A0008B810E94FE1F9C018981882F90E0A901CA
:1043B00002C0440F551F8A95E2F7CA01982F8A81DF
:1043C000892B8A8316C08B810E94FE1FAC018981D4
:1043D000282F30E087E090E0821B930B9A0102C007
:1043E000220F331F8A95E2F7C901982F8A81892B02
:1043F0008A838C8160E00E94831F89818F5F89831B
:104400008981883030F28A810F900F900F900F9041
:104410000F90CF91DF910895DF93CF9300D000D01C
:104420000F92CDB7DEB78A836B834C832D831982BD
:1044300039C08C818823A1F48D81282F30E08981B7
:10444000882F90E0A90102C0559547958A95E2F71B
:10445000CA01982F91708A81692F0E94831F17C00B
:104460008D81482F50E08981282F30E087E090E04F
:10447000821B930B9A0102C0359527958A95E2F726
:10448000C901982F91708A81692F0E94831F8B81A7
:1044900061E00E94831F8B8160E00E94831F8981FD
:1044A0008F5F89838981883020F20F900F900F9061
:1044B0000F900F90CF91DF910895AF92BF92CF925E
:1044C000DF92EF92FF920F931F93DF93CF93CDB7BD
:1044D000DEB760970FB6F894DEBF0FBECDBF69831D
:1044E0007A838B839C832D833E834F835887E98611
:1044F000FA860B871C87AD86BE86CF86D88A29812F
:104500003A814B815C818D819E81AF81B885790133
:104510008A01E81AF90A0A0B1B0B2D8D3E8D4F8D6F
:1045200058A18D859E85AF85B889281B390B4A0B0C
:104530005B0BC801B7010E9403407B018C012985F8
:104540003A854B855C858D819E81AF81B885281B1E
:10455000390B4A0B5B0BC801B7010E944440DA01DA
:10456000C9019C01AD018D859E85AF85B889820FFB
:10457000931FA41FB51FBC01CD0160960FB6F89420
:10458000DEBF0FBECDBFCF91DF911F910F91FF9086
:10459000EF90DF90CF90BF90AF900895DF93CF93CF
:1045A00000D0CDB7DEB79A83898389819A810F9035
:1045B0000F90CF91DF910895DF93CF9300D0CDB7C7
:1045C000DEB789836A838981882F90E0382F22277C
:1045D0008A81882F90E0822B932B0F900F90CF91A0
:1045E000DF910895DF93CF93CDB7DEB728970FB64D
:1045F000F894DEBF0FBECDBF69837A838B839C8323
:1046000089819A81AB81BC810097A105B10529F40C
:104610001D821E821F82188612C00E94AF3DDC01DF
:10462000CB0129813A814B815C81BC01CD010E9483
:104630004440DC01CB018D839E83AF83B8878D819D
:104640009E81AF81B885BC01CD0128960FB6F89444
:10465000DEBF0FBECDBFCF91DF910895EF92FF92E5
:104660000F931F93DF93CF93CDB7DEB760970FB64D
:10467000F894DEBF0FBECDBF6D837E838F83988796
:1046800029873A874B875C872D813E814F815885EA
:1046900089859A85AB85BC85281739074A075B074A
:1046A0004CF0ED80FE800F811885ED86FE860F8729
:1046B000188B2CC029853A854B855C858D819E8120
:1046C000AF81B88579018A01E81AF90A0A0B1B0B38
:1046D000D801C70189839A83AB83BC8389819A817E
:1046E000AB81BC81BC01CD010E94F2229B01AC01D7
:1046F0008D819E81AF81B88579018A01E80EF91E0E
:104700000A1F1B1FED86FE860F87188B8D859E85E1
:10471000AF85B889BC01CD0160960FB6F894DEBFB5
:104720000FBECDBFCF91DF911F910F91FF90EF9002
:104730000895DF93CF9300D0CDB7DEB79A838983F6
:1047400089819A81009749F089819A81CC01A0E002
:10475000B0E0BC01CD010E94B43D0F900F90CF910D
:10476000DF910895DF93CF9300D0CDB7DEB79A8362
:104770008983E981FA8111821082E981FA811382A9
:104780001282E981FA8115821482E981FA81168206
:104790000F900F90CF91DF910895DF93CF9300D0CA
:1047A00000D00F92CDB7DEB79A8389837C836B8369
:1047B0004D83E981FA81248135818B819C81821727
:1047C000930758F4E981FA81208131818B819C81A2
:1047D000F901E80FF91F8D8180830F900F900F90E2
:1047E0000F900F90CF91DF910895DF93CF9300D07A
:1047F00000D000D0CDB7DEB79A8389837C836B83EA
:10480000E981FA81248135818B819C81821793070C
:1048100030F4E981FA8180819181009739F4109216
:10482000960346E953E05E834D830BC0E981FA812C
:10483000208131818B819C81A901480F591F5E83A2
:104840004D838D819E8126960FB6F894DEBF0FBEF4
:10485000CDBFCF91DF910895DF93CF9300D000D0EB
:104860000F92CDB7DEB79A8389837C836B83E9810E
:10487000FA81248135818B819C818217930730F4E2
:10488000E981FA8180819181009711F41D820BC02A
:10489000E981FA81208131818B819C81F901E80FC6
:1048A000F91F80818D838D810F900F900F900F9055
:1048B0000F90CF91DF910895DF93CF9300D000D078
:1048C000CDB7DEB79A8389837C836B8389819A8194
:1048D0002B813C81B9010E942C240F900F900F90E6
:1048E0000F90CF91DF910895DF93CF9300D000D048
:1048F00000D0CDB7DEB79C838B836D834E83EB8175
:10490000FC81808191810097D9F0EB81FC818081CD
:1049100091819A8389830FC0E981FA8190818D8189
:10492000981721F4E981FA818E81808389819A81A7
:1049300001969A838983E981FA818081882361F7CE
:1049400026960FB6F894DEBF0FBECDBFCF91DF9194
:104950000895DF93CF9300D000D000D0CDB7DEB75D
:104960009A838983E981FA8180819181009759F046
:10497000E981FA81808191810E94923E6B837C83E0
:104980008D839E8304C01B821C821D821E828B81AC
:104990009C81AD81BE81BC01CD0126960FB6F894F5
:1049A000DEBF0FBECDBFCF91DF910895DF93CF93D0
:1049B00000D000D000D0CDB7DEB79E838D83ED81CF
:1049C000FE8180819181009709F471C0ED81FE81A3
:1049D00084819581009709F46AC0ED81FE81808110
:1049E00091819C838B8305C08B819C8101969C83E4
:1049F0008B83EB81FC818081992787FD90950E94B4
:104A00009C40009789F7ED81FE8120813181ED8105
:104A1000FE81848195810197820F931F9A838983F8
:104A200005C089819A8101979A838983E981FA81F6
:104A30008081992787FD90950E949C40009739F0CE
:104A400029813A818B819C812817390750F7898108
:104A50009A8101969C018B819C81A901481B590B6D
:104A6000CA01ED81FE8195838483ED81FE812081E1
:104A700031818B819C812817390768F4ED81FE8193
:104A800080819181ED81FE81448155812B813C8122
:104A9000B9010E94C63EED81FE8120813181ED8108
:104AA000FE8184819581F901E80FF91F1082269615
:104AB0000FB6F894DEBF0FBECDBFCF91DF91089542
:104AC000DF93CF9300D000D0CDB7DEB79C838B832C
:104AD000EB81FC81808191810097E1F0EB81FC8189
:104AE000808191819A83898310C0E981FA818081D4
:104AF000992787FD90950E94AC40E981FA818083D7
:104B000089819A8101969A838983E981FA818081DA
:104B1000882359F70F900F900F900F90CF91DF914E
:104B20000895DF93CF9300D000D0CDB7DEB79C833C
:104B30008B83EB81FC81808191810097E1F0EB8197
:104B4000FC81808191819A83898310C0E981FA81F7
:104B50008081992787FD90950E94A440E981FA8180
:104B6000808389819A8101969A838983E981FA8178
:104B70008081882359F70F900F900F900F90CF915D
:104B8000DF9108950F931F93DF93CF93CDB7DEB7D7
:104B90002A970FB6F894DEBF0FBECDBF9E838D83DC
:104BA00078876F832D813E818F81988528173907FB
:104BB00019F481E08A8754C0ED81FE81248135811A
:104BC000EF81F885848195812817390711F01A86BD
:104BD00047C0ED81FE8184819581009719F481E0C1
:104BE0008A873EC0ED81FE81808191819C838B8389
:104BF000EF81F885808191819A8389832AC0EB8136
:104C0000FC818081282F332727FD30958B819C8163
:104C100001969C838B83C9010E94A4408C01E98189
:104C2000FA818081282F332727FD309589819A8149
:104C300001969A838983C9010E94A44019860817A6
:104C4000190711F081E089878985882311F01A8678
:104C500007C0EB81FC818081882389F681E08A8707
:104C60008A852A960FB6F894DEBF0FBECDBFCF91CE
:104C7000DF911F910F910895DF93CF93CDB7DEB7EA
:104C80002C970FB6F894DEBF0FBECDBF9E838D83E9
:104C900078876F835A874987EF81F885848195816A
:104CA000009789F0ED81FE8184819581009759F00C
:104CB000EF81F88524813581ED81FE8184819581A4
:104CC0008217930728F44FEF5FEF5C874B875CC038
:104CD000ED81FE812481358189859A85821793072C
:104CE00038F0ED81FE818481958101979A878987CB
:104CF0008FEF9FEF9C838B83ED81FE81808191817B
:104D00009A83898330C0EF81F88520813181898140
:104D10009A81B9010E94343F9A83898389819A815B
:104D2000009771F129813A81ED81FE818081918125
:104D3000A901481B590BCA019C0189859A858217D4
:104D4000930760F029813A81ED81FE818081918114
:104D5000A901481B590BCA019C838B8389819A81C5
:104D600001969A838983ED81FE8120813181898535
:104D70009A85280F391F89819A812817390718F6D3
:104D80008B819C819C878B878B859C852C960FB60D
:104D9000F894DEBF0FBECDBFCF91DF910895DF93B2
:104DA000CF9300D000D0CDB7DEB79A8389837C83C0
:104DB0006B83E981FA8124813581EB81FC818481D7
:104DC0009581A901481B590B89819A812B813C81CE
:104DD000B9010E943C260F900F900F900F90CF9139
:104DE000DF910895DF93CF93CDB7DEB72A970FB643
:104DF000F894DEBF0FBECDBF9C838B837E836D8313
:104E000058874F83EB81FC81248135818F81988580
:104E10008217930728F04FEF5FEF5A87498725C025
:104E2000EB81FC81208131818F819885820F931FD6
:104E3000ED81FE8120813181B9010E94343F9A8346
:104E4000898389819A81009729F48FEF9FEF9A8750
:104E500089870BC029813A81EB81FC818081918116
:104E6000A901481B590B5A87498789859A852A9633
:104E70000FB6F894DEBF0FBECDBFCF91DF9108957E
:104E8000DF93CF9300D000D0CDB7DEB79A8389836C
:104E90007C836B8389819A812B813C81B90140E0BD
:104EA00050E00E94F2260F900F900F900F90CF913C
:104EB000DF910895DF93CF93CDB7DEB72A970FB672
:104EC000F894DEBF0FBECDBF9D838C836E83588761
:104ED0004F83EC81FD81248135818F8198858217F4
:104EE000930728F04FEF5FEF5A87498746C0EC8160
:104EF000FD81208131818F8198850196F901E80F2C
:104F0000F91F80818B83EC81FD81208131818F812C
:104F100098850196F901E80FF91F1082EC81FD8157
:104F2000408151818E81282F332727FD3095CA017A
:104F3000B9010E94293F9A838983EC81FD812081F8
:104F400031818F8198850196F901E80FF91F8B81D6
:104F5000808389819A81009729F48FEF9FEF9A8748
:104F600089870BC029813A81EC81FD818081918103
:104F7000A901481B590B5A87498789859A852A9622
:104F80000FB6F894DEBF0FBECDBFCF91DF9108956D
:104F9000DF93CF9300D00F92CDB7DEB79A8389838A
:104FA0006B83E981FA81848195819C012150304095
:104FB00089819A816B81A9010E945A270F900F90D5
:104FC0000F90CF91DF910895DF93CF93CDB7DEB7E8
:104FD00029970FB6F894DEBF0FBECDBF9C838B839D
:104FE0006D835F834E83EB81FC81248135818E81CB
:104FF0009F818217930728F04FEF5FEF598748870B
:1050000028C0EB81FC81208131818E819F81A901A3
:10501000480F591F8D81282F332727FD3095CA014E
:10502000B9010E94E83E9A83898389819A81009719
:1050300029F48FEF9FEF998788870BC029813A81E8
:10504000EB81FC8180819181A901481B590B598713
:1050500048878885998529960FB6F894DEBF0FBEDC
:10506000CDBFCF91DF910895DF93CF9300D00F9202
:10507000CDB7DEB79A8389836B8389819A816B81EF
:1050800040E050E00E94E4270F900F900F90CF91E6
:10509000DF910895DF93CF93CDB7DEB72A970FB690
:1050A000F894DEBF0FBECDBF9C838B837E836D8360
:1050B00058874F833A8729878F819885009709F40D
:1050C00048C08D819E81009709F443C0EB81FC812B
:1050D0002481358189859A858217930720F0ED8197
:1050E000FE81108236C08F81988501979A838983CB
:1050F000EB81FC812481358189859A85281B390BB8
:1051000089819A812817390760F4EB81FC81248119
:10511000358189859A85A901481B590BCA019A8353
:1051200089836D817E81EB81FC812081318189853C
:105130009A85280F391F49815A81CB01B9010E94F4
:105140001A3F2D813E8189819A81F901E80FF91F6B
:1051500010822A960FB6F894DEBF0FBECDBFCF9156
:10516000DF910895DF93CF9300D000D00F92CDB799
:10517000DEB79A8389837C836B83E981FA812481FA
:105180003581EB81FC81848195812817390760F096
:10519000E981FA8180819181009731F0EB81FC8176
:1051A00080819181009711F41D821EC0E981FA81EE
:1051B00040815181E981FA8124813581EB81FC8133
:1051C00084819581B901681B790BCB01840F951FF0
:1051D000EB81FC8120813181B9010E94F33E1D8267
:1051E000009711F471E07D838D810F900F900F90E7
:1051F0000F900F90CF91DF910895DF93CF9300D060
:1052000000D000D0CDB7DEB79A8389837C836B83CF
:10521000E981FA8184819581009781F48B819C8159
:10522000009729F0EB81FC818081882319F481E0CB
:105230008D8301C01D828D818E831EC08B819C81D8
:10524000009761F4E981FA810190F081E02D80817D
:105250001E82882389F481E08E830EC0E981FA8161
:10526000808191812B813C81B9010E94F33E1E8295
:10527000009711F481E08E838E8126960FB6F89404
:10528000DEBF0FBECDBFCF91DF910895DF93CF93E7
:1052900000D000D000D0CDB7DEB79A8389837C835D
:1052A0006B83E981FA8180819181009731F0EB81F4
:1052B000FC81808191810097A9F5EB81FC8180813F
:1052C00091810097A9F0EB81FC8184819581009701
:1052D00079F0EB81FC8180819181FC018081882FB4
:1052E00090E022273327281B390B3E832D8327C0CC
:1052F000E981FA8180819181009789F0E981FA81C1
:1053000084819581009759F0E981FA8180819181AA
:10531000FC018081282F30E03E832D8310C01E8247
:105320001D820DC0E981FA8180819181EB81FC8130
:1053300020813181B9010E94F33E9E838D838D814E
:105340009E8126960FB6F894DEBF0FBECDBFCF91DB
:10535000DF910895DF93CF9300D000D00F92CDB7A7
:10536000DEB79A8389837C836B8389819A812B81C1
:105370003C81B9010E9446291D82992314F081E0E5
:105380008D838D810F900F900F900F900F90CF9184
:10539000DF910895DF93CF9300D000D00F92CDB767
:1053A000DEB79A8389837C836B8389819A812B8181
:1053B0003C81B9010E9446291D821816190614F075
:1053C00081E08D838D810F900F900F900F900F9043
:1053D000CF91DF910895DF93CF9300D000D00F924B
:1053E000CDB7DEB79A8389837C836B8389819A8169
:1053F0002B813C81B9010E9446291D82181619068D
:1054000014F481E08D838D810F900F900F900F9099
:105410000F90CF91DF910895DF93CF9300D000D00C
:105420000F92CDB7DEB79A8389837C836B838981A2
:105430009A812B813C81B9010E9446291D829923C2
:1054400014F481E08D838D810F900F900F900F9059
:105450000F90CF91DF910895DF93CF9300D000D0CC
:105460000F92CDB7DEB79A8389837C836B83E98102
:10547000FA8124813581EB81FC8184819581281713
:10548000390761F489819A812B813C81B9010E949D
:105490004629009719F481E08D8301C01D828D811A
:1054A0000F900F900F900F900F90CF91DF91089574
:1054B000DF93CF93CDB7DEB727970FB6F894DEBF53
:1054C0000FBECDBF9A8389837C836B835E834D83BC
:1054D000E981FA8124813581EB81FC818481958188
:1054E000281B390B8D819E812817390760F0E981CF
:1054F000FA8180819181009731F0EB81FC8180817C
:105500009181009711F41F8219C0E981FA812081ED
:1055100031818D819E81820F931FEB81FC814081BF
:105520005181EB81FC8124813581BA01A9010E945E
:105530000C3F1F82009711F481E08F838F812796A3
:105540000FB6F894DEBF0FBECDBFCF91DF910895A7
:10555000DF93CF9300D000D00F92CDB7DEB79A8300
:1055600089837C836B83E981FA8124813581EB8196
:10557000FC81848195812817390710F41D820AC0A7
:1055800089819A812B813C81B90140E050E00E94E1
:10559000582A8D838D810F900F900F900F900F9050
:1055A000CF91DF910895DF93CF93CDB7DEB72797E3
:1055B0000FB6F894DEBF0FBECDBF9C838B837E8376
:1055C0006D83EB81FC81408151818D819E819C01A5
:1055D0002F5F3F4FCA01B9010E94BD3D9A83898365
:1055E00089819A81009779F0EB81FC8189819A8188
:1055F00091838083EB81FC818D819E819383828363
:1056000081E08F8301C01F828F8127960FB6F894A7
:10561000DEBF0FBECDBFCF91DF910895DF93CF9353
:10562000CDB7DEB769970FB6F894DEBF0FBECDBF1A
:10563000988B8F877A8B698B5C8B4B8BEF85F88986
:1056400084819581009709F495C1E989FA8984815B
:105650009581009709F48EC1EB89FC8924813581FD
:10566000E989FA8984819581A901481B590BCA01EE
:105670009E878D87EF85F889808191819C878B87B4
:105680008D859E85009779F518C0EB89FC8940814E
:105690005181EB89FC892481358189859A85BA01FC
:1056A000A9010E94C63EEB89FC8924813581898548
:1056B0009A85820F931F9C878B87E989FA892081BD
:1056C00031818B859C85B9010E94343F9A878987F7
:1056D000198E89859A85009711F051E0598F898D2F
:1056E000882399F647C18D859E8599230CF06EC05D
:1056F000EF85F8898081918198878F8349C02985BA
:105700003A858B859C85F901E81BF90BCF019E83B7
:105710008D838F8198852B853C854D815E81B90174
:105720000E94C63E2F8138858D819E81820F931FF6
:1057300098878F83EB89FC8940815181EB89FC89B3
:10574000248135818F819885BA01A9010E94C63EC6
:10575000EB89FC89248135818F819885820F931F85
:1057600098878F83E989FA892481358189859A858B
:10577000820F931F9C878B87EF85F8892481358161
:105780008D859E85820F931FEF85F889958384838D
:10579000E989FA89208131818B859C85B9010E9434
:1057A000343F9A878987188E89859A85009711F0EA
:1057B000F1E0F88F488D442309F0A1CF8F819885BF
:1057C0002B853C85B9010E94FC3ED4C0EF85F88949
:1057D000848195819C838B8312C0E989FA89248115
:1057E000358189859A85820F931F9C878B872D85AC
:1057F0003E858B819C81820F931F9C838B83E989DB
:10580000FA89208131818B859C85B9010E94343FC2
:105810009A8789871F8A89859A85009711F051E0B8
:105820005F8B8F898823C9F6EF85F88924813581BC
:105830008B819C812817390709F49CC0EF85F88972
:10584000228133818B819C812817390760F48F85F1
:1058500098892B813C81B9010E94D32A882319F4AD
:10586000E1E0EE8B01C01E8A8E89882309F082C098
:10587000EF85F8898481958101979A8389835FC038
:10588000EF85F88940815181E989FA892481358140
:1058900089819A81820F931F840F951F9C878B8724
:1058A0002D853E858B859C85BC01620F731FEF851E
:1058B000F88944815581EF85F889808191819C0127
:1058C0008B859C85F901E81BF90BCF01480F591F07
:1058D0002B853C85CB01B9010E94CF3EEF85F8892D
:1058E000248135818D859E85820F931FEF85F889F0
:1058F00095838483EF85F88920813181EF85F8894C
:1059000084819581F901E80FF91F1082EF85F889EC
:105910002081318189819A81820F931FEB89FC89D3
:1059200040815181EB89FC8924813581BA01A9012B
:105930000E94C63E89819A8101979A8389838981D1
:105940009A81992394F049815A818F859889298970
:105950003A89B9010E943C269A83898389819A8178
:1059600099231CF0F1E0FD8B01C01D8A8D898823ED
:1059700009F086CF69960FB6F894DEBF0FBECDBF93
:10598000CF91DF910895DF93CF9300D000D000D066
:10599000CDB7DEB79A8389837C836B83E981FA81F3
:1059A00080819181009761F0E981FA8122813381C0
:1059B0008B819C812817390718F081E08D8320C0E6
:1059C00089819A812B813C81B9010E94D32A8E83DF
:1059D0008E81882311F081E08E838E81882379F077
:1059E000E981FA8184819581009731F4E981FA8116
:1059F0000190F081E02D108281E08D8301C01D8235
:105A00008D8126960FB6F894DEBF0FBECDBFCF9125
:105A1000DF910895DF93CF93CDB7DEB72A970FB606
:105A2000F894DEBF0FBECDBF9C838B837E836D83D6
:105A300058874F83EB81FC81248135818F81988544
:105A4000820F931F9A8389838D819E81009711F421
:105A50001A862FC08F819885009719F481E08A8774
:105A600028C08B819C8129813A81B9010E94C32C75
:105A70001986882311F481E089878985882311F0AC
:105A80001A8617C0EB81FC8120813181EB81FC817A
:105A900084819581820F931F2D813E81B9010E94DF
:105AA000FC3EEB81FC8189819A819583848381E02E
:105AB0008A878A852A960FB6F894DEBF0FBECDBFBF
:105AC000CF91DF910895DF93CF93CDB7DEB7619784
:105AD0000FB6F894DEBF0FBECDBF9D878C874E8773
:105AE0005F87688B798B8E859F85A889B989BC0172
:105AF000CD019E012F5F3F4FA9012AE030E00E94B7
:105B0000B83FCE0101960E94033FAC018C859D8574
:105B10009E012F5F3F4FB9010E940A2D61960FB67B
:105B2000F894DEBF0FBECDBFCF91DF910895DF9314
:105B3000CF93CDB7DEB762970FB6F894DEBF0FBE36
:105B4000CDBF9E878D874F87588B698B7A8B8F85CA
:105B50009889A989BA89BC01CD019E012F5F3F4F69
:105B6000A9012AE030E00E946F3FCE0101960E9419
:105B7000033FAC018D859E859E012F5F3F4FB9018C
:105B80000E940A2D62960FB6F894DEBF0FBECDBFFD
:105B9000CF91DF910895DF93CF93CDB7DEB72A97EA
:105BA0000FB6F894DEBF0FBECDBF98878F837A877C
:105BB000698789859A859E012F5F3F4FB9014AE029
:105BC00050E00E94DD3FCE0101960E94033FAC01F0
:105BD0008F8198859E012F5F3F4FB9010E940A2D4A
:105BE0002A960FB6F894DEBF0FBECDBFCF91DF91DE
:105BF0000895DF93CF93CDB7DEB72B970FB6F89408
:105C0000DEBF0FBECDBF998788877B876A878A856D
:105C10009B859E012F5F3F4FB9014AE050E00E94F3
:105C20004E3FCE0101960E94033FAC0188859985C5
:105C30009E012F5F3F4FB9010E940A2D2B960FB690
:105C4000F894DEBF0FBECDBFCF91DF910895DF93F3
:105C5000CF93CDB7DEB727970FB6F894DEBF0FBE50
:105C6000CDBF9E838D836F838F81882F90E09E01AF
:105C70002F5F3F4FB9014AE050E00E944E3FCE01F6
:105C800001960E94033FAC018D819E819E012F5F92
:105C90003F4FB9010E940A2D27960FB6F894DEBF38
:105CA0000FBECDBFCF91DF910895DF93CF9300D08A
:105CB00000D00F92CDB7DEB79C838B836D838D812F
:105CC00089831A828B819C819E012F5F3F4FB9018E
:105CD00041E050E00E940A2D0F900F900F900F901E
:105CE0000F90CF91DF910895DF93CF9300D000D034
:105CF0000F92CDB7DEB79A8389837C836B838B81C8
:105D00009C81009711F41D820DC08B819C810E94A3
:105D1000033FAC0189819A812B813C81B9010E94AA
:105D20000A2D8D838D810F900F900F900F900F9003
:105D3000CF91DF910895DF93CF9300D000D0CDB7FE
:105D4000DEB79A8389837C836B83EB81FC814081FE
:105D50005181EB81FC812481358189819A81BA014D
:105D6000A9010E940A2D0F900F900F900F90CF91D4
:105D7000DF910895DF93CF9300D0CDB7DEB79A833C
:105D80008983E981FA8180819181009731F0E981ED
:105D9000FA81808191810E94043DE981FA8111821A
:105DA0001082E981FA8115821482E981FA81848165
:105DB0009581E981FA81938382830F900F90CF912F
:105DC000DF910895DF93CF93CDB7DEB729970FB654
:105DD000F894DEBF0FBECDBF9C838B834D835E8363
:105DE0006F8378878B819C819A83898389819A814B
:105DF0002D813E814F815885BA01A9010E94632DF2
:105E00001986882311F481E089878985882321F008
:105E100089819A810E94BA2E89819A8129960FB62A
:105E2000F894DEBF0FBECDBFCF91DF910895DF9311
:105E3000CF93CDB7DEB729970FB6F894DEBF0FBE6C
:105E4000CDBF9C838B834D835E836F8378878B81EB
:105E50009C819A83898389819A812D813E814F819A
:105E60005885BA01A9010E94972D1986882311F43B
:105E700081E089878985882321F089819A810E9420
:105E8000BA2E89819A8129960FB6F894DEBF0FBE8B
:105E9000CDBFCF91DF910895DF93CF93CDB7DEB71C
:105EA00027970FB6F894DEBF0FBECDBF9C838B83C0
:105EB0007E836D838B819C819A83898389819A817A
:105EC0002D813E81B9010E94CB2D1F82882311F4C0
:105ED00081E08F838F81882321F089819A810E94BC
:105EE000BA2E89819A8127960FB6F894DEBF0FBE2D
:105EF000CDBFCF91DF910895DF93CF93CDB7DEB7BC
:105F000027970FB6F894DEBF0FBECDBF9C838B835F
:105F10007E836D838B819C819A83898389819A8119
:105F20002D813E81B9010E94F92D1F82882311F431
:105F300081E08F838F81882321F089819A810E945B
:105F4000BA2E89819A8127960FB6F894DEBF0FBECC
:105F5000CDBFCF91DF910895DF93CF9300D000D0D4
:105F600000D0CDB7DEB79C838B836D838B819C8102
:105F70009A83898389819A816D810E94272E1E824E
:105F8000882311F481E08E838E81882321F089811A
:105F90009A810E94BA2E89819A8126960FB6F8942A
:105FA000DEBF0FBECDBFCF91DF910895DF93CF93BA
:105FB00000D000D000D0CDB7DEB79C838B836D833B
:105FC0008B819C819A83898389819A816D810E94CA
:105FD000552E1E82882311F481E08E838E818823C2
:105FE00021F089819A810E94BA2E89819A81269610
:105FF0000FB6F894DEBF0FBECDBFCF91DF910895ED
:106000000F931F93DF93CF93CDB7DEB727970FB6CC
:10601000F894DEBF0FBECDBF9C838B837E836D83E0
:106020008B819C819A8389838D819E81009779F0F1
:1060300009811A818D819E810E94033FAC012D81CF
:106040003E81C801B9010E940A2D882319F481E01C
:106050008F8301C01F828F81882321F089819A81DB
:106060000E94BA2E89819A8127960FB6F894DEBFD6
:106070000FBECDBFCF91DF911F910F910895DF9398
:10608000CF93CDB7DEB727970FB6F894DEBF0FBE1C
:10609000CDBF9C838B837E836D838B819C819A8310
:1060A000898389819A81ED81FE8140815181ED81D1
:1060B000FE8124813581BA01A9010E940A2D1F8227
:1060C000882311F481E08F838F81882321F08981D7
:1060D0009A810E94BA2E89819A8127960FB6F894E8
:1060E000DEBF0FBECDBFCF91DF910895DF93CF9379
:1060F000CDB7DEB729970FB6F894DEBF0FBECDBF80
:106100009A8389837C836B835E834D8389819A81A3
:106110002D813E81B9010E94C32C1986882311F478
:1061200081E089879985992349F089819A810E9424
:10613000BA2E89819A8198878F8313C0E981FA8169
:106140008D819E8195838483E981FA81808191810B
:106150002B813C81B9010E94FC3E89819A819887FC
:106160008F838F81988529960FB6F894DEBF0FBE76
:10617000CDBFCF91DF910895DF93CF9300D000D0B2
:10618000CDB7DEB79A8389837C836B8389819A81BB
:106190000E94B2238B819C81009761F08B819C814E
:1061A0000E94033FAC0189819A812B813C81B90116
:1061B0000E9476300F900F900F900F90CF91DF914B
:1061C0000895DF93CF9300D000D0CDB7DEB79A8388
:1061D00089837C836B8389819A810E94B2238B811E
:1061E0009C81009761F08B819C810E94033FAC01F0
:1061F00089819A812B813C81B9010E9476300F9070
:106200000F900F900F90CF91DF910895DF93CF9370
:1062100000D000D0CDB7DEB79A8389837C836B83AF
:106220008B819C81009769F08B819C810E94033F48
:10623000AC0189819A812B813C81B9010E94763021
:1062400004C089819A810E94BA2E89819A810F9017
:106250000F900F900F90CF91DF910895DF93CF9320
:10626000CDB7DEB7A8970FB6F894DEBF0FBECDBF8F
:106270009BA38AA34CA35DA36EA37FA328A78AA197
:106280009BA10E94B22388A5E82FF0E08CA19DA1DC
:10629000AEA1BFA1BC01CD019E012F5F3F4FA9015F
:1062A0009F010E94B83F8AA19BA19E012F5F3F4F93
:1062B000B9010E940631A8960FB6F894DEBF0FBE52
:1062C000CDBFCF91DF910895DF93CF93CDB7DEB7E8
:1062D000A8970FB6F894DEBF0FBECDBF9BA38AA3CD
:1062E0004CA35DA36EA37FA328A78AA19BA10E94B4
:1062F000B22388A5E82FF0E08CA19DA1AEA1BFA19B
:10630000BC01CD019E012F5F3F4FA9019F010E945B
:10631000B83F8AA19BA19E012F5F3F4FB9010E9408
:106320000631A8960FB6F894DEBF0FBECDBFCF9151
:10633000DF910895DF93CF93CDB7DEB7A9970FB65E
:10634000F894DEBF0FBECDBF9CA38BA34DA35EA36D
:106350006FA378A729A78BA19CA10E94B22389A52E
:10636000E82FF0E08DA19EA1AFA1B8A5BC01CD01A1
:106370009E012F5F3F4FA9019F010E946F3F8BA19C
:106380009CA19E012F5F3F4FB9010E940631A99643
:106390000FB6F894DEBF0FBECDBFCF91DF91089549
:1063A000DF93CF93CDB7DEB7A9970FB6F894DEBFD2
:1063B0000FBECDBF9CA38BA34DA35EA36FA378A7F5
:1063C00029A78BA19CA10E94B22389A5E82FF0E008
:1063D0008DA19EA1AFA1B8A5BC01CD019E012F5FEB
:1063E0003F4FA9019F010E946F3F8BA19CA19E017D
:1063F0002F5F3F4FB9010E940631A9960FB6F8945E
:10640000DEBF0FBECDBFCF91DF910895DF93CF9355
:10641000CDB7DEB766970FB6F894DEBF0FBECDBF1F
:106420009B8B8A8B7D8B6C8B4E8B8A899B890E9480
:10643000B2238E89482F50E08C899D899E012F5F61
:106440003F4FB9010E94DD3F8A899B899E012F5FE2
:106450003F4FB9010E94063166960FB6F894DEBF31
:106460000FBECDBFCF91DF910895DF93CF93CDB70E
:10647000DEB766970FB6F894DEBF0FBECDBF9B8B1D
:106480008A8B7D8B6C8B4E8B8A899B890E94B22371
:106490008E89482F50E08C899D899E012F5F3F4F48
:1064A000B9010E94DD3F8A899B899E012F5F3F4F82
:1064B000B9010E94063166960FB6F894DEBF0FBE92
:1064C000CDBFCF91DF910895DF93CF93CDB7DEB7E6
:1064D00067970FB6F894DEBF0FBECDBF9C8B8B8B3A
:1064E0007E8B6D8B4F8B8B899C890E94B2238F8909
:1064F000482F50E08D899E899E012F5F3F4FB90143
:106500000E944E3F8B899C899E012F5F3F4FB901AE
:106510000E94063167960FB6F894DEBF0FBECDBF5E
:10652000CF91DF910895DF93CF93CDB7DEB7679713
:106530000FB6F894DEBF0FBECDBF9C8B8B8B7E8BCE
:106540006D8B4F8B8B899C890E94B2238F89482F3A
:1065500050E08D899E899E012F5F3F4FB9010E94B7
:106560004E3F8B899C899E012F5F3F4FB9010E944E
:10657000063167960FB6F894DEBF0FBECDBFCF9140
:10658000DF910895DF93CF93CDB7DEB72D970FB688
:10659000F894DEBF0FBECDBF9B878A876C874D877F
:1065A0008A859B850E94B2238C85282F30E08D85BB
:1065B000482F50E0C9019E012F5F3F4FB9010E9453
:1065C000DD3F8A859B859E012F5F3F4FB9010E9469
:1065D00006312D960FB6F894DEBF0FBECDBFCF911A
:1065E000DF910895DF93CF93CDB7DEB72D970FB628
:1065F000F894DEBF0FBECDBF9B878A876C874D871F
:106600008A859B850E94B2238C85282F30E08D855A
:10661000482F50E0C9019E012F5F3F4FB9010E94F2
:10662000DD3F8A859B859E012F5F3F4FB9010E9408
:1066300006312D960FB6F894DEBF0FBECDBFCF91B9
:10664000DF910895DF93CF9300D000D00F92CDB7A4
:10665000DEB79C838B836D838B819C810E94B223E8
:106660008D8189831A828B819C819E012F5F3F4F90
:10667000B9010E9406310F900F900F900F900F906C
:10668000CF91DF910895DF93CF9300D000D00F9288
:10669000CDB7DEB79C838B836D838B819C810E94F9
:1066A000B2238D8189831A828B819C819E012F5F09
:1066B0003F4FB9010E9406310F900F900F900F903D
:1066C0000F90CF91DF910895DF93CF93CDB7DEB7D1
:1066D00062970FB6F894DEBF0FBECDBF9A8B898B41
:1066E0007C876B875E874D87388B2F872D853E850E
:1066F0008F8598898217930760F48F8598899A838C
:1067000089838D859E85988B8F8789819A819E87C5
:106710008D8789899A892FE931E0B9010E94BC30BF
:10672000EB85FC85248135818D859E852817390769
:10673000E8F1EB85FC85248135818F8598892817C0
:10674000390730F4EB85FC8584819581988B8F87A0
:10675000EB85FC85208131818F859889F901E80FCF
:10676000F91F80818B83EB85FC85208131818F85AA
:106770009889F901E80FF91F108249895A89EB8538
:10678000FC85208131818D859E85280F391FCA01A6
:10679000B9010E940631EB85FC85208131818F850E
:1067A0009889F901E80FF91F8B81808389899A897B
:1067B00089899A8962960FB6F894DEBF0FBECDBF65
:1067C000CF91DF9108950F931F93DF93CF9300D064
:1067D00000D0CDB7DEB78C017A8369835C834B83AD
:1067E000C801E981FA810480F581E02D29813A818F
:1067F0004B815C81B9019F010E946433C801C801CB
:106800000F900F900F900F90CF91DF911F910F91EC
:106810000895DF93CF9300D000D000D0CDB7DEB77E
:106820009A8389837C836B8329813A818B819C81C4
:106830002817390729F489819A819E838D831DC089
:10684000EB81FC8180819181009779F0EB81FC8163
:1068500040815181EB81FC812481358189819A813C
:10686000BA01A9010E94763004C089819A810E94F0
:10687000BA2E89819A819E838D838D819E812696F1
:106880000FB6F894DEBF0FBECDBFCF91DF91089554
:10689000DF93CF9300D000D0CDB7DEB79A83898342
:1068A0007C836B8389819A810E94B22389819A813A
:1068B0002B813C81B9010E9409340F900F900F90F9
:1068C0000F90CF91DF910895DF93CF9300D000D048
:1068D000CDB7DEB79A8389837C836B8389819A8164
:1068E0000E94B22389819A812B813C81B9010E9447
:1068F00009340F900F900F900F90CF91DF91089572
:10690000DF93CF9300D0CDB7DEB79A838983E98137
:10691000FA81808191810E94043D0F900F90CF9168
:10692000DF910895DF93CF9300D0CDB7DEB79A8380
:106930008983E981FA81808191810E94043D0F90D1
:106940000F90CF91DF910895DF93CF93CDB7DEB74E
:106950008091AF019091B00161E00E946D1ECF91D6
:10696000DF910895DF93CF93CDB7DEB78091AF016C
:106970009091B00161E00E94831F68EE73E080E0B7
:1069800090E00E947E1C8091AF019091B00160E088
:106990000E94831F68EE73E080E090E00E947E1CFE
:1069A000CF91DF910895EF92FF920F931F937B0198
:1069B0008C0120E030E040E05FE40E947F388823D3
:1069C0008CF0C801B70120E030E040E05FE40E94B5
:1069D0004B360E9498399B01AC012050304040401A
:1069E000504806C0C801B7010E9498399B01AC010C
:1069F000B901CA011F910F91FF90EF900895A0E097
:106A0000B0E0E5E0F5E30C945F40DC012B01FA0116
:106A10009C91923008F439C1EB018881823008F4EE
:106A200033C1943069F4843009F02FC111969C91E0
:106A300011978981981709F428C1A1EBB1E025C10C
:106A4000843009F421C18230A9F4923009F01DC1CB
:106A50009A01AD0188E0EA010990AE01E9010992CD
:106A60009E018150C1F7E201898111969C91892391
:106A7000818308C1923009F407C112962D903C9091
:106A80001397EB018A819B811496AD90BD90CD90B8
:106A9000DC901797EC80FD800E811F819101281BEF
:106AA000390BB90137FF04C066277727621B730BC8
:106AB000603271050CF061C0121613066CF53701D7
:106AC0004801062E04C096948794779467940A949C
:106AD000D2F721E030E040E050E004C0220F331F45
:106AE000441F551F6A95D2F7215030404040504016
:106AF0002E213F2140235123211531054105510508
:106B000021F021E030E040E050E079018A01E62800
:106B1000F728082919293CC0232BD1F1260E371E4E
:106B200035014601062E04C09694879477946794A5
:106B30000A94D2F721E030E040E050E004C0220F98
:106B4000331F441F551F6A95D2F7215030404040F3
:106B500050402A213B214C215D2121153105410561
:106B6000510521F021E030E040E050E059016A0198
:106B7000A628B728C828D9280BC0821593052CF061
:106B80001C01AA24BB24650103C0EE24FF24870155
:106B900011969C91D20111968C91981709F445C0D9
:106BA000992339F0A80197012A193B094C095D097D
:106BB00006C0A60195012E193F09400B510B57FD48
:106BC00008C011823382228224833583468357830F
:106BD0001DC081E081833382228288279927DC01CE
:106BE000821B930BA40BB50B84839583A683B78379
:106BF0000DC0220F331F441F551F24833583468346
:106C00005783828193810197938382832481358185
:106C100046815781DA01C9010197A109B1098F5F46
:106C20009F4FAF4FBF4328F30BC091833382228223
:106C3000EA0CFB1C0C1D1D1DE482F58206831783E4
:106C400083E08083248135814681578157FF1AC0B4
:106C5000C901AA2797FDA095BA2F81709070A070E6
:106C6000B0705695479537952795822B932BA42B7B
:106C7000B52B84839583A683B78382819381019604
:106C800093838283DF0101C0D201CD01CDB7DEB78E
:106C9000E2E10C947B40A0E2B0E0E1E5F6E30C9485
:106CA0006B4069837A838B839C832D833E834F83E0
:106CB0005887E9E0EE2EF12CEC0EFD1ECE01019678
:106CC000B7010E94893B8E010F5E1F4FCE010596D2
:106CD000B8010E94893B8A8991E089278A8BC70184
:106CE000B801AE01475E5F4F0E94FF340E94B43A84
:106CF000A096E6E00C948740A0E2B0E0E2E8F6E37C
:106D00000C946B4069837A838B839C832D833E83B1
:106D10004F835887F9E0EF2EF12CEC0EFD1ECE01CB
:106D20000196B7010E94893B8E010F5E1F4FCE0175
:106D30000596B8010E94893BC701B801AE01475EC4
:106D40005F4F0E94FF340E94B43AA096E6E00C9494
:106D50008740A0E2B0E0EFEAF6E30C945F4069837D
:106D60007A838B839C832D833E834F835887CE0108
:106D70000196BE01675F7F4F0E94893BCE01059659
:106D8000BE016F5E7F4F0E94893B9985923088F0EB
:106D900089898230C8F0943019F4823051F404C0EB
:106DA000843029F4923081F481EB91E0C6C09230B6
:106DB00049F420E09A858A89981321E02A87CE0138
:106DC0000996BBC0823049F420E09A858A899813DD
:106DD00021E02A8BCE014196B0C02D843E844F84A1
:106DE00058886D887E888F88988CEE24FF248701D0
:106DF000AA24BB24650140E050E060E070E0E0E0E0
:106E0000F0E0C10181709070892BE9F0E60CF71C6D
:106E1000081D191D9A01AB012A0D3B1D4C1D5D1D5E
:106E200080E090E0A0E0B0E0E614F7040805190562
:106E300020F481E090E0A0E0B0E0BA01A901480FA1
:106E4000591F6A1F7B1FAA0CBB1CCC1CDD1C97FEA4
:106E500008C081E090E0A0E0B0E0A82AB92ACA2AE0
:106E6000DB2A3196E032F10549F0660C771C881C6C
:106E7000991C5694479437942794C3CFFA85EA898E
:106E80002B893C898B859C85280F391F2E5F3F4FAE
:106E900017C0CA0181709070892B61F01695079513
:106EA000F794E79480E090E0A0E0B0E8E82AF92ABF
:106EB0000A2B1B2B76956795579547952F5F3F4F6C
:106EC00077FDE7CF0CC0440F551F661F771F17FDD6
:106ED0004160EE0CFF1C001F111F2150304040305C
:106EE00090E0590790E0690790E4790760F32B8FF1
:106EF0003C8FDB01CA018F779070A070B070803436
:106F00009105A105B10561F447FD0AC0E114F10442
:106F10000105110529F0405C5F4F6F4F7F4F4078AE
:106F20001A8EFE1711F081E08A8F4D8F5E8F6F8F62
:106F300078A383E0898FCE0149960E94B43AA09647
:106F4000E2E10C947B40A8E1B0E0E9EAF7E30C94BD
:106F5000674069837A838B839C832D833E834F8331
:106F60005887B9E0EB2EF12CEC0EFD1ECE010196F8
:106F7000B7010E94893B8E010F5E1F4FCE0105961F
:106F8000B8010E94893B2985223008F47EC03989E6
:106F9000323010F4B8017CC08A859A8989278A87A3
:106FA000243011F0223031F4231709F06EC061EB68
:106FB00071E06EC0343039F41D861E861F86188A33
:106FC0001C861B8604C0323021F484E08987B70117
:106FD0005FC02B853C858B899C89281B390B3C879E
:106FE0002B87ED84FE840F851889AD88BE88CF88F5
:106FF000D88CEA14FB040C051D0540F4EE0CFF1CB4
:10700000001F111F215030403C872B8720E030E0CB
:1070100040E050E080E090E0A0E0B0E460E070E0AC
:10702000EA14FB040C051D0540F0282B392B4A2BD4
:107030005B2BEA18FB080C091D09B695A7959795D7
:107040008795EE0CFF1C001F111F6F5F7F4F6F3184
:10705000710531F7DA01C9018F779070A070B070B7
:1070600080349105A105B10561F427FD0AC0E11442
:10707000F1040105110529F0205C3F4F4F4F5F4F90
:1070800020782D873E874F87588BBE01675F7F4FE3
:10709000CB010E94B43A6896EAE00C948340A8E1E0
:1070A000B0E0E5E5F8E30C946B4069837A838B8369
:1070B0009C832D833E834F83588789E0E82EF12CF3
:1070C000EC0EFD1ECE010196B7010E94893B8E0198
:1070D0000F5E1F4FCE010596B8010E94893B89853E
:1070E000823040F08989823028F0C701B8010E94BF
:1070F000013C01C08FEF6896E6E00C948740A8E160
:10710000B0E0E5E8F8E30C946B4069837A838B8305
:107110009C832D833E834F83588789E0E82EF12C92
:10712000EC0EFD1ECE010196B7010E94893B8E0137
:107130000F5E1F4FCE010596B8010E94893B8985DD
:10714000823040F08989823028F0C701B8010E945E
:10715000013C01C08FEF6896E6E00C948740A8E1FF
:10716000B0E0E5EBF8E30C946B4069837A838B83A2
:107170009C832D833E834F83588789E0E82EF12C32
:10718000EC0EFD1ECE010196B7010E94893B8E01D7
:107190000F5E1F4FCE010596B8010E94893B89857D
:1071A000823040F08989823028F0C701B8010E94FE
:1071B000013C01C081E06896E6E00C948740A8E1BC
:1071C000B0E0E5EEF8E30C946B4069837A838B833F
:1071D0009C832D833E834F83588789E0E82EF12CD2
:1071E000EC0EFD1ECE010196B7010E94893B8E0177
:1071F0000F5E1F4FCE010596B8010E94893B89851D
:10720000823040F08989823028F0C701B8010E949D
:10721000013C01C081E06896E6E00C948740A8E15B
:10722000B0E0E5E1F9E30C946F4069837A838B83E6
:107230009C832D833E834F835887CE010196BE01E8
:10724000675F7F4F0E94893BCE010596BE016F5E4E
:107250007F4F0E94893B8985823028F020E030E012
:107260008989823010F421E030E0822F6896E2E0D4
:107270000C948B40A8E0B0E0E0E4F9E30C946840A3
:107280009B01AC0183E08983DA01C9018827B7FD3E
:1072900083959927AA27BB27B82E211531054105CB
:1072A000510519F482E089833AC08823A9F020307F
:1072B00080E0380780E0480780E8580729F460E05C
:1072C00070E080E09FEC30C0EE24FF248701E21ADA
:1072D000F30A040B150B02C079018A018EE1C82E56
:1072E000D12CDC82CB82ED82FE820F831887C8010D
:1072F000B7010E94653A01971816190684F4082E02
:1073000004C0EE0CFF1C001F111F0A94D2F7ED827F
:10731000FE820F831887C81AD90ADC82CB82BA8210
:10732000CE0101960E94B43A2896E9E00C9484407C
:10733000ACE0B0E0EEE9F9E30C946F4069837A8346
:107340008B839C83CE010196BE016B5F7F4F0E94B1
:10735000893B8D81823061F1823050F1843021F49B
:107360008E81882351F12EC02F81388537FD20C0B2
:107370006E812F3131051CF06623F9F023C08EE1B8
:1073800090E0821B930B29853A854B855C8504C070
:1073900056954795379527958A95D2F76623B1F08C
:1073A00050954095309521953F4F4F4F5F4F0EC000
:1073B00020E030E040E050E009C02FEF3FEF4FEF1A
:1073C0005FE704C020E030E040E050E8B901CA01C6
:1073D0002C96E2E00C948B40A8E0B0E0E2EFF9E3F9
:1073E0000C9467407B018C01611571058105910545
:1073F00019F482E0898360C083E089838EE1C82E1E
:10740000D12CDC82CB82ED82FE820F831887C801EB
:10741000B7010E94653AFC013197F7FF3BC0222774
:1074200033272E1B3F0B57016801022E04C0D69450
:10743000C794B794A7940A94D2F740E050E060E074
:1074400070E081E090E0A0E0B0E004C0880F991FF8
:10745000AA1FBB1F2A95D2F70197A109B1098E2156
:107460009F21A023B1230097A105B10521F041E0A0
:1074700050E060E070E04A295B296C297D294D834A
:107480005E836F8378878EE190E08E1B9F0B9C83D9
:107490008B8312C0309781F00E2E04C0EE0CFF1CBF
:1074A000001F111F0A94D2F7ED82FE820F83188706
:1074B000CE1ADF0ADC82CB821A82CE0101960E94AC
:1074C000B43A2896EAE00C948340EF92FF920F932F
:1074D0001F937B018C0180E0E81680E0F80681E0D4
:1074E000080780E0180788F48FEFE816F10401051B
:1074F000110531F028F088E090E0A0E0B0E017C07E
:1075000080E090E0A0E0B0E012C080E0E81680E00B
:10751000F80680E0080781E0180728F088E190E08D
:10752000A0E0B0E004C080E190E0A0E0B0E020E2A4
:1075300030E040E050E0281B390B4A0B5B0B04C0E5
:1075400016950795F794E7948A95D2F7F701E754D3
:10755000FE4F8081281B310941095109C9011F9142
:107560000F91FF90EF900895DF92EF92FF920F93AB
:107570001F93FC01E480F58006811781D180808112
:10758000823048F480E090E0A0E1B0E0E82AF92AF7
:107590000A2B1B2BA5C0843009F49FC0823021F434
:1075A000EE24FF24870105C0E114F1040105110553
:1075B00019F4E0E0F0E096C0628173819FEF6238D9
:1075C00079070CF05BC022E83FEF261B370B2A310E
:1075D00031052CF020E030E040E050E02AC0B80156
:1075E000A701022E04C076956795579547950A9492
:1075F000D2F781E090E0A0E0B0E004C0880F991FCE
:10760000AA1FBB1F2A95D2F70197A109B1098E21A4
:107610009F21A023B1230097A105B10521F081E0AE
:1076200090E0A0E0B0E09A01AB01282B392B4A2B67
:107630005B2BDA01C9018F779070A070B070803435
:107640009105A105B10539F427FF09C0205C3F4F22
:107650004F4F5F4F04C0215C3F4F4F4F5F4FE0E003
:10766000F0E02030A0E03A07A0E04A07A0E45A0783
:1076700010F0E1E0F0E079018A0127C0603871057F
:1076800064F5FB01E158FF4FD801C7018F77907077
:10769000A070B07080349105A105B10539F4E7FE02
:1076A0000DC080E490E0A0E0B0E004C08FE390E083
:1076B000A0E0B0E0E80EF91E0A1F1B1F17FF05C06F
:1076C00016950795F794E794319687E016950795F8
:1076D000F794E7948A95D1F705C0EE24FF2487013B
:1076E000EFEFF0E06E2F679566276795902F9F77F5
:1076F000D794DD24D7948E2F8695492F462B582F6B
:107700005D29B701CA011F910F91FF90EF90DF90A3
:107710000895FC01DB01408151812281622F6F7746
:1077200070E0221F2227221F9381892F880F822B2E
:10773000282F30E0991F9927991F11969C93119734
:1077400021153105A9F5411551056105710511F4A2
:1077500082E037C082E89FEF13969C938E93129736
:107760009A01AB0167E0220F331F441F551F6A9532
:10777000D1F783E08C930DC0220F331F441F551F98
:1077800012968D919C911397019713969C938E93CB
:107790001297203080E0380780E0480780E45807DF
:1077A00058F314962D933D934D935C93179708953A
:1077B0002F3F310579F4411551056105710519F423
:1077C00084E08C93089564FF03C081E08C9312C021
:1077D0001C9210C02F57304013963C932E93129753
:1077E00083E08C9387E0440F551F661F771F8A95AF
:1077F000D1F7706414964D935D936D937C931797B6
:1078000008951F93DC01FB019C91923008F447C05E
:107810008081823008F443C0943051F411961C9159
:10782000843099F58181682F70E0611B71093FC038
:10783000843021F0923031F48230B9F18181882393
:1078400089F12DC011961C9111978230F1F0818140
:107850001817D9F412962D913C9113978281938138
:107860008217930794F028173907BCF014968D916E
:107870009D910D90BC91A02D248135814681578129
:10788000281739074A075B0718F4112341F00AC08B
:1078900082179307A407B50740F4112319F061E09C
:1078A00070E005C06FEF7FEF02C060E070E0CB01D9
:1078B0001F910895CF93DF93BC018230910510F49E
:1078C00062E070E0A0919903B0919A03ED01E0E0CD
:1078D000F0E040E050E021C0888199818617970749
:1078E00069F48A819B81309719F09383828304C065
:1078F00090939A0380939903FE0134C06817790727
:1079000038F44115510519F08417950708F4AC01B6
:10791000FE018A819B819C01E9012097E9F64115CE
:107920005105A9F1CA01861B970B049708F4BA0107
:10793000E0E0F0E02AC08D919C91119784179507A3
:10794000F9F46417750781F412968D919C91139741
:10795000309719F09383828304C090939A038093A5
:107960009903FD0132964CC0CA01861B970BFD019D
:10797000E80FF91F6193719302978D939C9340C018
:10798000FD01828193819C01D9011097A1F680911C
:10799000970390919803892B41F48091BB029091B9
:1079A000BC0290939803809397034091BD0250913D
:1079B000BE024115510541F44DB75EB78091B90241
:1079C0009091BA02481B590B20919703309198036C
:1079D000CA01821B930B8617970780F0AB014E5F9D
:1079E0005F4F8417950750F0420F531F5093980331
:1079F00040939703F9016193719302C0E0E0F0E0D6
:107A0000CF01DF91CF910895CF93DF93009709F4D1
:107A100050C0EC0122971B821A82A0919903B09169
:107A20009A03109709F140E050E0AC17BD0708F148
:107A3000BB83AA83FE0121913191E20FF31FAE17A0
:107A4000BF0779F48D919C911197280F391F2E5FF4
:107A50003F4F3983288312968D919C9113979B8376
:107A60008A834115510571F4D0939A03C093990309
:107A700020C012968D919C911397AD01009711F043
:107A8000DC01D3CFFA01D383C28321913191E20F7C
:107A9000F31FCE17DF0769F488819981280F391FFA
:107AA0002E5F3F4FFA01318320838A819B8193832C
:107AB0008283DF91CF910895A0E0B0E0E2E6FDE39C
:107AC0000C946740EC01A880B980CA80DB80A114C7
:107AD000B104C104D10441F484E2A82E89EDB82E8A
:107AE0008BE5C82E87E0D82EC601B5012DE133EF16
:107AF00041E050E00E94444027EA31E440E050E099
:107B00000E9403407B018C01C601B5012DE133EFDA
:107B100041E050E00E944440CA01B9012CEE34EF2C
:107B20004FEF5FEF0E9403406E0D7F1D801F911F7E
:107B300097FF04C06150704080409048688379830B
:107B40008A839B839B01AC015F77B901CA01CDB7E2
:107B5000DEB7EAE00C9483400E945C3D08958FEB11
:107B600092E00E945C3D08956093BF027093C00252
:107B70008093C1029093C2020895A0E0B0E0E3ECCC
:107B8000FDE30C9461406C01009729F4CB010E9445
:107B90005A3C6C01C1C08EEF882E8FEF982E8C0C52
:107BA0009D1C8601060F171F0815190508F4B2C0A1
:107BB000F401A081B181A617B707B8F0A530B105CF
:107BC00008F4AAC0CD0104978617970708F4A4C04B
:107BD0001297A61BB70BF801A193B193D4016D9333
:107BE0007C93CF010E94043D97C07B01EA1AFB0AF7
:107BF000EEEFFFEFEE0EFF1E36016A0E7B1EC09108
:107C00009903D0919A0344245524AA24BB244AC042
:107C1000C615D705E1F5488159814E155F05B8F1C4
:107C2000CA0104978E159F05B0F41296A40FB51FD4
:107C3000F401B183A0832A813B814114510431F0C6
:107C4000D20113963C932E93129766C030939A03F9
:107C50002093990361C08A819B81F8019383828379
:107C6000425050404E195F095183408341145104E2
:107C700031F0D20113961C930E93129704C0109307
:107C80009A0300939903F4017183608345C088814E
:107C90009981A816B90608F45C012E018A819B819E
:107CA0009C01E901209709F0B3CF8091970390914F
:107CB000980386159705E9F4A616B706D0F4209127
:107CC000BD023091BE022115310541F42DB73EB7FA
:107CD0008091B9029091BA02281B390B0217130741
:107CE000C8F41093980300939703D4016D937C9389
:107CF00013C0CB010E945A3CEC01009759F0F401EB
:107D000040815181B6010E94C63EC6010E94043DD9
:107D10006E0102C0CC24DD24C601CDB7DEB7E0E1A0
:107D20000C947D401F93FC0199278827BC01E8949F
:107D300011911032E9F3193010F01E30C8F31B32E4
:107D400051F01D3249F4689406C00E94A33F610FB0
:107D5000711D811D911D119110531A30B0F33EF425
:107D600090958095709561957F4F8F4F9F4F1F9194
:107D70000895FB01DC0104C08D910190801921F46C
:107D800041505040C8F7881B990B0895FB01DC0156
:107D900002C001900D9241505040D8F708956817E5
:107DA000790768F4FB01DC01E40FF51FA40FB51F90
:107DB00002C002900E9241505040D8F708950C94A2
:107DC000C63EDC0101C06D9341505040E0F708957C
:107DD000FC018191861721F08823D9F7992708950E
:107DE0003197CF010895FB01DC018D91019080193D
:107DF0000110D9F3990B0895FB01DC0101900D925C
:107E00000020E1F70895FC0101900020E9F780953A
:107E100090958E0F9F1F0895FB01DC01415050404B
:107E200030F08D910190801919F40020B9F7881B6A
:107E3000990B0895FB01DC014150504048F001903E
:107E40000D920020C9F701C01D9241505040E0F74B
:107E50000895FC0181E090E00190061609F4CF013D
:107E60000020D1F701970895FB0151915523A9F006
:107E7000BF01DC014D9145174111E1F759F4CD01E6
:107E80000190002049F04D9140154111C9F3FB01CB
:107E90004111EFCF81E090E001970895FB019F0130
:107EA000E8944230C4F04532B4F44A3029F497FBE8
:107EB0001EF4909581959F4F642F77270E94B740BD
:107EC000805D8A330CF0895D8193CB010097A1F727
:107ED00016F45DE251931082C9010C94F33FFA014C
:107EE000CF93FF93EF93223044F1253234F5C22F24
:107EF000E894CA3049F497FB3EF4909580957095CC
:107F000061957F4F8F4F9F4F2C2F33274427552745
:107F1000FF93EF930E942240EF91FF91605D6A33DF
:107F20000CF0695D6193B901CA01605070408040F6
:107F3000904051F716F4CDE2C19310828F919F913A
:107F4000CF910C94F33F592F482F372F262F660FD0
:107F5000771F881F991F660F771F881F991F620F51
:107F6000731F841F951F660F771F881F991F089521
:107F7000FA01CF93FF93EF932230CCF02532BCF47B
:107F8000C22F2C2F332744275527FF93EF930E94AE
:107F90002240EF91FF91605D6A330CF0695D61935F
:107FA000B901CA01605070408040904051F7108282
:107FB0008F919F91CF910C94F33FFB019F01423031
:107FC00074F0453264F4642F77270E94B740805DD7
:107FD0008A330CF0895D8193CB010097A1F7108261
:107FE000C9010C94F33FDC01FC01672F71917723E9
:107FF000E1F7329704C07C916D9370836291AE1764
:10800000BF07C8F30895629FD001739FF001829F5C
:10801000E00DF11D649FE00DF11D929FF00D839F17
:10802000F00D749FF00D659FF00D9927729FB00DB4
:10803000E11DF91F639FB00DE11DF91FBD01CF01C7
:1080400011240895A1E21A2EAA1BBB1BFD010DC02D
:10805000AA1FBB1FEE1FFF1FA217B307E407F507F8
:1080600020F0A21BB30BE40BF50B661F771F881FD4
:10807000991F1A9469F760957095809590959B016A
:10808000AC01BD01CF01089597FB092E05260ED046
:1080900057FD04D0D7DF0AD0001C38F45095409526
:1080A000309521953F4F4F4F5F4F0895F6F79095CC
:1080B0008095709561957F4F8F4F9F4F08952F92B8
:1080C0003F924F925F926F927F928F929F92AF9268
:1080D000BF92CF92DF92EF92FF920F931F93CF93B5
:1080E000DF93CDB7DEB7CA1BDB0B0FB6F894DEBF4C
:1080F0000FBECDBF09942A88398848885F846E8472
:108100007D848C849B84AA84B984C884DF80EE80BB
:10811000FD800C811B81AA81B981CE0FD11D0FB6C4
:10812000F894DEBF0FBECDBFED010895EE0FFF1F27
:108130000590F491E02D0994911116C0803219F048
:1081400089508550D0F708959111089581548A512E
:1081500008F4805E855A08959111089581568A51D8
:1081600008F4805285580895992788270895AA1BF6
:10817000BB1B51E107C0AA1FBB1FA617B70710F012
:10818000A61BB70B881F991F5A95A9F78095909544
:0A819000BC01CD010895F894FFCF63
:10819A000000000064062D0A5405D9059105390628
:1081AA0000000000F6092D0AF609F609F609F60993
:1081BA00000000000E0800000000F6096E616E0063
:1081CA00696E66006F7666002E0000000000F609F0
:1081DA002D0A00FF0A0B0C0D12130D0E0F101112AF
:1081EA001314150A0B0C0D12130D0E0F1011121386
:1081FA0014150A0B0C0D12130D0E0F101112131475
:10820A0015010A0B0C0D12130D0E0F101112131477
:10821A00150A0B0C0D12130D0E0F10111213141553
:10822A000A0B0C0D12130D0E0F1011121314150058
:10823A000A0B0C0D12130D0E0F1011121314150D3B
:10824A000000000000000000000001020203030316
:10825A0003040404040404040405050505050505CE
:10826A0005050505050505050506060606060606AD
:10827A000606060606060606060606060606060694
:10828A00060606060606060606070707070707077D
:10829A000707070707070707070707070707070764
:1082AA000707070707070707070707070707070754
:1082BA000707070707070707070707070707070744
:1082CA00070707070707070707080808080808082D
:1082DA000808080808080808080808080808080814
:1082EA000808080808080808080808080808080804
:1082FA0008080808080808080808080808080808F4
:10830A0008080808080808080808080808080808E3
:10831A0008080808080808080808080808080808D3
:10832A0008080808080808080808080808080808C3
:10833A0008080808080808080808080808080808B3
:10834A0008080808080808080820009B030000011C
:04835A00000000001F
:00000001FF
