:100000000C9462000C948A000C948A000C94670291
:100010000C948C020C94B1020C948A000C948A000B
:100020000C948A000C948A000C948A000C948A0028
:100030000C948A000C948A000C948A000C948A0018
:100040000C94BA080C948A000C9487050C94D5057E
:100050000C948A000C948A000C948A000C948A00F8
:100060000C94BA030C948A000000000024002700BE
:100070002A0000000000250028002B0000000000DE
:1000800023002600290004040404040404040202DA
:100090000202020203030303030301020408102007
:1000A0004080010204081020010204081020000012
:1000B0000007000201000003040600000000000029
:1000C0000000410711241FBECFEFD8E0DEBFCDBF37
:1000D00011E0A0E0B1E0EAE9F5E102C005900D927F
:1000E000A631B107D9F712E0A6E1B1E001C01D9237
:1000F000A13BB107E1F710E0C4ECD0E004C02297C7
:10010000FE010E94C70AC23CD107C9F70E949707A7
:100110000C94660A0C940000BC0186E892E04AE068
:1001200050E00E947F080895CF93DF9389E00E94FA
:10013000360A892B11F581E080932C010E94020977
:1001400060932201709323018093240190932501F1
:1001500086E291E00E942D01EC0180912A019091AC
:100160002B01C817D90729F0209719F0CE010E945A
:100170008C00D0932B01C0932A010E940209209188
:1001800022013091230140912401509125012C59E5
:100190003F4F4F4F5F4F261737074807590750F417
:1001A00080912C01882331F010922C0110922B01A8
:1001B00010922A01DF91CF91089560E87AE186E0FC
:1001C00090E00E944B0586E892E040E052EC61E04E
:1001D00070E00E9410068DE061E00E94970989E0BE
:1001E00060E00E94970985E061E00E9497090E9403
:1001F0000209609316017093170180931801909380
:1002000019010E94020960931A0170931B018093E7
:100210001C0190931D010E94020960931E017093BE
:100220001F0180932001909321010E940209609395
:10023000220170932301809324019093250164E6A9
:1002400070E080E090E00E94360986E291E060E094
:1002500070E040E00E94B0010895DF92EF92FF92BB
:100260000F931F93FC0180819181892B09F06FC04E
:100270008F010E5F1F4FC80162E141E00E94DC0266
:10028000C80162E10E94F502D82EC80162E142E095
:100290000E94DC02C80162E10E94F502E82EC8015A
:1002A00062E144E00E94DC02C80162E10E94F502C2
:1002B000F82EC80162E140E00E94DC026E2D70E081
:1002C0002F2D30E0A901462B572B43FD03C021E021
:1002D00030E03FC08D2D90E0282B392B23FD03C04B
:1002E00022E030E036C0862B972B83FD03C023E04D
:1002F00030E02FC044FD03C024E030E02AC024FDDC
:1003000003C025E030E025C084FD03C026E030E0D6
:1003100020C045FD03C027E030E01BC025FD03C021
:1003200028E030E016C085FD03C029E030E011C0B0
:1003300046FD03C02AE030E00CC026FD03C02BE0E0
:1003400030E007C086FD03C02CE030E002C020E0B2
:1003500030E0C9011F910F91FF90EF90DF90089559
:100360000F931F93CF93DF938B01EC017983688305
:100370002296CE01642F0E94D602012B49F5CE01B0
:1003800060E048E70E94DC02CE0162E140E00E94AA
:10039000DC02CE016CE048E70E94DC02CE0164E0A2
:1003A00048E70E94DC02CE0166E048E70E94DC02DA
:1003B000CE0168E048E70E94DC02CE0162E10E94C3
:1003C000F502682F86E892E04AE050E00E949C081F
:1003D00080E090E0DF91CF911F910F910895BF923F
:1003E000CF92DF92EF92FF920F931F93CF93DF9301
:1003F000282F30E0C901880F991F80589F4FFC01BA
:10040000A591B4914C91F901E35DFE4F9081942741
:100410004083F901EE0FFF1FE050FF4F0190F08184
:10042000E02D8081982309F448C0B22EBB0CBB0C90
:10043000BB0CC0E0D0E051E0C52ED12CE92EFF244A
:10044000042F10E0C6010C2E02C0880F991F0A94D9
:10045000E2F7282F30E0C9018E219F21892B49F135
:100460008B2D8C0F90E0FC01EE0FFF1FE05DFE4F27
:100470000190F081E02DE130F10571F0E330F105FC
:1004800029F420233123232B39F413C0329789F424
:1004900020233123232B69F4FC01EE0FFF1FE05AC8
:1004A000FE4F80819181892B21F00190F081E02D18
:1004B00009952196C830D10529F6DF91CF911F917A
:1004C0000F91FF90EF90DF90CF90BF9008951F9213
:1004D0000F920FB60F9211242F933F934F935F9378
:1004E0006F937F938F939F93AF93BF93EF93FF93FC
:1004F00080E00E94EF01FF91EF91BF91AF919F913A
:100500008F917F916F915F914F913F912F910F90BC
:100510000FBE0F901F9018951F920F920FB60F925B
:1005200011242F933F934F935F936F937F938F93F8
:100530009F93AF93BF93EF93FF9381E00E94EF01EE
:10054000FF91EF91BF91AF919F918F917F916F91AB
:100550005F914F913F912F910F900FBE0F901F9081
:1005600018951F920F920FB60F9211242F933F935D
:100570004F935F936F937F938F939F93AF93BF93AB
:10058000EF93FF9382E00E94EF01FF91EF91BF9103
:10059000AF919F918F917F916F915F914F913F911B
:1005A0002F910F900FBE0F901F901895FC01608344
:1005B0006062618380E008950F93DF93CF9300D052
:1005C000CDB7DEB7FC0169834A838181BE016F5FCD
:1005D0007F4F42E020E001E00E94640380E00F9042
:1005E0000F90CF91DF910F910895EF92FF920F93AB
:1005F000DF93CF9300D0CDB7DEB77C016983FC01D8
:100600008181BE016F5F7F4F41E020E001E00E94E9
:100610006403F7018181BE016E5F7F4F41E021E0FD
:100620000E941B038A810F900F90CF91DF910F9151
:10063000FF90EF900895382F413210F040E042C013
:100640008091B5018823E1F791E09093B501209363
:10065000B3018FEF8093B601109291014150409306
:1006600092014F5F9093900180919001330F832B03
:10067000809390018091B401813041F41092B401D3
:10068000809190018093BB0085EC01C085EE809342
:10069000BC008091B5018130E1F380919101841714
:1006A00010F44091910120E030E00AC0FB01E20F1C
:1006B000F31FD901AD56BE4F8C9180832F5F3F4F02
:1006C0002417A0F3842F08950F931F93582F122FF0
:1006D000413210F081E045C08091B5018823E1F7F7
:1006E00082E08093B5010093B3018FEF8093B60150
:1006F0001092910140939201A3E9B1E0FB0102C085
:1007000081918D938E2F861B8417D0F310929001C8
:1007100080919001550F852B809390018091B401B9
:10072000813041F41092B401809190018093BB001C
:1007300085EC01C085EE8093BC001123A9F0809167
:10074000B501823089F4FBCF8091B601803211F47B
:1007500082E007C08091B601803311F084E001C0CF
:1007600083E01F910F9108958091B6018F3F61F74B
:1007700080E0F7CF1F920F920FB60F9211242F93A4
:100780003F934F935F936F937F938F939F93AF9319
:10079000BF93EF93FF938091B90090E0887F9070B2
:1007A0008036910509F4F2C081369105CCF5883286
:1007B000910509F47BC089329105B4F4803191052B
:1007C00009F46FC0813191053CF4009709F447C1E9
:1007D000089709F04FC165C08831910509F466C0DA
:1007E000809709F047C182C08034910509F4A4C004
:1007F0008134910544F48033910509F482C0C8978F
:1008000009F038C189C08035910509F489C088355F
:10081000910509F496C08834910509F02BC1AEC04A
:100820008839910509F413C189399105ECF48837A9
:10083000910509F4ABC0893791054CF488369105D0
:1008400009F4A4C08037910509F014C19FC088380D
:10085000910509F4FCC08039910509F49DC08038E8
:10086000910509F007C198C0803B910509F4C6C005
:10087000813B91054CF4803A910509F49FC0883A78
:10088000910509F0F7C0BAC0803C910509F4E3C0B6
:10089000883C910509F4DFC0883B910509F0EAC066
:1008A000C2C0809190018093BB00CFC09091910114
:1008B00080919201981768F490919101E92FF0E0EE
:1008C000ED56FE4F80818093BB009F5F9093910116
:1008D000BCC08091B301882309F44BC085ED80939F
:1008E000BC008091BC0084FDFCCFC2C080E280933C
:1008F000B60185ED8093BC008091BC0084FDFCCFE7
:10090000B7C080E38093B60185ED8093BC008091F1
:10091000BC0084FDFCCFACC088E38093B6019BC0D3
:10092000809191019091BB00E82FF0E0ED56FE4FD1
:1009300090838F5F809391019091910180919201BA
:1009400082C0809191019091BB00E82FF0E0ED56BC
:10095000FE4F90838F5F809391018091B301882334
:1009600041F085ED8093BC008091BC0084FDFCCFFC
:100970007FC081E08093B40184EA6EC085ED8093EE
:10098000BC008091BC0084FDFCCF72C083E08093EA
:10099000B5011092B70159C08091B701803208F0BB
:1009A00056C08091B7019091BB00E82FF0E0E85469
:1009B000FE4F90838F5F8093B70147C08091B7014E
:1009C000803230F4E091B701F0E0E854FE4F10823D
:1009D00085ED8093BC008091BC0084FDFCCF10921B
:1009E000B5016091B701E091D801F091D90188EB90
:1009F00091E070E009951092B7012DC084E08093DA
:100A0000B5011092DA011092DB01E091DC01F09166
:100A1000DD0109958091DB01882329F481E0809331
:100A2000DB011092DE019091DA01E92FF0E0E25251
:100A3000FE4F80818093BB009F5F9093DA0190917D
:100A4000DA018091DB01981710F485EC01C085E88C
:100A50008093BC000FC085EC8093BC0009C010924D
:100A6000B60185ED8093BC008091BC0084FDFCCF75
:100A70001092B501FF91EF91BF91AF919F918F912E
:100A80007F916F915F914F913F912F910F900FBE8A
:100A90000F901F901895EF92FF920F931F937B0179
:100AA0008C011092B50181E08093B3011092B401E2
:100AB00082E161E00E94030A83E161E00E94030A8F
:100AC000E9EBF0E080818E7F808380818D7F808361
:100AD00060E074E284EF90E0A80197010E94AA0A06
:100AE0002051304040405040CA01B90122E030E07E
:100AF00040E050E00E94AA0A2093B80085E4809369
:100B0000BC001F910F91FF90EF90089508951F92E0
:100B10000F920FB60F9211242F933F934F938F9301
:100B20009F93EF93FF938091C00082FD1DC0409181
:100B3000C60020913E0230913F022F5F3F4F2F733E
:100B4000307080914002909141022817390771F06E
:100B5000E0913E02F0913F02E250FE4F408330931D
:100B60003F0220933E0202C08091C600FF91EF91A8
:100B70009F918F914F913F912F910F900FBE0F90AA
:100B80001F901895E0919202F0919302E05CFF4F64
:100B90008191919120813181821B930B8F73907091
:100BA000892B11F00E94860508951F920F920FB6AF
:100BB0000F9211242F933F938F939F93EF93FF9363
:100BC000209182023091830280918402909185026B
:100BD0002817390731F48091C1008F7D8093C100BF
:100BE00014C0E0918402F0918502EE5BFD4F2081FC
:100BF000809184029091850201968F7390709093FA
:100C00008502809384022093C600FF91EF919F910B
:100C10008F913F912F910F900FBE0F901F901895BD
:100C2000AF92BF92DF92EF92FF920F931F93CF93F9
:100C3000DF93EC017A018B01DD24403081EE58070F
:100C400080E0680780E0780711F0DD24D39491E01C
:100C5000A92EB12CEC89FD89DD2069F0C50108A021
:100C600002C0880F991F0A94E2F7808360E079E060
:100C70008DE390E005C0108260E874E88EE190E0BA
:100C8000A80197010E94880A2150304040405040FE
:100C9000569547953795279580E12030380720F005
:100CA000DD2011F0DD24D6CFE889F9893083EA8987
:100CB000FB89208319A2EE89FF89408121E030E081
:100CC000C9010C8C02C0880F991F0A94E2F7482BC7
:100CD0004083EE89FF894081C9010D8C02C0880FD5
:100CE000991F0A94E2F7482B4083EE89FF894081DF
:100CF000C9010E8C02C0880F991F0A94E2F7482B95
:100D00004083EE89FF8980810F8C02C0220F331F40
:100D10000A94E2F7209528232083DF91CF911F9139
:100D20000F91FF90EF90DF90BF90AF900895DC019E
:100D30001C96ED91FC911D97E05CFF4F2191319144
:100D400080819181281B390B2F733070C901089560
:100D5000DC011C96ED91FC911D97E05CFF4F20811A
:100D60003181E054F040DF01AE5BBF4F8D919C912B
:100D700011972817390719F42FEF3FEF07C08D910E
:100D80009C91E80FF91F8081282F30E0C901089558
:100D9000DC011C96ED91FC911D97E05CFF4F2081DA
:100DA0003181E054F040DF01AE5BBF4F8D919C91EB
:100DB00011972817390719F42FEF3FEF10C08D91C5
:100DC0009C911197E80FF91F20818D919C911197AB
:100DD00001968F73907011969C938E9330E0C901A9
:100DE0000895DC0191968C919197882339F054965F
:100DF000ED91FC915597808186FFF9CF91961C92D9
:100E00000895CF93DF93EC01EE85FF85E05CFF4F03
:100E100020813181E054F0402F5F3F4F2F733070BD
:100E2000DF01AE5BBF4F8D919C9111972817390759
:100E3000D1F3E05CFF4F80819181E054F040E80FF6
:100E4000F91F6083EE85FF85E05CFF4F31832083CF
:100E5000EE89FF89208181E090E00F8C02C0880F2D
:100E6000991F0A94E2F7282B208381E089A3EC895B
:100E7000FD8980818064808381E090E0DF91CF9163
:100E80000895109289021092880288EE93E0A0E003
:100E9000B0E080938A0290938B02A0938C02B0936F
:100EA0008D028AE091E090938702809386028EEF14
:100EB00091E0909393028093920282E492E0909367
:100EC00095028093940285EC90E090939702809332
:100ED000960284EC90E0909399028093980280ECC3
:100EE00090E090939B0280939A0281EC90E0909323
:100EF0009D0280939C0282EC90E090939F028093ED
:100F00009E0286EC90E09093A1028093A00284E080
:100F10008093A20283E08093A30287E08093A402DF
:100F200085E08093A50281E08093A6020895CF9387
:100F3000DF930E945C090E94DD00C2ECD5E00E94B4
:100F400094002097E1F30E94C205F9CFCF92DF927F
:100F5000EF92FF920F931F93CF93DF937C016B016E
:100F60008A01C0E0D0E00FC0D6016D916D01D701BC
:100F7000ED91FC910190F081E02DC7010995C80F1A
:100F8000D91F015010400115110571F7CE01DF91F5
:100F9000CF911F910F91FF90EF90DF90CF90089528
:100FA000EF92FF920F931F938C01DC01ED91FC9166
:100FB0000190F081E02D6DE009957C01D801ED9163
:100FC000FC910190F081E02DC8016AE009959C0137
:100FD0002E0D3F1DC9011F910F91FF90EF900895B5
:100FE000CF93DF93EC016115710519F420E030E037
:100FF0000FC0DB010D900020E9F71197A61BB70B7E
:10100000E881F9810280F381E02DAD0109959C0111
:10101000C901DF91CF9108954F925F927F928F9295
:101020009F92AF92BF92CF92DF92EF92FF920F9377
:101030001F93DF93CF93CDB7DEB7A1970FB6F89488
:10104000DEBF0FBECDBF2C01742ECB01223008F4C1
:101050002AE019A231E2C32ED12CCC0EDD1E822E45
:101060009924AA24BB24672D752FA50194010E9401
:10107000880A79018A01C801B701A50194010E947B
:10108000690A472D461B0894C108D1084A3014F458
:10109000405D01C0495CF6014083E114F1040105A3
:1010A000110521F07E2C5F2DC801DDCFC201B601F4
:1010B0000E94F007A1960FB6F894DEBF0FBECDBF19
:1010C000CF91DF911F910F91FF90EF90DF90CF9024
:1010D000BF90AF909F908F907F905F904F900895BA
:1010E000DC012115310541F4ED91FC910190F08175
:1010F000E02D642F099508950E940C080895CF9261
:10110000DF92EF92FF920F931F936C017B019A0184
:1011100000E010E0B801A7010E9470088C01C60130
:101120000E94D007080F191FC8011F910F91FF904F
:10113000EF90DF90CF900895CF92DF92EF92FF92E1
:101140000F931F936C01E62E9A01FF2400E010E03C
:10115000B801A7010E9470088C01C6010E94D00747
:10116000080F191FC8011F910F91FF90EF90DF909A
:10117000CF9008951F920F920FB60F9211242F93C4
:101180003F938F939F93AF93BF938091AC029091C5
:10119000AD02A091AE02B091AF023091B0020196C3
:1011A000A11DB11D232F2D5F2D3720F02D57019646
:1011B000A11DB11D2093B0028093AC029093AD02AB
:1011C000A093AE02B093AF028091A8029091A902C1
:1011D000A091AA02B091AB020196A11DB11D80930E
:1011E000A8029093A902A093AA02B093AB02BF9168
:1011F000AF919F918F913F912F910F900FBE0F90C4
:101200001F9018958FB7F8942091AC023091AD02E1
:101210004091AE025091AF028FBFB901CA0108954B
:101220009FB7F8942091A8023091A9024091AA0298
:101230005091AB0286B5A89B06C08F3F21F02F5F6F
:101240003F4F4F4F5F4F9FBF542F432F322F2227C7
:10125000280F311D411D511D82E0220F331F441FF5
:10126000551F8A95D1F7B901CA010895EF92FF92EF
:101270000F931F93CF93DF937B018C010E94100982
:10128000EB010EC00E9410096C1B7D0B685E734061
:10129000C8F30894E108F10801091109C851DC4FAD
:1012A000E114F1040105110569F7DF91CF911F9158
:1012B0000F91FF90EF900895789484B5826084BD7B
:1012C00084B5816084BD85B5826085BD85B581604A
:1012D00085BDEEE6F0E0808181608083E1E8F0E0AA
:1012E0001082808182608083808181608083E0E8D9
:1012F000F0E0808181608083E1EBF0E080818460B8
:101300008083E0EBF0E0808181608083EAE7F0E0B9
:10131000808184608083808182608083808181601D
:1013200080838081806880831092C1000895CF936C
:10133000DF93482F50E0CA0186569F4FFC0134913D
:101340004A575F4FFA018491882369F190E0880F32
:10135000991FFC01E859FF4FA591B491FC01EE588B
:10136000FF4FC591D491662351F42FB7F8948C9117
:10137000932F909589238C93888189230BC06230A9
:1013800061F42FB7F8948C91932F909589238C93C7
:101390008881832B88832FBF06C09FB7F8948C91D8
:1013A000832B8C939FBFDF91CF910895833071F091
:1013B000843028F48130A1F0823021F514C08630C9
:1013C000B1F08730D1F08430E9F404C0809180001E
:1013D0008F7703C0809180008F7D80938000089577
:1013E00084B58F7702C084B58F7D84BD08958091C8
:1013F000B0008F778093B00008958091B0008F7D0A
:101400008093B0000895FF920F931F93F62E482FFC
:1014100050E0CA0182559F4FFC012491CA018656B3
:101420009F4FFC0114914A575F4FFA01049100232A
:10143000C9F0222319F0822F0E94D609E02FF0E094
:10144000EE0FFF1FEE58FF4FA591B4919FB7F89490
:10145000FF2021F48C911095812302C08C91812B67
:101460008C939FBF1F910F91FF9008950F931F932F
:10147000482F50E0CA0182559F4FFC012491CA01B8
:1014800086569F4FFC0104914A575F4FFA01149111
:10149000112319F420E030E015C0222319F0822F27
:1014A0000E94D609812F90E0880F991F84589F4F82
:1014B000FC01A591B4918C9120E030E0802311F0E3
:1014C00021E030E0C9011F910F910895F8940C9428
:1014D000CB0A629FD001739FF001829FE00DF11D46
:1014E000649FE00DF11D929FF00D839FF00D749F9E
:1014F000F00D659FF00D9927729FB00DE11DF91F4A
:10150000639FB00DE11DF91FBD01CF0111240895A6
:10151000A1E21A2EAA1BBB1BFD010DC0AA1FBB1FF7
:10152000EE1FFF1FA217B307E407F50720F0A21B69
:10153000B30BE40BF50B661F771F881F991F1A94D6
:1015400069F760957095809590959B01AC01BD0100
:10155000CF01089597FB092E05260ED057FD04D024
:10156000D7DF0AD0001C38F450954095309521956E
:101570003F4F4F4F5F4F0895F6F7909580957095C8
:1015800061957F4F8F4F9F4F0895EE0FFF1F05907E
:0A159000F491E02D0994F894FFCFC8
:10159A006B006C006D00000000000107A6079706AB
:0615AA00C806A806F106C8
:00000001FF
