:100000000C9461000C9473000C9473000C947300B6
:100010000C9473000C9473000C9473000C94730094
:100020000C9473000C9473000C9473000C94730084
:100030000C9473000C9473000C9473000C94730074
:100040000C9410050C9473000C9473000C947300C2
:100050000C9473000C9473000C9473000C94730054
:100060000C9401030C94730000000000240027008E
:100070002A0000000000250028002B0000000000DE
:1000800023002600290004040404040404040202DA
:100090000202020203030303030301020408102007
:1000A0004080010204081020010204081020000012
:1000B0000007000201000003040600000000000029
:1000C000000011241FBECFEFD8E0DEBFCDBF11E08E
:1000D000A0E0B1E001C01D92A039B107E1F70E9494
:1000E00001050C947C060C9400000F93DF93CF93D2
:1000F00000D0CDB7DEB769834A83FC018789BE0192
:100100006F5F7F4F42E020E001E00E94AB0280E0A1
:100110000F900F90CF91DF910F910895EF92FF9282
:100120000F93DF93CF9300D0CDB7DEB77C01698307
:10013000FC018789BE016F5F7F4F41E020E001E055
:100140000E94AB02F7018789BE016E5F7F4F41E0DD
:1001500021E00E9462028A810F900F90CF91DF917F
:100160000F91FF90EF900895CF92DF92EF92FF9260
:100170000F93DF93CF9300D0CDB7DEB77C01198208
:10018000FC0187896E010894C11CD11CB60141E0B5
:1001900020E000E00E94AB02F7018789B70141E04F
:1001A00021E00E94620281E08983F7018789B6011C
:1001B00041E020E00E94AB02B7016F5F7F4FF70183
:1001C000878941E021E00E94620282E08983F70191
:1001D0008789B60141E020E00E94AB02B7016E5F63
:1001E0007F4FF701878941E021E00E94620283E0AE
:1001F0008983F7018789B60141E020E00E94AB02C4
:10020000B7016D5F7F4FF701878941E021E00E94D0
:10021000620284E08983F7018789B60141E020E02A
:100220000E94AB02B7016C5F7F4FF701878941E005
:1002300021E00E94620285E08983F7018789B60187
:1002400041E020E00E94AB02B7016B5F7F4FF701F6
:10025000878941E021E00E94620286E08983F701FC
:100260008789B60141E020E00E94AB02B7016A5FD6
:100270007F4FF701878941E021E00E94620287E019
:100280008983F7018789B60141E020E00E94AB0233
:10029000B701695F7F4FF701878941E021E00E9444
:1002A000620288E08983F7018789B60141E020E096
:1002B0000E94AB02B701685F7F4FF701878941E079
:1002C00021E00E94620289E08983F7018789B601F3
:1002D00041E020E00E94AB02B701675F7F4FF7016A
:1002E000878941E021E00E9462028AE08983F70168
:1002F0008789B60141E020E00E94AB02B701665F4A
:100300007F4FF701878941E021E00E9462028BE084
:100310008983F7018789B60141E020E00E94AB02A2
:10032000B701655F7F4FF701878941E021E00E94B7
:1003300062028CE08983F7018789B60141E020E001
:100340000E94AB02B701645F7F4FF701878941E0EC
:1003500021E00E9462028DE08983F7018789B6015E
:1003600041E020E00E94AB02B701635F7F4FF701DD
:10037000878941E021E00E9462028EE08983F701D3
:100380008789B60141E020E00E94AB02B701625FBD
:100390007F4FF701878941E021E00E9462028FE0F0
:1003A0008983F7018789B60141E020E00E94AB0212
:1003B000B701615F7F4FF701878941E021E00E942B
:1003C000620280E18983F7018789B60141E020E07C
:1003D0000E94AB02B701605F7F4FF701878941E060
:1003E00021E00E94620281E18983F7018789B601D9
:1003F00041E020E00E94AB02B7016F5E7F4FF70142
:10040000878941E021E00E94620282E18983F7014D
:100410008789B60141E020E00E94AB02B7016E5E21
:100420007F4FF701878941E021E00E94620283E16A
:100430008983F7018789B60141E020E00E94AB0281
:10044000B7016D5E7F4FF701878941E021E00E948F
:10045000620284E18983F7018789B60141E020E0E7
:100460000E94AB02B7016C5E7F4FF701878941E0C4
:1004700021E00E94620285E18983F7018789B60144
:1004800041E020E00E94AB02F701878925E130E0DE
:10049000E20EF31EB70141E021E00E94620280E01B
:1004A0000F900F90CF91DF910F91FF90EF90DF9021
:1004B000CF900895FC01668B6062678B0E94B40048
:1004C00080E00895382F413210F040E042C0809122
:1004D00025018823E1F791E09093250120932301E2
:1004E0008FEF809326011092010141504093020149
:1004F0004F5F9093000180910001330F832B809315
:10050000000180912401813041F4109224018091F6
:1005100000018093BB0085EC01C085EE8093BC0098
:10052000809125018130E1F380910101841710F45D
:100530004091010120E030E00AC0FB01E20FF31F0F
:10054000D901AD5FBE4F8C9180832F5F3F4F241741
:10055000A0F3842F08950F931F93582F122F413229
:1005600010F081E045C0809125018823E1F782E009
:1005700080932501009323018FEF80932601109231
:10058000010140930201A3E0B1E0FB0102C08191AF
:100590008D938E2F861B8417D0F3109200018091CB
:1005A0000001550F852B809300018091240181303B
:1005B00041F410922401809100018093BB0085ECEE
:1005C00001C085EE8093BC001123A9F08091250124
:1005D000823089F4FBCF80912601803211F482E0D1
:1005E00007C080912601803311F084E001C083E0D0
:1005F0001F910F910895809126018F3F61F780E050
:10060000F7CF1F920F920FB60F9211242F933F93A3
:100610004F935F936F937F938F939F93AF93BF930A
:10062000EF93FF938091B90090E0887F90708036BF
:10063000910509F4F2C081369105CCF58832910517
:1006400009F47BC089329105B4F48031910509F435
:100650006FC0813191053CF4009709F447C10897B8
:1006600009F04FC165C08831910509F466C08097D3
:1006700009F047C182C08034910509F4A4C08134D7
:10068000910544F48033910509F482C0C89709F0BC
:1006900038C189C08035910509F489C08835910534
:1006A00009F496C08834910509F02BC1AEC0883991
:1006B000910509F413C189399105ECF48837910546
:1006C00009F4ABC0893791054CF48836910509F4DB
:1006D000A4C08037910509F014C19FC088389105E6
:1006E00009F4FCC08039910509F49DC0803891055A
:1006F00009F007C198C0803B910509F4C6C0813B51
:1007000091054CF4803A910509F49FC0883A91050F
:1007100009F0F7C0BAC0803C910509F4E3C0883CF9
:10072000910509F4DFC0883B910509F0EAC0C2C019
:10073000809100018093BB00CFC090910101809116
:100740000201981768F490910101E92FF0E0ED5F44
:10075000FE4F80818093BB009F5F90930101BCC0DE
:1007600080912301882309F44BC085ED8093BC0060
:100770008091BC0084FDFCCFC2C080E28093260142
:1007800085ED8093BC008091BC0084FDFCCFB7C098
:1007900080E38093260185ED8093BC008091BC00AE
:1007A00084FDFCCFACC088E3809326019BC0809180
:1007B00001019091BB00E82FF0E0ED5FFE4F9083C8
:1007C0008F5F80930101909101018091020182C0AD
:1007D000809101019091BB00E82FF0E0ED5FFE4FAA
:1007E00090838F5F8093010180912301882341F0E2
:1007F00085ED8093BC008091BC0084FDFCCF7FC060
:1008000081E08093240184EA6EC085ED8093BC0072
:100810008091BC0084FDFCCF72C083E080932501F1
:100820001092270159C080912701803208F056C0EC
:10083000809127019091BB00E82FF0E0E85DFE4F2A
:1008400090838F5F8093270147C08091270180327A
:1008500030F4E0912701F0E0E85DFE4F108285ED75
:100860008093BC008091BC0084FDFCCF10922501D8
:1008700060912701E0914801F091490188E291E0FF
:1008800070E00995109227012DC084E08093250126
:1008900010924A0110924B01E0914C01F0914D01F0
:1008A000099580914B01882329F481E080934B01C5
:1008B00010924E0190914A01E92FF0E0E25BFE4F69
:1008C00080818093BB009F5F90934A0190914A0181
:1008D00080914B01981710F485EC01C085E8809356
:1008E000BC000FC085EC8093BC0009C010922601AB
:1008F00085ED8093BC008091BC0084FDFCCF1092FC
:100900002501FF91EF91BF91AF919F918F917F91C1
:100910006F915F914F913F912F910F900FBE0F906C
:100920001F901895EF92FF920F931F937B018C01FC
:100930001092250181E0809323011092240182E12D
:1009400061E00E940C0683E161E00E940C06E9EB85
:10095000F0E080818E7F808380818D7F808360E066
:1009600074E284EF90E0A80197010E943F062051B5
:10097000304040405040CA01B90122E030E040E040
:1009800050E00E943F062093B80085E48093BC00AD
:100990001F910F91FF90EF9008950F931F930EE614
:1009A00011E0C80161E04FEF0E947500C80160E0EE
:1009B00040E00E947500C80163E10E948E00482F4C
:1009C00080938601C80162E10E94750064E170E0D5
:1009D00080E090E00E947E0585B190E2892785B98C
:1009E0001F910F910895259A2D9A60E87AE186E08B
:1009F00090E00E9492048EE691E060E00E945A022C
:100A00000895CF93DF930E94A4050E94F304C0E0F1
:100A1000D0E00E94CD042097E1F30E940000F9CFBE
:100A20001F920F920FB60F9211242F933F938F9323
:100A30009F93AF93BF9380918B0190918C01A09174
:100A40008D01B0918E0130918F010196A11DB11DD4
:100A5000232F2D5F2D3720F02D570196A11DB11D9D
:100A600020938F0180938B0190938C01A0938D0133
:100A7000B0938E018091870190918801A0918901A6
:100A8000B0918A010196A11DB11D809387019093B9
:100A90008801A0938901B0938A01BF91AF919F9182
:100AA0008F913F912F910F900FBE0F901F9018952F
:100AB0009FB7F89420918701309188014091890176
:100AC00050918A0186B5A89B06C08F3F21F02F5F09
:100AD0003F4F4F4F5F4F9FBF542F432F322F22273F
:100AE000280F311D411D511D82E0220F331F441F6D
:100AF000551F8A95D1F7B901CA010895EF92FF9267
:100B00000F931F93CF93DF937B018C010E945805B5
:100B1000EB010EC00E9458056C1B7D0B685E734094
:100B2000C8F30894E108F10801091109C851DC4F24
:100B3000E114F1040105110569F7DF91CF911F91CF
:100B40000F91FF90EF900895789484B5826084BDF2
:100B500084B5816084BD85B5826085BD85B58160C1
:100B600085BDEEE6F0E0808181608083E1E8F0E021
:100B70001082808182608083808181608083E0E850
:100B8000F0E0808181608083E1EBF0E0808184602F
:100B90008083E0EBF0E0808181608083EAE7F0E031
:100BA0008081846080838081826080838081816095
:100BB00080838081806880831092C1000895833093
:100BC00071F0843028F48130A1F0823021F514C016
:100BD0008630B1F08730D1F08430E9F404C08091E0
:100BE00080008F7703C0809180008F7D809380008C
:100BF000089584B58F7702C084B58F7D84BD089534
:100C00008091B0008F778093B00008958091B000FC
:100C10008F7D8093B0000895FF920F931F93F62E5F
:100C2000482F50E0CA0182559F4FFC012491CA0110
:100C300086569F4FFC0114914A575F4FFA01049169
:100C40000023C9F0222319F0822F0E94DF05E02F34
:100C5000F0E0EE0FFF1FEE58FF4FA591B4919FB744
:100C6000F894FF2021F48C911095812302C08C917F
:100C7000812B8C939FBF1F910F91FF90089597FB3D
:100C8000092E05260ED057FD04D014D00AD0001C22
:100C900038F450954095309521953F4F4F4F5F4F19
:100CA0000895F6F790958095709561957F4F8F4FD9
:100CB0009F4F0895A1E21A2EAA1BBB1BFD010DC078
:100CC000AA1FBB1FEE1FFF1FA217B307E407F507FC
:100CD00020F0A21BB30BE40BF50B661F771F881FD8
:100CE000991F1A9469F760957095809590959B016E
:0C0CF000AC01BD01CF010895F894FFCFC6
:00000001FF
