:100000000C9462000C94EE060C941B070C948A006E
:100010000C948A000C948A000C948A000C948A0038
:100020000C948A000C948A000C948A000C948A0028
:100030000C948A000C948A000C948A000C948A0018
:100040000C9448070C948A000C948B040C94D904EB
:100050000C948A000C948A000C948A000C948A00F8
:100060000C94BE020C948A000000000024002700BB
:100070002A0000000000250028002B0000000000DE
:1000800023002600290004040404040404040202DA
:100090000202020203030303030301020408102007
:1000A0004080010204081020010204081020000012
:1000B0000007000201000003040600000000000029
:1000C00000003C0611241FBECFEFD8E0DEBFCDBF3D
:1000D00011E0A0E0B1E0ECEAF1E102C005900D9280
:1000E000A239B107D9F712E0A2E9B1E001C01D922F
:1000F000AB3CB107E1F710E0C4ECD0E004C02297BC
:10010000FE010E94D008C23CD107C9F70E949206A6
:100110000C94D4080C9400004F925F926F927F92DF
:100120008F929F92AF92BF92CF92DF92EF92FF9207
:100130001F93CF93DF93EC01162F3FEF632E712CAB
:1001400028E0822E912C5C010894A11CB11C92E045
:10015000C92ED12CCC0EDD1E83E0E82EF12CEC0E46
:10016000FD1E5DC017301CF01750E7E002C0E12F04
:1001700010E0F0E0B3010E2E02C0660F771F0A9464
:10018000E2F770E00E2E02C0759567950A94E2F7CB
:100190006095888124014E1A5F0A262F282330E0BB
:1001A000042C02C0359527950A94E2F790E00E2EB4
:1001B00002C0880F991F0A94E2F78883D5018C91B9
:1001C000462F482350E0042C02C0559547950A94C9
:1001D000E2F790E00E2E02C0880F991F0A94E2F712
:1001E000282B2C93D6018C916823262F30E002C057
:1001F000359527954A94E2F790E00E2E02C0880FBD
:10020000991F0A94E2F7482B4C93D7018C9190E008
:1002100002C0880F991FEA95E2F7822B8C93112375
:1002200009F0A0CFDF91CF911F91FF90EF90DF9069
:10023000CF90BF90AF909F908F907F906F905F9086
:100240004F900895FC01DB0180819C91892B808374
:10025000818111969C911197892B818382811296BD
:100260009C911297892B8283838113969C91892B71
:1002700083830895DC01FB0180818C938181119639
:100280008C931197828112968C9312978381139687
:100290008C930895CF92DF92EF92FF920F931F936A
:1002A000CF93DF93182F092F86E991E06EE971E073
:1002B0000E943A01212F302FC9016C01EE24FF2446
:1002C00028C08AE991E06EE771E00E943A01F601E8
:1002D000E00FF11F8081882359F08AE991E068815D
:1002E0000E948C0086E991E06AE971E00E94220197
:1002F0000F5F1F4F21960730110519F70894E11C75
:10030000F11C87E090E0C80ED91E96E0E916F104D2
:1003100069F0E70143E0CC0FDD1F4A95E1F7CE1904
:10032000DF09CC5ADE4F00E010E0CBCFDF91CF9158
:100330001F910F91FF90EF90DF90CF900895EF9273
:10034000FF920F931F9352E9E52E51E0F52EC7015E
:1003500060E040E00E944F02C70161E040E00E947F
:100360004F0204E911E0C80160E040E00E944F0242
:10037000C80161E040E00E944F02C70162E1409184
:1003800096010E944F02C70163E1409197010E94CC
:100390004F02C80162E1409198010E944F02C801DA
:1003A00063E1409199010E944F021F910F91FF90CC
:1003B000EF90089580E091E00E944A010E949F0121
:1003C00064EF71E080E090E00E94D0078AE291E063
:1003D0000E944A010E949F0164EF71E080E090E07A
:1003E0000E94D00785B190E2892785B90895EF92E0
:1003F000FF920F931F930E949C077B018C018091B9
:10040000A2019091A301A091A401B091A501A8011E
:100410009701281B390B4A0B5B0B23333105410530
:10042000510520F080E091E00E944A01E092A20193
:10043000F092A3010093A4011093A5011F910F91C5
:10044000FF90EF900895259A2D9A60E87AE186E072
:1004500090E00E944F048CE992E040E855E260E0B1
:1004600070E00E9414058AB18AB98BB18BB980E023
:1004700067EF71E040E050E00E94CB0682E991E036
:1004800060E00E94490284E991E061E00E94490233
:100490000895FC0160836062618380E008950F939A
:1004A000DF93CF9300D0CDB7DEB769834A83FC01D9
:1004B0008181BE016F5F7F4F42E020E001E00E943A
:1004C000680280E00F900F90CF91DF910F91089517
:1004D0000F931F93582F122F413210F081E045C027
:1004E0008091CB018823E1F782E08093CB010093D8
:1004F000C9018FEF8093CC011092A7014093A8010E
:10050000A9EAB1E0FB0102C081918D938E2F861B79
:100510008417D0F31092A6018091A601550F852B68
:100520008093A6018091CA01813041F41092CA01E2
:100530008091A6018093BB0085EC01C085EE80937D
:10054000BC001123A9F08091CB01823089F4FBCF4C
:100550008091CC01803211F482E007C08091CC01FF
:10056000803311F084E001C083E01F910F91089562
:100570008091CC018F3F61F780E0F7CF1F920F92FF
:100580000FB60F9211242F933F934F935F936F9366
:100590007F938F939F93AF93BF93EF93FF9380913C
:1005A000B90090E0887F90708036910509F4F2C020
:1005B00081369105CCF58832910509F47BC08932EA
:1005C0009105B4F48031910509F46FC08131910532
:1005D0003CF4009709F447C1089709F04FC165C082
:1005E0008831910509F466C0809709F047C182C03F
:1005F0008034910509F4A4C08134910544F480331A
:10060000910509F482C0C89709F038C189C08035C6
:10061000910509F489C08835910509F496C088349C
:10062000910509F02BC1AEC08839910509F413C1B9
:1006300089399105ECF48837910509F4ABC0893705
:1006400091054CF48836910509F4A4C080379105D2
:1006500009F014C19FC08838910509F4FCC08039A5
:10066000910509F49DC08038910509F007C198C033
:10067000803B910509F4C6C0813B91054CF4803A5A
:10068000910509F49FC0883A910509F0F7C0BAC0F6
:10069000803C910509F4E3C0883C910509F4DFC072
:1006A000883B910509F0EAC0C2C08091A601809301
:1006B000BB00CFC09091A7018091A801981768F462
:1006C0009091A701E92FF0E0E755FE4F80818093DC
:1006D000BB009F5F9093A701BCC08091C901882394
:1006E00009F44BC085ED8093BC008091BC0084FD73
:1006F000FCCFC2C080E28093CC0185ED8093BC002A
:100700008091BC0084FDFCCFB7C080E38093CC0116
:1007100085ED8093BC008091BC0084FDFCCFACC013
:1007200088E38093CC019BC08091A7019091BB008E
:10073000E82FF0E0E755FE4F90838F5F8093A7018D
:100740009091A7018091A80182C08091A70190910A
:10075000BB00E82FF0E0E755FE4F90838F5F80935A
:10076000A7018091C901882341F085ED8093BC00E9
:100770008091BC0084FDFCCF7FC081E08093CA01E2
:1007800084EA6EC085ED8093BC008091BC0084FD3E
:10079000FCCF72C083E08093CB011092CD0159C091
:1007A0008091CD01803208F056C08091CD019091AA
:1007B000BB00E82FF0E0E253FE4F90838F5F809301
:1007C000CD0147C08091CD01803230F4E091CD0160
:1007D000F0E0E253FE4F108285ED8093BC008091E3
:1007E000BC0084FDFCCF1092CB016091CD01E09163
:1007F000EE01F091EF018EEC91E070E0099510921E
:10080000CD012DC084E08093CB011092F0011092B5
:10081000F101E091F201F091F30109958091F1016C
:10082000882329F481E08093F1011092F4019091E2
:10083000F001E92FF0E0EC50FE4F80818093BB0087
:100840009F5F9093F0019091F0018091F1019817D2
:1008500010F485EC01C085E88093BC000FC085ECE6
:100860008093BC0009C01092CC0185ED8093BC0040
:100870008091BC0084FDFCCF1092CB01FF91EF91E1
:10088000BF91AF919F918F917F916F915F914F91A8
:100890003F912F910F900FBE0F901F901895EF92E0
:1008A000FF920F931F937B018C011092CB0181E08B
:1008B0008093C9011092CA0182E161E00E945E0842
:1008C00083E161E00E945E08E9EBF0E080818E7FC9
:1008D000808380818D7F808360E074E284EF90E08C
:1008E000A80197010E94B308205130404040504079
:1008F000CA01B90122E030E040E050E00E94B308B4
:100900002093B80085E48093BC001F910F91FF9065
:10091000EF90089508951F920F920FB60F92112431
:100920002F933F934F938F939F93EF93FF938091D8
:10093000C00082FD1DC04091C6002091540230913C
:1009400055022F5F3F4F2F73307080915602909168
:1009500057022817390771F0E0915402F0915502BF
:10096000EC5EFD4F4083309355022093540202C049
:100970008091C600FF91EF919F918F914F913F9190
:100980002F910F900FBE0F901F901895E091A80225
:10099000F091A902E05CFF4F81919191208131811A
:1009A000821B930B8F739070892B11F00E948A0425
:1009B00008951F920F920FB60F9211242F933F9319
:1009C0008F939F93EF93FF93209198023091990218
:1009D00080919A0290919B022817390731F48091F7
:1009E000C1008F7D8093C10014C0E0919A02F09104
:1009F0009B02E85AFD4F208180919A0290919B02C0
:100A000001968F73907090939B0280939A0220932B
:100A1000C600FF91EF919F918F913F912F910F9081
:100A20000FBE0F901F901895AF92BF92DF92EF927A
:100A3000FF920F931F93CF93DF93EC017A018B0109
:100A4000DD24D39491E0A92EB12CEC89FD89DD2021
:100A500069F0C50108A002C0880F991F0A94E2F747
:100A6000808360E874E88EE190E005C0108260E465
:100A700072E48FE090E0A80197010E949108215054
:100A8000304040405040569547953795279580E136
:100A90002030380720F0DD2011F0DD24D6CFE889A2
:100AA000F9893083EA89FB89208319A2EE89FF89BD
:100AB000408121E030E0C9010C8C02C0880F991FF1
:100AC0000A94E2F7482B4083EE89FF894081C901EF
:100AD0000D8C02C0880F991F0A94E2F7482B4083BF
:100AE000EE89FF894081C9010E8C02C0880F991FD1
:100AF0000A94E2F7482B4083EE89FF8980810F8CAE
:100B000002C0220F331F0A94E2F720952823208386
:100B1000DF91CF911F910F91FF90EF90DF90BF90E9
:100B2000AF900895DC011C96ED91FC911D97E05C5F
:100B3000FF4F2191319180819181281B390B2F73B7
:100B40003070C9010895DC011C96ED91FC911D9750
:100B5000E05CFF4F20813181E054F040DF01AE5B6B
:100B6000BF4F8D919C9111972817390719F42FEFDA
:100B70003FEF07C08D919C91E80FF91F8081282FCE
:100B800030E0C9010895DC011C96ED91FC911D97A0
:100B9000E05CFF4F20813181E054F040DF01AE5B2B
:100BA000BF4F8D919C9111972817390719F42FEF9A
:100BB0003FEF10C08D919C911197E80FF91F208194
:100BC0008D919C91119701968F73907011969C93C3
:100BD0008E9330E0C9010895DC0191968C91919734
:100BE000882339F05496ED91FC915597808186FFCA
:100BF000F9CF91961C920895CF93DF93EC01EE8587
:100C0000FF85E05CFF4F20813181E054F0402F5F91
:100C10003F4F2F733070DF01AE5BBF4F8D919C91C2
:100C2000119728173907D1F3E05CFF4F808191813C
:100C3000E054F040E80FF91F6083EE85FF85E05C2B
:100C4000FF4F31832083EE89FF89208181E090E08E
:100C50000F8C02C0880F991F0A94E2F7282B20837B
:100C600081E089A3EC89FD8980818064808381E0B3
:100C700090E0DF91CF91089510929F0210929E0212
:100C800088EE93E0A0E0B0E08093A0029093A102F0
:100C9000A093A202B093A30286E891E090939D02F4
:100CA00080939C0284E192E09093A9028093A80231
:100CB00088E592E09093AB028093AA0285EC90E0E5
:100CC0009093AD028093AC0284EC90E09093AF02DD
:100CD0008093AE0280EC90E09093B1028093B002DA
:100CE00081EC90E09093B3028093B20282EC90E0AA
:100CF0009093B5028093B40286EC90E09093B70293
:100D00008093B60284E08093B80283E08093B902B6
:100D100087E08093BA0285E08093BB0281E08093F4
:100D2000BC020895CF93DF930E94F6070E9423022E
:100D3000C6ECD4E00E94DA012097E1F30E94C604D9
:100D4000F9CFCF92DF92EF92FF920F931F93CF9341
:100D5000DF937C016B018A01C0E0D0E00FC0D601B7
:100D60006D916D01D701ED91FC910190F081E02D25
:100D7000C7010995C80FD91F015010400115110571
:100D800071F7CE01DF91CF911F910F91FF90EF90FE
:100D9000DF90CF900895823000F5E82FF0E0EE0F5D
:100DA000FF1FE254FD4F71836083882319F0813067
:100DB000A1F408C0809169008C7F842B8093690026
:100DC000E89A089580916900440F551F440F551FFC
:100DD000837F842B80936900E99A08951F920F9274
:100DE0000FB60F9211242F933F934F935F936F93FE
:100DF0007F938F939F93AF93BF93EF93FF938091D4
:100E0000BE029091BF02892B29F0E091BE02F091C1
:100E1000BF020995FF91EF91BF91AF919F918F9183
:100E20007F916F915F914F913F912F910F900FBEE6
:100E30000F901F9018951F920F920FB60F921124CA
:100E40002F933F934F935F936F937F938F939F93D2
:100E5000AF93BF93EF93FF938091C0029091C10233
:100E6000892B29F0E091C002F091C1020995FF9110
:100E7000EF91BF91AF919F918F917F916F915F9112
:100E80004F913F912F910F900FBE0F901F9018958B
:100E90001F920F920FB60F9211242F933F934F93EF
:100EA0005F936F937F938F939F93AF93BF932091A3
:100EB000C6023091C7024091C8025091C902709198
:100EC000CA02DA01C9010296A11DB11D672F6A5F2E
:100ED0006D3730F06D57DA01C9010396A11DB11DC0
:100EE0006093CA028093C6029093C702A093C8027F
:100EF000B093C9028091C2029091C302A091C40232
:100F0000B091C5020196A11DB11D8093C2029093BC
:100F1000C302A093C402B093C502BF91AF919F9149
:100F20008F917F916F915F914F913F912F910F9092
:100F30000FBE0F901F9018958FB7F8942091C6029E
:100F40003091C7024091C8025091C9028FBFB901C8
:100F5000CA0108959FB7F8942091C2023091C3024C
:100F60004091C4025091C50286B5A89B06C08F3F30
:100F700021F02F5F3F4F4F4F5F4F9FBF542F432FA5
:100F8000322F2227280F311D411D511D83E0220FD2
:100F9000331F441F551F8A95D1F7B901CA0108951F
:100FA000EF92FF920F931F93CF93DF937B018C01FE
:100FB0000E94AA07EB010EC00E94AA076C1B7D0BC2
:100FC000685E7340C8F30894E108F108010911094B
:100FD000C851DC4FE114F1040105110569F7DF91F7
:100FE000CF911F910F91FF90EF900895789484B561
:100FF000826084BD84B5816084BD85B5826085BD15
:1010000085B5816085BDEEE6F0E0808181608083FA
:10101000E1E8F0E0108280818260808380818160DD
:101020008083E0E8F0E0808181608083E1EBF0E0A4
:10103000808184608083E0EBF0E080818160808348
:10104000EAE7F0E080818460808380818260808331
:101050008081816080838081806880831092C1005C
:101060000895833071F0843028F48130A1F082300B
:1010700021F514C08630B1F08730D1F08430E9F426
:1010800004C0809180008F7703C0809180008F7DA5
:1010900080938000089584B58F7702C084B58F7DDA
:1010A00084BD08958091B0008F778093B00008953B
:1010B0008091B0008F7D8093B0000895FF920F93D0
:1010C0001F93F62E482F50E0CA0182559F4FFC0116
:1010D0002491CA0186569F4FFC0114914A575F4FD5
:1010E000FA0104910023C9F0222319F0822F0E94F3
:1010F0003108E02FF0E0EE0FFF1FEE58FF4FA591F3
:10110000B4919FB7F894FF2021F48C91109581231E
:1011100002C08C91812B8C939FBF1F910F91FF90E8
:101120000895A1E21A2EAA1BBB1BFD010DC0AA1F28
:10113000BB1FEE1FFF1FA217B307E407F50720F040
:10114000A21BB30BE40BF50B661F771F881F991FBB
:101150001A9469F760957095809590959B01AC0104
:10116000BD01CF01089597FB092E05260ED057FD2E
:1011700004D0D7DF0AD0001C38F450954095309544
:1011800021953F4F4F4F5F4F0895F6F7909580950B
:10119000709561957F4F8F4F9F4F0895EE0FFF1F02
:0C11A0000590F491E02D0994F894FFCF25
:1011AC000001010001010001010101010101010126
:1011BC000101010101000101010101000000010117
:1011CC000100000000000100000000000000000011
:1011DC0000000101000101000001010101010000FA
:1011EC0000010101000000000001000000000000EF
:1011FC00000000001D0A0E1D17121D080B0F04160F
:10120C001119090C070315101A1D0D060214181DCF
:10121C001D1D0501131D1D1D1D1D001D1D1D010086
:10122C00000000000000FC05A1069205C305A30503
:02123C00EC05BF
:00000001FF
