:100000000C9462000C948A000C948A000C948A0070
:100010000C948A000C948A000C948A000C948A0038
:100020000C948A000C948A000C948A000C948A0028
:100030000C948A000C948A000C948A000C948A0018
:100040000C94E70A0C948A000C947F080C94CD0859
:100050000C948A000C948A000C948A000C948A00F8
:100060000C948A000C948A000000000024002700F1
:100070002A0000000000250028002B0000000000DE
:1000800023002600290004040404040404040202DA
:100090000202020203030303030301020408102007
:1000A0004080010204081020010204081020000012
:1000B0000007000201000003040600000000000029
:1000C0000000390A11241FBECFEFD8E0DEBFCDBF3C
:1000D00011E0A0E0B1E0E4E3F9E102C005900D9287
:1000E000AC3BB107D9F713E0ACEBB1E001C01D9216
:1000F000A537B107E1F710E0C4ECD0E004C02297C7
:10010000FE010E945D0CC23CD107C9F70E948F0A14
:100110000C94980C0C940000CF93DF93BC018230B8
:10012000910510F462E070E0A0917303B091740344
:10013000ED01E0E0F0E040E050E021C088819981ED
:100140008617970769F48A819B81309719F093830A
:10015000828304C09093740380937303FE0134C0C0
:100160006817790738F44115510519F08417950778
:1001700008F4AC01FE018A819B819C01E901209772
:10018000E9F641155105A9F1CA01861B970B0497A1
:1001900008F4BA01E0E0F0E02AC08D919C9111973B
:1001A00084179507F9F46417750781F412968D91F9
:1001B0009C911397309719F09383828304C0909396
:1001C000740380937303FD0132964CC0CA01861BF1
:1001D000970BFD01E80FF91F6193719302978D93BF
:1001E0009C9340C0FD01828193819C01D9011097AD
:1001F000A1F68091710390917203892B41F4809153
:10020000A6019091A701909372038093710340918E
:10021000A8015091A9014115510541F44DB75EB7B0
:100220008091A4019091A501481B590B2091710365
:1002300030917203CA01821B930B8617970780F0D7
:10024000AB014E5F5F4F8417950750F0420F531F6D
:100250005093720340937103F9016193719302C04B
:10026000E0E0F0E0CF01DF91CF910895CF93DF93ED
:10027000009709F450C0EC0122971B821A82A091CA
:100280007303B0917403109709F140E050E0AC178C
:10029000BD0708F1BB83AA83FE0121913191E20FD2
:1002A000F31FAE17BF0779F48D919C911197280F1A
:1002B000391F2E5F3F4F3983288312968D919C9171
:1002C00013979B838A834115510571F4D09374036E
:1002D000C093730320C012968D919C911397AD012A
:1002E000009711F0DC01D3CFFA01D383C2832191AF
:1002F0003191E20FF31FCE17DF0769F488819981EE
:10030000280F391F2E5F3F4FFA01318320838A81E6
:100310009B8193838283DF91CF910895A0E0B0E029
:10032000E4E9F1E00C94630C6C01009729F4CB0133
:100330000E948C006C01C1C08EEF882E8FEF982E2A
:100340008C0C9D1C8601060F171F0815190508F453
:10035000B2C0F401A081B181A617B707B8F0A530EB
:10036000B10508F4AAC0CD0104978617970708F4D1
:10037000A4C01297A61BB70BF801A193B193D401A7
:100380006D937C93CF010E94360197C07B01EA1ADE
:10039000FB0AEEEFFFEFEE0EFF1E36016A0E7B1E2C
:1003A000C0917303D091740344245524AA24BB2420
:1003B0004AC0C615D705E1F5488159814E155F053C
:1003C000B8F1CA0104978E159F05B0F41296A40FD8
:1003D000B51FF401B183A0832A813B8141145104EC
:1003E00031F0D20113963C932E93129766C030934E
:1003F00074032093730361C08A819B81F801938306
:100400008283425050404E195F095183408341140A
:10041000510431F0D20113961C930E93129704C02D
:100420001093740300937303F4017183608345C0D8
:1004300088819981A816B90608F45C012E018A8189
:100440009B819C01E901209709F0B3CF8091710352
:100450009091720386159705E9F4A616B706D0F4B5
:100460002091A8013091A9012115310541F42DB742
:100470003EB78091A4019091A501281B390B02176A
:100480001307C8F41093720300937103D4016D93A2
:100490007C9313C0CB010E948C00EC01009759F0B3
:1004A000F40140815181B6010E948102C6010E947F
:1004B00036016E0102C0CC24DD24C601CDB7DEB703
:1004C000E0E10C947F0CFC0188279927E8942191A6
:1004D0002032E9F3293010F02E30C8F32B3241F0EE
:1004E0002D3239F4689404C00E949A02820F911D43
:1004F000219120532A30C0F31EF4909581959F4F8F
:100500000895FB01DC0102C001900D924150504062
:10051000D8F70895DC0101C06D9341505040E0F7D9
:100520000895FB01DC018D91019080190110D9F330
:10053000990B08957AE0979F902D879F802D910DBC
:1005400011240895AEE0B0E0E8EAF2E00C946F0CFC
:100550008C0177FF02C060E070E8615070407E83DC
:100560006D831A83098386E08C83CE010196BA01DC
:10057000A9010E94CC022D813E8137FD09C0EF8187
:10058000F8852E173F070CF4F901E00FF11F1082D8
:100590002E96E4E00C948B0CABE0B0E0E2EDF2E0E0
:1005A0000C94610C3C012B015A01FC01178216824C
:1005B000838181FD03C06FEF7FEFC6C19AE0892E72
:1005C0001E010894211C311CF3012381F20123FD3B
:1005D000859123FF81912F01882309F4B2C18532CF
:1005E00039F423FD859123FF81912F01853229F470
:1005F00090E0B3010E94BF04E7CF982FFF24EE24C0
:100600009924FFE1FF15D0F09B3269F09C3228F469
:10061000903259F0933291F40EC09D3249F09033EC
:1006200069F441E024C052E0F52A84E0F82A28C0A9
:1006300098E0F92A25C0E0E1FE2A22C0F7FC29C093
:10064000892F80538A3070F4F6FE05C0989C902C58
:100650001124980E15C0E89CE02C1124E80EF0E25D
:10066000FF2A0EC09E3229F4F6FC6BC140E4F42A46
:1006700007C09C3619F450E8F52A02C0983649F4B0
:10068000F20123FD959123FF91912F01992309F008
:10069000B8CF892F8554833018F08052833038F4D6
:1006A00044E050E0A40EB51E5FE359830FC09336BB
:1006B00031F0933779F0933509F056C020C0F50139
:1006C0008081898342E050E0A40EB51E610101E003
:1006D00010E012C0F501C080D180F6FC03C06FEFBE
:1006E0007FEF02C0692D70E042E050E0A40EB51E1D
:1006F000C6010E94B4048C015FE7F52214C0F50125
:10070000C080D180F6FC03C06FEF7FEF02C0692D7F
:1007100070E042E050E0A40EB51EC6010E94A9049C
:100720008C0150E8F52AF3FE07C01AC080E290E081
:10073000B3010E94BF04EA948E2D90E008171907B8
:10074000A8F30EC0F601F7FC8591F7FE81916F01C9
:1007500090E0B3010E94BF04E110EA940150104000
:100760000115110579F7EAC0943611F0993669F54B
:10077000F7FE08C0F501208131814281538184E078
:1007800090E00AC0F501808191819C01442737FDEA
:100790004095542F82E090E0A80EB91E9FE6F92202
:1007A00057FF09C050954095309521953F4F4F4FC9
:1007B0005F4FE0E8FE2ACA01B901A1012AE030E05A
:1007C0000E94EB04D82ED21840C0953729F41F2D73
:1007D0001F7E2AE030E01DC01F2D197F9F3661F07B
:1007E000903720F4983509F0ACC00FC0903739F03D
:1007F000983709F0A6C004C028E030E00AC01061B4
:1008000014FD146020E130E004C014FD166020E106
:1008100032E017FF08C0F501608171818281938108
:1008200044E050E008C0F50180819181BC0180E086
:1008300090E042E050E0A40EB51EA1010E94EB043E
:10084000D82ED2188FE7F82EF122F6FE0BC05EEFFD
:10085000F522D91438F4F4FE07C0F2FC05C08FEE7F
:10086000F82202C01D2D01C0192DF4FE0DC0FE019D
:10087000ED0DF11D8081803319F499EEF92208C045
:100880001F5FF2FE05C003C08F2D867809F01F5F41
:100890000F2DF3FC14C0F0FE0FC01E1510F09D2CA0
:1008A0000BC09D2C9E0C911A1E2D06C080E290E07C
:1008B000B3010E94BF041F5F1E15C0F304C01E15C4
:1008C00010F4E11A01C0EE2404FF0FC080E390E0B1
:1008D000B3010E94BF0402FF1DC001FD03C088E7F1
:1008E00090E00EC088E590E00BC0802F867891F0F4
:1008F00001FF02C08BE201C080E2F7FC8DE290E0D4
:10090000B3010E94BF0406C080E390E0B3010E94DF
:10091000BF049A94D914C0F3DA94F101ED0DF11DDE
:10092000808190E0B3010E94BF04DD20A9F706C0DA
:1009300080E290E0B3010E94BF04EA94EE20C1F788
:1009400043CEF30166817781CB012B96E2E10C94D3
:100950007D0CFC010590615070400110D8F7809526
:1009600090958E0F9F1F0895FC016150704001907B
:100970000110D8F7809590958E0F9F1F08950F93C3
:100980001F93CF93DF938C01EB018B8181FF1BC001
:1009900082FF0DC02E813F818C819D8128173907F0
:1009A00064F4E881F9810193F983E88306C0E8855E
:1009B000F985802F0995892B31F48E819F810196CD
:1009C0009F838E8302C00FEF1FEFC801DF91CF918D
:1009D0001F910F910895FA01AA27283051F1203173
:1009E00081F1E8946F936E7F6E5F7F4F8F4F9F4FC3
:1009F000AF4FB1E03ED0B4E03CD0670F781F891F05
:100A00009A1FA11D680F791F8A1F911DA11D6A0FD2
:100A1000711D811D911DA11D20D009F468943F9185
:100A20002AE0269F11243019305D3193DEF6CF0184
:100A30000895462F4770405D4193B3E00FD0C9F74A
:100A4000F6CF462F4F70405D4A3318F0495D31FDB7
:100A50004052419302D0A9F7EACFB4E0A69597950A
:100A6000879577956795BA95C9F7009761057105E0
:100A700008959B01AC010A2E06945795479537952A
:100A80002795BA95C9F7620F731F841F951FA01D84
:100A900008950F931F93DF93CF93CDB7DEB7C05860
:100AA000D0400FB6F894DEBF0FBECDBFFE01E957B0
:100AB000FF4F419151918E010F5F1F4FC80160E8B8
:100AC00070E09F010E94A20286E493E0B8010E94B8
:100AD000E40AC058DF4F0FB6F894DEBF0FBECDBF9B
:100AE000CF91DF911F910F910895AF92BF92CF9256
:100AF000DF92EF92FF920F931F93CF93DF936C01DE
:100B00008B017B01C0E0D0E080E0A82E81E0B82E10
:100B100017C000D000D0ADB7BEB71296BC92AE924F
:100B20001197F701819191917F0114969C938E9377
:100B300013970E94490521960F900F900F900F90E8
:100B4000CC15DD0530F300D084E091E0ADB7BEB741
:100B500012969C938E9311970E944905F801C081CB
:100B6000D1810F900F90CE0166E071E00E9491025A
:100B7000009741F5F3E0CF16D104D8F0D8011296D2
:100B80008D919C9113970E946302F82EF801C48105
:100B9000D581CE016EE071E00E949102009711F4C0
:100BA00060E00CC0CE0161E171E00E94910200970B
:100BB00021F000D085E191E074C061E08F2D0E94AA
:100BC0006A0B24C0CE016FE271E00E94910200978F
:100BD00001F5B3E0CB16D10488F0F801828193814E
:100BE0000E946302F82ED80114968D919C9115975E
:100BF0000E946302682F882331F004C000D086E38E
:100C000091E023C061E08F2D0E94D60B20E030E000
:100C100054C0CE016EE471E00E9491020097F1F59C
:100C2000F2E0CF16D10470F0D80112968D919C910C
:100C300013970E946302182F092F0E94090C882322
:100C400049F40BC000D084E591E0EDB7FEB7928384
:100C500081832DC021E631E002C026E631E000D0DC
:100C600000D000D0EDB7FEB731968AE691E0ADB77F
:100C7000BEB712969C938E9311971283038335838C
:100C800024830E94490520E030E0EDB7FEB7369698
:100C90000FB6F894FEBF0FBEEDBF0FC000D087E7C0
:100CA00091E0ADB7BEB712969C938E9311970E94B8
:100CB000490521E030E00F900F90C901DF91CF91FD
:100CC0001F910F91FF90EF90DF90CF90BF90AF906A
:100CD00008953F924F925F926F927F928F929F9270
:100CE000AF92BF92CF92DF92EF92FF920F931F933A
:100CF000DF93CF93CDB7DEB760970FB6F894DEBF22
:100D00000FBECDBF988B8F87E3E0EE2EF12CEC0E5B
:100D1000FD1EC70161E070E040E050E00E944B081A
:100D20008E01075F1F4FC80161E070E040E050E0B6
:100D30000E944B081982AF84B888CC24DD246E2C25
:100D4000EF2C2E010894411C511C702E012F72E0D3
:100D5000872E912C8C0E9D1E1C2DCA82F501808140
:100D6000882331F0803221F08D3011F08A3081F407
:100D7000862D9E2DB2010E9403088A819981891BCC
:100D80008A83872D902FB4010E9403081F5F198367
:100D9000F50180818823D9F08A30C9F08D30B9F00F
:100DA0000894C11CD11C0894A11CB11CF0E0CF1602
:100DB000F1E0DF0689F60BC0C601B8010E94EA0720
:100DC000FC0180818F5FF80E0F5F1F4F08C000E0AD
:100DD00010E0FF2469E0C62ED12CCC0EDD1E8B85E1
:100DE0009C850817190740F30F2D10E0880F991FF5
:100DF000800F911F0E948C007C012B853C85220F67
:100E0000331F200F311F60E070E0A9010E948A02A9
:100E10005701A00EB11ECC24DD2423E0622E712CDC
:100E20006C0E7D1E99E0492E512C4C0E5D1EC501A5
:100E30003A2C892E23C0C201B6010E94EA07FC01A8
:100E40001081C301B6010E94EA07FC01032D982C12
:100E5000808190E09701280F391FF501219331938C
:100E60005F014F855889480F591FC901BA01412FA9
:100E700050E00E9481020894C11CD11C8D819E818A
:100E8000C816D906C0F2602F792D0E947505C701DA
:100E90000E943601C3010E94FB07C2010E94FB07AA
:100EA00080E090E060960FB6F894DEBF0FBECDBF35
:100EB000CF91DF911F910F91FF90EF90DF90CF9036
:100EC000BF90AF909F908F907F906F905F904F906A
:100ED0003F9008950F931F93CF93DF9388E00E9474
:100EE000090C182F8130B9F48091AA01882399F454
:100EF000E0914603F09147030280F381E02D86E400
:100F000093E06FE871E044E150E009951093AA0185
:100F100021E030E037C08091AA01813089F525C0F9
:100F200086E493E00E94C0092091BC023091BD028A
:100F3000F901E454FE4F80832F5F3F4F3093BD0291
:100F40002093BC028A3019F02F3F310591F48CEBCD
:100F500091E00E946906F801CE0111920197E9F72C
:100F60001092BD021092BC0204C00CEB11E0C0E074
:100F7000D1E086E493E00E948F091816190684F2E6
:100F800020E030E0C901DF91CF911F910F910895CA
:100F90000E946A07089580E091E0ECEBF1E0DF0148
:100FA0009C011D9221503040E1F786E493E040E837
:100FB00055E260E070E00E94080983E161E00E9470
:100FC0006A0B88E060E00E946A0B83E161E00E94A6
:100FD000D60B0895FC01848195819C01629FC0011C
:100FE000639F900D729F900D112420813181280FF5
:100FF000391FC9010895FC01808191810E94360149
:1010000080E090E00895EF92FF920F931F93CF93AB
:10101000DF93EC01F62EE72E8A819B8101969B835C
:101020008A83088119812C813D81829FB001839F31
:10103000700D929F700D1124C8010E948E01AC01A9
:10104000998388838A819B814115510541F41983D5
:10105000088301979B838A8322E030E014C0EC81EF
:10106000FD8101978E9F90018F9F300D9E9F300DC7
:101070001124240F351FC9016F2D7E2DAF010E9451
:10108000810220E030E0C901DF91CF911F910F91E3
:10109000FF90EF900895CF92DF92EF92FF920F931F
:1010A0001F93CF93DF93EC016B017A01469F800180
:1010B000479F100D569F100D1124C8010E948C00EF
:1010C0008883998360E070E0A8010E948A02888189
:1010D0009981892B19F422E030E006C0FB82EA8274
:1010E000DD82CC8220E030E0C901DF91CF911F91F9
:1010F0000F91FF90EF90DF90CF90089508951F9289
:101100000F920FB60F9211242F933F934F938F930B
:101110009F93EF93FF938091C00082FD1DC040918B
:10112000C6002091FE023091FF022F5F3F4F2F73C8
:10113000307080910003909101032817390771F0F6
:10114000E091FE02F091FF02E254FD4F40833093A4
:10115000FF022093FE0202C08091C600FF91EF9132
:101160009F918F914F913F912F910F900FBE0F90B4
:101170001F901895E0915203F0915303E05CFF4FEC
:101180008191919120813181821B930B8F7390709B
:10119000892B11F00E947E0808951F920F920FB6BE
:1011A0000F9211242F933F938F939F93EF93FF936D
:1011B0002091420330914303809144039091450371
:1011C0002817390731F48091C1008F7D8093C100C9
:1011D00014C0E0914403F0914503EE5FFC4F208181
:1011E000809144039091450301968F739070909382
:1011F0004503809344032093C600FF91EF919F9194
:101200008F913F912F910F900FBE0F901F901895C7
:10121000AF92BF92DF92EF92FF920F931F93CF9303
:10122000DF93EC017A018B01DD24403081EE580719
:1012300080E0680780E0780711F0DD24D39491E026
:10124000A92EB12CEC89FD89DD2069F0C50108A02B
:1012500002C0880F991F0A94E2F7808360E079E06A
:101260008DE390E005C0108260E874E88EE190E0C4
:10127000A80197010E94390C215030404040504055
:10128000569547953795279580E12030380720F00F
:10129000DD2011F0DD24D6CFE889F9893083EA8991
:1012A000FB89208319A2EE89FF89408121E030E08B
:1012B000C9010C8C02C0880F991F0A94E2F7482BD1
:1012C0004083EE89FF894081C9010D8C02C0880FDF
:1012D000991F0A94E2F7482B4083EE89FF894081E9
:1012E000C9010E8C02C0880F991F0A94E2F7482B9F
:1012F0004083EE89FF8980810F8C02C0220F331F4B
:101300000A94E2F7209528232083DF91CF911F9143
:101310000F91FF90EF90DF90BF90AF900895DC01A8
:101320001C96ED91FC911D97E05CFF4F219131914E
:1013300080819181281B390B2F733070C90108956A
:10134000DC011C96ED91FC911D97E05CFF4F208124
:101350003181E054F040DF01AE5BBF4F8D919C9135
:1013600011972817390719F42FEF3FEF07C08D9118
:101370009C91E80FF91F8081282F30E0C901089562
:10138000DC011C96ED91FC911D97E05CFF4F2081E4
:101390003181E054F040DF01AE5BBF4F8D919C91F5
:1013A00011972817390719F42FEF3FEF10C08D91CF
:1013B0009C911197E80FF91F20818D919C911197B5
:1013C00001968F73907011969C938E9330E0C901B3
:1013D0000895DC0191968C919197882339F0549669
:1013E000ED91FC915597808186FFF9CF91961C92E3
:1013F0000895CF93DF93EC01EE85FF85E05CFF4F0E
:1014000020813181E054F0402F5F3F4F2F733070C7
:10141000DF01AE5BBF4F8D919C9111972817390763
:10142000D1F3E05CFF4F80819181E054F040E80F00
:10143000F91F6083EE85FF85E05CFF4F31832083D9
:10144000EE89FF89208181E090E00F8C02C0880F37
:10145000991F0A94E2F7282B208381E089A3EC8965
:10146000FD8980818064808381E090E0DF91CF916D
:101470000895109249031092480388EE93E0A0E08B
:10148000B0E080934A0390934B03A0934C03B09336
:101490004D038FEA91E090934703809346038EEBD0
:1014A00092E0909353038093520382E093E09093F1
:1014B00055038093540385EC90E0909357038093F9
:1014C000560384EC90E0909359038093580380EC8A
:1014D00090E090935B0380935A0381EC90E09093AB
:1014E0005D0380935C0382EC90E090935F038093B4
:1014F0005E0386EC90E0909361038093600384E048
:101500008093620383E08093630387E080936403A6
:1015100085E08093650381E0809366030895CF930F
:10152000DF930E942F0B0E94CB07CAEBD8E00E94EA
:10153000C8072097E1F30E94BA08F9CFCF92DF9253
:10154000EF92FF920F931F93CF93DF937C016B0178
:101550008A01C0E0D0E00FC0D6016D916D01D701C6
:10156000ED91FC910190F081E02DC7010995C80F24
:10157000D91F015010400115110571F7CE01DF91FF
:10158000CF911F910F91FF90EF90DF90CF90089532
:10159000CF93DF93EC016115710519F420E030E081
:1015A0000FC0DB010D900020E9F71197A61BB70BC8
:1015B000E881F9810280F381E02DAD0109959C015C
:1015C000C901DF91CF9108950E94C80A08951F9222
:1015D0000F920FB60F9211242F933F938F939F93E7
:1015E000AF93BF9380916C0390916D03A0916E03B4
:1015F000B0916F03309170030196A11DB11D232F8F
:101600002D5F2D3720F02D570196A11DB11D209380
:10161000700380936C0390936D03A0936E03B0935B
:101620006F038091680390916903A0916A03B09160
:101630006B030196A11DB11D80936803909369030C
:10164000A0936A03B0936B03BF91AF919F918F9169
:101650003F912F910F900FBE0F901F901895789487
:1016600084B5826084BD84B5816084BD85B58260A7
:1016700085BD85B5816085BDEEE6F0E08081816045
:101680008083E1E8F0E01082808182608083808145
:1016900081608083E0E8F0E0808181608083E1EB1D
:1016A000F0E0808184608083E0EBF0E08081816005
:1016B0008083EAE7F0E080818460808380818260BB
:1016C00080838081816080838081806880831092A4
:1016D000C1000895CF93DF93482F50E0CA0186568A
:1016E0009F4FFC0134914A575F4FFA018491882340
:1016F00069F190E0880F991FFC01E859FF4FA5910F
:10170000B491FC01EE58FF4FC591D491662351F47A
:101710002FB7F8948C91932F909589238C9388817F
:1017200089230BC0623061F42FB7F8948C91932F0A
:10173000909589238C938881832B88832FBF06C043
:101740009FB7F8948C91832B8C939FBFDF91CF919F
:101750000895833071F0843028F48130A1F0823014
:1017600021F514C08630B1F08730D1F08430E9F42F
:1017700004C0809180008F7703C0809180008F7DAE
:1017800080938000089584B58F7702C084B58F7DE3
:1017900084BD08958091B0008F778093B000089544
:1017A0008091B0008F7D8093B0000895FF920F93D9
:1017B0001F93F62E482F50E0CA0182559F4FFC011F
:1017C0002491CA0186569F4FFC0114914A575F4FDE
:1017D000FA0104910023C9F0222319F0822F0E94FC
:1017E000A90BE02FF0E0EE0FFF1FEE58FF4FA59181
:1017F000B4919FB7F894FF2021F48C911095812328
:1018000002C08C91812B8C939FBF1F910F91FF90F1
:1018100008950F931F93482F50E0CA0182559F4FA0
:10182000FC012491CA0186569F4FFC0104914A573E
:101830005F4FFA011491112319F420E030E015C034
:10184000222319F0822F0E94A90B812F90E0880F8C
:10185000991F84589F4FFC01A591B4918C9120E071
:1018600030E0802311F021E030E0C9011F910F9199
:101870000895A1E21A2EAA1BBB1BFD010DC0AA1FD1
:10188000BB1FEE1FFF1FA217B307E407F50720F0E9
:10189000A21BB30BE40BF50B661F771F881F991F64
:1018A0001A9469F760957095809590959B01AC01AD
:1018B000BD01CF010895EE0FFF1F0590F491E02DBB
:1018C00009942F923F924F925F926F927F928F92E4
:1018D0009F92AF92BF92CF92DF92EF92FF920F93BF
:1018E0001F93CF93DF93CDB7DEB7CA1BDB0B0FB6C9
:1018F000F894DEBF0FBECDBF09942A883988488886
:101900005F846E847D848C849B84AA84B984C8841B
:10191000DF80EE80FD800C811B81AA81B981CE0F12
:10192000D11D0FB6F894DEBF0FBECDBFED010895F7
:04193000F894FFCF59
:10193400257320000A0070696E6D6F646500696E1E
:10194400006F75740070696E6D6F6465203C70691A
:101954006E3E203C696E207C206F75743E0A0064E4
:10196400777269746500647772697465203C706984
:101974006E3E203C6C6F207C2068693E0A006472D5
:10198400656164006472656164203C70696E3E0A3E
:101994000068696768006C6F770070696E20257550
:1019A400203D2025730A00636F6D6D616E64206EA7
:1019B4006F74207265636F676E697A65640A004D9F
:1019C400616E6167656D656E7420636F6E736F6CB5
:1019D400653A0A002000750300000100000000F9C8
:0C19E400099E0A8F09C009A009E909004A
:00000001FF
