:100000000C9462000C948A000C948A000C948A0070
:100010000C948A000C948A000C948A000C948A0038
:100020000C948A000C948A000C948A000C948A0028
:100030000C948A000C948A000C948A000C948A0018
:100040000C94A4050C948A000C948F020C94DD028D
:100050000C948A000C948A000C948A000C948A00F8
:100060000C94FD000C948A0000000000240027007E
:100070002A0000000000250028002B0000000000DE
:1000800023002600290004040404040404040202DA
:100090000202020203030303030301020408102007
:1000A0004080010204081020010204081020000012
:1000B0000007000201000003040600000000000029
:1000C0000000490411241FBECFEFD8E0DEBFCDBF32
:1000D00011E0A0E0B1E0EAE3FEE002C005900D927D
:1000E000A031B107D9F712E0A0E1B1E001C01D9243
:1000F000AA33B107E1F710E0C4ECD0E004C02297C6
:10010000FE010E941707C23CD107C9F70E949F0455
:100110000C941B070C9400000E94EC052091100128
:1001200030911101409112015091130128513C4F1F
:100130004F4F5F4F261737074807590798F46091CC
:10014000180181E06827609318018DE00E94A106E4
:100150000E94EC05609310017093110180931201CD
:10016000909313010E94EC05209114013091150128
:10017000409116015091170128513C4F4F4F5F4F4E
:10018000261737074807590790F48FE092E064E09C
:1001900070E04AE050E00E9487050E94EC05609301
:1001A000140170931501809316019093170108951F
:1001B0008FE092E040E052EC61E070E00E941803B2
:1001C0008DE061E00E9435068FE060E00E94350618
:1001D0000E94EC056093100170931101809312014D
:1001E000909313010E94EC05609314017093150124
:1001F000809316019093170108951F920F920FB6E6
:100200000F9211242F933F934F935F936F937F939C
:100210008F939F93AF93BF93EF93FF938091B90018
:1002200090E0887F90708036910509F4F2C08136A5
:100230009105CCF58832910509F47BC0893291058E
:10024000B4F48031910509F46FC0813191053CF41B
:10025000009709F447C1089709F04FC165C088317C
:10026000910509F466C0809709F047C182C08034C7
:10027000910509F4A4C08134910544F480339105BB
:1002800009F482C0C89709F038C189C0803591054A
:1002900009F489C08835910509F496C08834910520
:1002A00009F02BC1AEC08839910509F413C1893911
:1002B0009105ECF48837910509F4ABC089379105B5
:1002C0004CF48836910509F4A4C08037910509F0F3
:1002D00014C19FC08838910509F4FCC0803991058C
:1002E00009F49DC08038910509F007C198C0803B92
:1002F000910509F4C6C0813B91054CF4803A910503
:1003000009F49FC0883A910509F0F7C0BAC0803C53
:10031000910509F4E3C0883C910509F4DFC0883BEE
:10032000910509F0EAC0C2C0809119018093BB0019
:10033000CFC090911A0180911B01981768F4909199
:100340001A01E92FF0E0E45EFE4F80818093BB004C
:100350009F5F90931A01BCC080913C01882309F4EF
:100360004BC085ED8093BC008091BC0084FDFCCF28
:10037000C2C080E280933F0185ED8093BC008091F4
:10038000BC0084FDFCCFB7C080E380933F0185EDC6
:100390008093BC008091BC0084FDFCCFACC088E39E
:1003A00080933F019BC080911A019091BB00E82F80
:1003B000F0E0E45EFE4F90838F5F80931A0190918E
:1003C0001A0180911B0182C080911A019091BB009B
:1003D000E82FF0E0E45EFE4F90838F5F80931A0178
:1003E00080913C01882341F085ED8093BC00809191
:1003F000BC0084FDFCCF7FC081E080933D0184EA96
:100400006EC085ED8093BC008091BC0084FDFCCF64
:1004100072C083E080933E011092400159C08091E8
:100420004001803208F056C0809140019091BB009D
:10043000E82FF0E0EF5BFE4F90838F5F80934001E9
:1004400047C080914001803230F4E0914001F0E0FB
:10045000EF5BFE4F108285ED8093BC008091BC0065
:1004600084FDFCCF10923E0160914001E09161015A
:10047000F091620181E491E070E0099510924001F1
:100480002DC084E080933E011092630110926401BC
:10049000E0916501F09166010995809164018823DE
:1004A00029F481E0809364011092670190916301C7
:1004B000E92FF0E0E959FE4F80818093BB009F5FF8
:1004C000909363019091630180916401981710F4F7
:1004D00085EC01C085E88093BC000FC085EC80935B
:1004E000BC0009C010923F0185ED8093BC00809153
:1004F000BC0084FDFCCF10923E01FF91EF91BF91B3
:10050000AF919F918F917F916F915F914F913F91AB
:100510002F910F900FBE0F901F90189508951F9266
:100520000F920FB60F9211242F933F934F938F93F7
:100530009F93EF93FF938091C00082FD1DC0409177
:10054000C6002091C7013091C8012F5F3F4F2F7324
:1005500030708091C9019091CA012817390771F054
:10056000E091C701F091C801E957FE4F40833093F5
:10057000C8012093C70102C08091C600FF91EF918E
:100580009F918F914F913F912F910F900FBE0F90A0
:100590001F901895E0911B02F0911C02E05CFF4F48
:1005A0008191919120813181821B930B8F73907087
:1005B000892B11F00E948E0208951F920F920FB6A0
:1005C0000F9211242F933F938F939F93EF93FF9359
:1005D00020910B0230910C0280910D0290910E023D
:1005E0002817390731F48091C1008F7D8093C100B5
:1005F00014C0E0910D02F0910E02E553FE4F2081F0
:1006000080910D0290910E0201968F7390709093DD
:100610000E0280930D022093C600FF91EF919F91EF
:100620008F913F912F910F900FBE0F901F901895B3
:10063000AF92BF92DF92EF92FF920F931F93CF93EF
:10064000DF93EC017A018B01DD24403081EE580705
:1006500080E0680780E0780711F0DD24D39491E012
:10066000A92EB12CEC89FD89DD2069F0C50108A017
:1006700002C0880F991F0A94E2F7808360E079E056
:100680008DE390E005C0108260E874E88EE190E0B0
:10069000A80197010E94F30621503040404050408D
:1006A000569547953795279580E12030380720F0FB
:1006B000DD2011F0DD24D6CFE889F9893083EA897D
:1006C000FB89208319A2EE89FF89408121E030E077
:1006D000C9010C8C02C0880F991F0A94E2F7482BBD
:1006E0004083EE89FF894081C9010D8C02C0880FCB
:1006F000991F0A94E2F7482B4083EE89FF894081D5
:10070000C9010E8C02C0880F991F0A94E2F7482B8A
:100710004083EE89FF8980810F8C02C0220F331F36
:100720000A94E2F7209528232083DF91CF911F912F
:100730000F91FF90EF90DF90BF90AF900895DC0194
:100740001C96ED91FC911D97E05CFF4F219131913A
:1007500080819181281B390B2F733070C901089556
:10076000DC011C96ED91FC911D97E05CFF4F208110
:100770003181E054F040DF01AE5BBF4F8D919C9121
:1007800011972817390719F42FEF3FEF07C08D9104
:100790009C91E80FF91F8081282F30E0C90108954E
:1007A000DC011C96ED91FC911D97E05CFF4F2081D0
:1007B0003181E054F040DF01AE5BBF4F8D919C91E1
:1007C00011972817390719F42FEF3FEF10C08D91BB
:1007D0009C911197E80FF91F20818D919C911197A1
:1007E00001968F73907011969C938E9330E0C9019F
:1007F0000895DC0191968C919197882339F0549655
:10080000ED91FC915597808186FFF9CF91961C92CE
:100810000895CF93DF93EC01EE85FF85E05CFF4FF9
:1008200020813181E054F0402F5F3F4F2F733070B3
:10083000DF01AE5BBF4F8D919C911197281739074F
:10084000D1F3E05CFF4F80819181E054F040E80FEC
:10085000F91F6083EE85FF85E05CFF4F31832083C5
:10086000EE89FF89208181E090E00F8C02C0880F23
:10087000991F0A94E2F7282B208381E089A3EC8951
:10088000FD8980818064808381E090E0DF91CF9159
:100890000895109212021092110288EE93E0A0E0E7
:1008A000B0E08093130290931402A0931502B093CA
:1008B000160284E091E09093100280930F0287E883
:1008C00091E090931C0280931B028BEC91E090933B
:1008D0001E0280931D0285EC90E09093200280938D
:1008E0001F0284EC90E0909322028093210280EC1E
:1008F00090E0909324028093230281EC90E0909307
:1009000026028093250282EC90E090932802809347
:10091000270286EC90E090932A028093290284E0DB
:1009200080932B0283E080932C0287E080932D023A
:1009300085E080932E0281E080932F020895CF936B
:10094000DF930E94FA050E94D800CAECD2E00E9410
:100950008C002097E1F30E94CA02F9CFCF92DF9278
:10096000EF92FF920F931F93CF93DF937C016B0164
:100970008A01C0E0D0E00FC0D6016D916D01D701B2
:10098000ED91FC910190F081E02DC7010995C80F10
:10099000D91F015010400115110571F7CE01DF91EB
:1009A000CF911F910F91FF90EF90DF90CF9008951E
:1009B000EF92FF920F931F938C01DC01ED91FC915C
:1009C0000190F081E02D6DE009957C01D801ED9159
:1009D000FC910190F081E02DC8016AE009959C012D
:1009E0002E0D3F1DC9011F910F91FF90EF900895AB
:1009F000CF93DF93EC016115710519F420E030E02D
:100A00000FC0DB010D900020E9F71197A61BB70B73
:100A1000E881F9810280F381E02DAD0109959C0107
:100A2000C901DF91CF9108954F925F927F928F928B
:100A30009F92AF92BF92CF92DF92EF92FF920F936D
:100A40001F93DF93CF93CDB7DEB7A1970FB6F8947E
:100A5000DEBF0FBECDBF2C01742ECB01223008F4B7
:100A60002AE019A231E2C32ED12CCC0EDD1E822E3B
:100A70009924AA24BB24672D752FA50194010E94F7
:100A8000F30679018A01C801B701A50194010E940A
:100A9000D406472D461B0894C108D1084A3014F4E7
:100AA000405D01C0495CF6014083E114F104010599
:100AB000110521F07E2C5F2DC801DDCFC201B601EA
:100AC0000E94F804A1960FB6F894DEBF0FBECDBF0A
:100AD000CF91DF911F910F91FF90EF90DF90CF901A
:100AE000BF90AF909F908F907F905F904F900895B0
:100AF000DC012115310541F4ED91FC910190F0816B
:100B0000E02D642F099508950E9414050895CF9251
:100B1000DF92EF92FF920F931F936C017B019A017A
:100B200000E010E0B801A7010E9478058C01C60121
:100B30000E94D804080F191FC8011F910F91FF9040
:100B4000EF90DF90CF9008951F920F920FB60F9203
:100B500011242F933F938F939F93AF93BF938091D3
:100B6000350290913602A0913702B091380230914F
:100B700039020196A11DB11D232F2D5F2D3720F0C5
:100B80002D570196A11DB11D209339028093350286
:100B900090933602A0933702B093380280913102CD
:100BA00090913202A0913302B09134020196A11DBE
:100BB000B11D8093310290933202A0933302B0931F
:100BC0003402BF91AF919F918F913F912F910F90E0
:100BD0000FBE0F901F9018958FB7F8942091350293
:100BE0003091360240913702509138028FBFB901DF
:100BF000CA010895789484B5826084BD84B581600B
:100C000084BD85B5826085BD85B5816085BDEEE614
:100C1000F0E0808181608083E1E8F0E010828081F3
:100C200082608083808181608083E0E8F0E0808161
:100C300081608083E1EBF0E0808184608083E0EB81
:100C4000F0E0808181608083EAE7F0E08081846069
:100C500080838081826080838081816080838081C5
:100C6000806880831092C1000895CF93DF93482F4E
:100C700050E0CA0186569F4FFC0134914A575F4F9E
:100C8000FA018491882369F190E0880F991FFC0193
:100C9000E859FF4FA591B491FC01EE58FF4FC59163
:100CA000D491662351F42FB7F8948C91932F90959B
:100CB00089238C93888189230BC0623061F42FB71C
:100CC000F8948C91932F909589238C938881832B12
:100CD00088832FBF06C09FB7F8948C91832B8C9389
:100CE0009FBFDF91CF910895833071F0843028F455
:100CF0008130A1F0823021F514C08630B1F0873008
:100D0000D1F08430E9F404C0809180008F7703C073
:100D1000809180008F7D80938000089584B58F77C7
:100D200002C084B58F7D84BD08958091B0008F7717
:100D30008093B00008958091B0008F7D8093B000C3
:100D40000895FF920F931F93F62E482F50E0CA018B
:100D500082559F4FFC012491CA0186569F4FFC018A
:100D600014914A575F4FFA0104910023C9F02223DE
:100D700019F0822F0E947406E02FF0E0EE0FFF1FA3
:100D8000EE58FF4FA591B4919FB7F894FF2021F43E
:100D90008C911095812302C08C91812B8C939FBFE5
:100DA0001F910F91FF900895629FD001739FF001F2
:100DB000829FE00DF11D649FE00DF11D929FF00DEB
:100DC000839FF00D749FF00D659FF00D9927729F22
:100DD000B00DE11DF91F639FB00DE11DF91FBD01AD
:100DE000CF0111240895A1E21A2EAA1BBB1BFD01FD
:100DF0000DC0AA1FBB1FEE1FFF1FA217B307E407FA
:100E0000F50720F0A21BB30BE40BF50B661F771F51
:100E1000881F991F1A9469F7609570958095909531
:100E20009B01AC01BD01CF010895EE0FFF1F05909E
:0A0E3000F491E02D0994F894FFCF2F
:100E3A00000000000904AE049F03D003B003F903C5
:00000001FF
